{
  "contractName": "FamilyTrust",
  "abi": [
    {
      "inputs": [],
      "stateMutability": "nonpayable",
      "type": "constructor"
    },
    {
      "anonymous": false,
      "inputs": [
        {
          "indexed": false,
          "internalType": "address",
          "name": "sender",
          "type": "address"
        },
        {
          "indexed": false,
          "internalType": "address",
          "name": "admin",
          "type": "address"
        }
      ],
      "name": "LogAdminAdded",
      "type": "event"
    },
    {
      "anonymous": false,
      "inputs": [
        {
          "indexed": false,
          "internalType": "address",
          "name": "sender",
          "type": "address"
        },
        {
          "indexed": false,
          "internalType": "address",
          "name": "admin",
          "type": "address"
        }
      ],
      "name": "LogAdminRemoved",
      "type": "event"
    },
    {
      "anonymous": false,
      "inputs": [
        {
          "indexed": false,
          "internalType": "address",
          "name": "sender",
          "type": "address"
        },
        {
          "indexed": false,
          "internalType": "address",
          "name": "child",
          "type": "address"
        }
      ],
      "name": "LogChildAdded",
      "type": "event"
    },
    {
      "anonymous": false,
      "inputs": [
        {
          "indexed": false,
          "internalType": "address",
          "name": "sender",
          "type": "address"
        },
        {
          "indexed": false,
          "internalType": "address",
          "name": "child",
          "type": "address"
        }
      ],
      "name": "LogChildRemoved",
      "type": "event"
    },
    {
      "anonymous": false,
      "inputs": [
        {
          "indexed": false,
          "internalType": "address",
          "name": "sender",
          "type": "address"
        },
        {
          "indexed": false,
          "internalType": "address",
          "name": "receiver",
          "type": "address"
        },
        {
          "indexed": false,
          "internalType": "string",
          "name": "bucket",
          "type": "string"
        },
        {
          "indexed": false,
          "internalType": "uint256",
          "name": "newBalance",
          "type": "uint256"
        }
      ],
      "name": "LogFunded",
      "type": "event"
    },
    {
      "anonymous": false,
      "inputs": [
        {
          "indexed": false,
          "internalType": "address",
          "name": "to",
          "type": "address"
        },
        {
          "indexed": false,
          "internalType": "string",
          "name": "bucket",
          "type": "string"
        },
        {
          "indexed": false,
          "internalType": "uint256",
          "name": "amount",
          "type": "uint256"
        }
      ],
      "name": "LogFundsReleased",
      "type": "event"
    },
    {
      "anonymous": false,
      "inputs": [
        {
          "indexed": false,
          "internalType": "address",
          "name": "_address",
          "type": "address"
        },
        {
          "indexed": false,
          "internalType": "string",
          "name": "bucket",
          "type": "string"
        }
      ],
      "name": "LogLocked",
      "type": "event"
    },
    {
      "anonymous": false,
      "inputs": [
        {
          "indexed": false,
          "internalType": "address",
          "name": "sender",
          "type": "address"
        },
        {
          "indexed": false,
          "internalType": "string",
          "name": "bucket",
          "type": "string"
        }
      ],
      "name": "LogUnfunded",
      "type": "event"
    },
    {
      "anonymous": false,
      "inputs": [
        {
          "indexed": false,
          "internalType": "address",
          "name": "_address",
          "type": "address"
        },
        {
          "indexed": false,
          "internalType": "string",
          "name": "bucket",
          "type": "string"
        }
      ],
      "name": "LogUnlocked",
      "type": "event"
    },
    {
      "anonymous": false,
      "inputs": [
        {
          "indexed": true,
          "internalType": "address",
          "name": "previousOwner",
          "type": "address"
        },
        {
          "indexed": true,
          "internalType": "address",
          "name": "newOwner",
          "type": "address"
        }
      ],
      "name": "OwnershipTransferred",
      "type": "event"
    },
    {
      "inputs": [
        {
          "internalType": "uint256",
          "name": "",
          "type": "uint256"
        }
      ],
      "name": "admins",
      "outputs": [
        {
          "internalType": "address",
          "name": "",
          "type": "address"
        }
      ],
      "stateMutability": "view",
      "type": "function"
    },
    {
      "inputs": [
        {
          "internalType": "uint256",
          "name": "",
          "type": "uint256"
        }
      ],
      "name": "benefitors",
      "outputs": [
        {
          "internalType": "address",
          "name": "",
          "type": "address"
        }
      ],
      "stateMutability": "view",
      "type": "function"
    },
    {
      "inputs": [],
      "name": "owner",
      "outputs": [
        {
          "internalType": "address",
          "name": "",
          "type": "address"
        }
      ],
      "stateMutability": "view",
      "type": "function"
    },
    {
      "inputs": [],
      "name": "renounceOwnership",
      "outputs": [],
      "stateMutability": "nonpayable",
      "type": "function"
    },
    {
      "inputs": [
        {
          "internalType": "address",
          "name": "newOwner",
          "type": "address"
        }
      ],
      "name": "transferOwnership",
      "outputs": [],
      "stateMutability": "nonpayable",
      "type": "function"
    },
    {
      "inputs": [
        {
          "internalType": "address",
          "name": "_benefitor",
          "type": "address"
        },
        {
          "internalType": "string",
          "name": "_bucket",
          "type": "string"
        }
      ],
      "name": "addFunds",
      "outputs": [],
      "stateMutability": "payable",
      "type": "function"
    },
    {
      "inputs": [
        {
          "internalType": "address payable",
          "name": "_to",
          "type": "address"
        },
        {
          "internalType": "string",
          "name": "_fromBucket",
          "type": "string"
        }
      ],
      "name": "releaseFunds",
      "outputs": [],
      "stateMutability": "nonpayable",
      "type": "function"
    },
    {
      "inputs": [
        {
          "internalType": "string",
          "name": "_bucket",
          "type": "string"
        },
        {
          "internalType": "address",
          "name": "_benefitor",
          "type": "address"
        }
      ],
      "name": "lockFunds",
      "outputs": [],
      "stateMutability": "nonpayable",
      "type": "function"
    },
    {
      "inputs": [
        {
          "internalType": "string",
          "name": "_bucket",
          "type": "string"
        },
        {
          "internalType": "address",
          "name": "_benefitor",
          "type": "address"
        }
      ],
      "name": "unlockFunds",
      "outputs": [],
      "stateMutability": "nonpayable",
      "type": "function"
    },
    {
      "inputs": [
        {
          "internalType": "address",
          "name": "_admin",
          "type": "address"
        },
        {
          "internalType": "string",
          "name": "_firstName",
          "type": "string"
        },
        {
          "internalType": "string",
          "name": "_lastName",
          "type": "string"
        }
      ],
      "name": "addAdmin",
      "outputs": [],
      "stateMutability": "nonpayable",
      "type": "function"
    },
    {
      "inputs": [
        {
          "internalType": "address",
          "name": "_admin",
          "type": "address"
        }
      ],
      "name": "removeAdmin",
      "outputs": [],
      "stateMutability": "nonpayable",
      "type": "function"
    },
    {
      "inputs": [
        {
          "internalType": "address",
          "name": "_benefitor",
          "type": "address"
        },
        {
          "internalType": "string",
          "name": "_firstName",
          "type": "string"
        },
        {
          "internalType": "string",
          "name": "_lastName",
          "type": "string"
        }
      ],
      "name": "addBenefitor",
      "outputs": [
        {
          "internalType": "bool",
          "name": "",
          "type": "bool"
        }
      ],
      "stateMutability": "nonpayable",
      "type": "function"
    },
    {
      "inputs": [
        {
          "internalType": "address",
          "name": "_benefitor",
          "type": "address"
        }
      ],
      "name": "removeBenefitor",
      "outputs": [],
      "stateMutability": "nonpayable",
      "type": "function"
    },
    {
      "inputs": [
        {
          "internalType": "address",
          "name": "_address",
          "type": "address"
        },
        {
          "internalType": "bool",
          "name": "hasAccess",
          "type": "bool"
        }
      ],
      "name": "toggleAccountAccess",
      "outputs": [],
      "stateMutability": "nonpayable",
      "type": "function"
    },
    {
      "inputs": [
        {
          "internalType": "address",
          "name": "_address",
          "type": "address"
        }
      ],
      "name": "getAccountInfo",
      "outputs": [
        {
          "internalType": "string",
          "name": "firstName",
          "type": "string"
        },
        {
          "internalType": "string",
          "name": "lastName",
          "type": "string"
        },
        {
          "internalType": "bool",
          "name": "isAdmin",
          "type": "bool"
        },
        {
          "internalType": "bool",
          "name": "enabled",
          "type": "bool"
        }
      ],
      "stateMutability": "view",
      "type": "function"
    },
    {
      "inputs": [],
      "name": "getBucketTypes",
      "outputs": [
        {
          "internalType": "string[]",
          "name": "",
          "type": "string[]"
        }
      ],
      "stateMutability": "view",
      "type": "function"
    },
    {
      "inputs": [
        {
          "internalType": "address",
          "name": "_address",
          "type": "address"
        },
        {
          "internalType": "string",
          "name": "_bucket",
          "type": "string"
        }
      ],
      "name": "getBucketInfo",
      "outputs": [
        {
          "internalType": "string",
          "name": "firstName",
          "type": "string"
        },
        {
          "internalType": "string",
          "name": "lastName",
          "type": "string"
        },
        {
          "internalType": "bool",
          "name": "enabled",
          "type": "bool"
        },
        {
          "internalType": "uint256",
          "name": "balance",
          "type": "uint256"
        },
        {
          "internalType": "bool",
          "name": "locked",
          "type": "bool"
        }
      ],
      "stateMutability": "view",
      "type": "function"
    },
    {
      "inputs": [],
      "name": "getBenefitors",
      "outputs": [
        {
          "internalType": "address",
          "name": "benefitor1",
          "type": "address"
        },
        {
          "internalType": "address",
          "name": "benefitor2",
          "type": "address"
        },
        {
          "internalType": "address",
          "name": "benefitor3",
          "type": "address"
        },
        {
          "internalType": "uint256",
          "name": "len",
          "type": "uint256"
        }
      ],
      "stateMutability": "view",
      "type": "function"
    },
    {
      "inputs": [],
      "name": "getAdmins",
      "outputs": [
        {
          "internalType": "address",
          "name": "admin1",
          "type": "address"
        },
        {
          "internalType": "address",
          "name": "admin2",
          "type": "address"
        },
        {
          "internalType": "address",
          "name": "admin3",
          "type": "address"
        },
        {
          "internalType": "uint256",
          "name": "len",
          "type": "uint256"
        }
      ],
      "stateMutability": "view",
      "type": "function"
    },
    {
      "inputs": [
        {
          "internalType": "address",
          "name": "_address",
          "type": "address"
        }
      ],
      "name": "getAdminInfo",
      "outputs": [
        {
          "internalType": "string",
          "name": "firstName",
          "type": "string"
        },
        {
          "internalType": "string",
          "name": "lastName",
          "type": "string"
        },
        {
          "internalType": "bool",
          "name": "enabled",
          "type": "bool"
        }
      ],
      "stateMutability": "view",
      "type": "function"
    }
  ],
  "bytecode": "0x60806040523480156200001157600080fd5b506200003262000026620001d860201b60201c565b620001e060201b60201c565b60018081905550600067ffffffffffffffff811115620000575762000056620004b8565b5b604051908082528060200260200182016040528015620000865781602001602082028036833780820191505090505b50600390805190602001906200009e929190620002a4565b50600067ffffffffffffffff811115620000bd57620000bc620004b8565b5b604051908082528060200260200182016040528015620000ec5781602001602082028036833780820191505090505b506002908051906020019062000104929190620002a4565b5060405180606001604052806040518060400160405280600a81526020017f554e49564552534954590000000000000000000000000000000000000000000081525081526020016040518060400160405280600a81526020017f414c4c4f57414e4345530000000000000000000000000000000000000000000081525081526020016040518060400160405280600b81526020017f494e4845524954414e43450000000000000000000000000000000000000000008152508152506004906003620001d192919062000333565b506200054c565b600033905090565b60008060009054906101000a900473ffffffffffffffffffffffffffffffffffffffff169050816000806101000a81548173ffffffffffffffffffffffffffffffffffffffff021916908373ffffffffffffffffffffffffffffffffffffffff1602179055508173ffffffffffffffffffffffffffffffffffffffff168173ffffffffffffffffffffffffffffffffffffffff167f8be0079c531659141344cd1fd0a4f28419497f9722a3daafe3b4186f6b6457e060405160405180910390a35050565b82805482825590600052602060002090810192821562000320579160200282015b828111156200031f5782518260006101000a81548173ffffffffffffffffffffffffffffffffffffffff021916908373ffffffffffffffffffffffffffffffffffffffff16021790555091602001919060010190620002c5565b5b5090506200032f91906200039a565b5090565b82805482825590600052602060002090810192821562000387579160200282015b828111156200038657825182908051906020019062000375929190620003b9565b509160200191906001019062000354565b5b5090506200039691906200044a565b5090565b5b80821115620003b55760008160009055506001016200039b565b5090565b828054620003c79062000516565b90600052602060002090601f016020900481019282620003eb576000855562000437565b82601f106200040657805160ff191683800117855562000437565b8280016001018555821562000437579182015b828111156200043657825182559160200191906001019062000419565b5b5090506200044691906200039a565b5090565b5b808211156200046e576000818162000464919062000472565b506001016200044b565b5090565b508054620004809062000516565b6000825580601f10620004945750620004b5565b601f016020900490600052602060002090810190620004b491906200039a565b5b50565b7f4e487b7100000000000000000000000000000000000000000000000000000000600052604160045260246000fd5b7f4e487b7100000000000000000000000000000000000000000000000000000000600052602260045260246000fd5b600060028204905060018216806200052f57607f821691505b60208210811415620005465762000545620004e7565b5b50919050565b612ede806200055c6000396000f3fe60806040526004361061011f5760003560e01c80638da5cb5b116100a0578063c6d8046b11610064578063c6d8046b146103e3578063c76ce8161461040c578063cc64318314610435578063e854cdca14610476578063f2fde38b1461049f5761011f565b80638da5cb5b1461030857806395d97e2214610333578063a516259c1461034f578063b246c6dd1461038c578063b5000acf146103ba5761011f565b806353f24d0b116100e757806353f24d0b1461021e5780635babf5ef14610249578063715018a614610272578063722b0376146102895780637b510fe8146102c85761011f565b8063120662be1461012457806314bfd6d0146101615780631785f53c1461019e5780631b9a67a7146101c757806331ae450b146101f0575b600080fd5b34801561013057600080fd5b5061014b600480360381019061014691906121e9565b6104c8565b6040516101589190612257565b60405180910390f35b34801561016d57600080fd5b50610188600480360381019061018391906121e9565b610507565b6040516101959190612257565b60405180910390f35b3480156101aa57600080fd5b506101c560048036038101906101c0919061229e565b610546565b005b3480156101d357600080fd5b506101ee60048036038101906101e99190612303565b610620565b005b3480156101fc57600080fd5b506102056106fa565b6040516102159493929190612352565b60405180910390f35b34801561022a57600080fd5b506102336107ff565b60405161024091906124f2565b60405180910390f35b34801561025557600080fd5b50610270600480360381019061026b9190612649565b6108d8565b005b34801561027e57600080fd5b50610287610ae8565b005b34801561029557600080fd5b506102b060048036038101906102ab919061229e565b610b70565b6040516102bf9392919061272d565b60405180910390f35b3480156102d457600080fd5b506102ef60048036038101906102ea919061229e565b610d68565b6040516102ff9493929190612772565b60405180910390f35b34801561031457600080fd5b5061031d610fda565b60405161032a9190612257565b60405180910390f35b61034d600480360381019061034891906127c5565b611003565b005b34801561035b57600080fd5b5061037660048036038101906103719190612649565b6111d3565b6040516103839190612821565b60405180910390f35b34801561039857600080fd5b506103a1611423565b6040516103b19493929190612352565b60405180910390f35b3480156103c657600080fd5b506103e160048036038101906103dc919061283c565b61152a565b005b3480156103ef57600080fd5b5061040a600480360381019061040591906128d6565b61165b565b005b34801561041857600080fd5b50610433600480360381019061042e919061229e565b6119a3565b005b34801561044157600080fd5b5061045c600480360381019061045791906127c5565b611afa565b60405161046d959493929190612932565b60405180910390f35b34801561048257600080fd5b5061049d6004803603810190610498919061283c565b611dc7565b005b3480156104ab57600080fd5b506104c660048036038101906104c1919061229e565b611ef8565b005b600381815481106104d857600080fd5b906000526020600020016000915054906101000a900473ffffffffffffffffffffffffffffffffffffffff1681565b6002818154811061051757600080fd5b906000526020600020016000915054906101000a900473ffffffffffffffffffffffffffffffffffffffff1681565b61054e611ff0565b73ffffffffffffffffffffffffffffffffffffffff1661056c610fda565b73ffffffffffffffffffffffffffffffffffffffff16146105c2576040517f08c379a00000000000000000000000000000000000000000000000000000000081526004016105b9906129df565b60405180910390fd5b6000600560008373ffffffffffffffffffffffffffffffffffffffff1673ffffffffffffffffffffffffffffffffffffffff16815260200190815260200160002060020160016101000a81548160ff02191690831515021790555050565b610628611ff0565b73ffffffffffffffffffffffffffffffffffffffff16610646610fda565b73ffffffffffffffffffffffffffffffffffffffff161461069c576040517f08c379a0000000000000000000000000000000000000000000000000000000008152600401610693906129df565b60405180910390fd5b80600560008473ffffffffffffffffffffffffffffffffffffffff1673ffffffffffffffffffffffffffffffffffffffff16815260200190815260200160002060020160016101000a81548160ff0219169083151502179055505050565b60008060008060028054905090506000600280549050111561075957600260008154811061072b5761072a6129ff565b5b9060005260206000200160009054906101000a900473ffffffffffffffffffffffffffffffffffffffff1693505b600160028054905011156107aa57600260018154811061077c5761077b6129ff565b5b9060005260206000200160009054906101000a900473ffffffffffffffffffffffffffffffffffffffff1692505b6002808054905011156107f957600280815481106107cb576107ca6129ff565b5b9060005260206000200160009054906101000a900473ffffffffffffffffffffffffffffffffffffffff1691505b90919293565b60606004805480602002602001604051908101604052809291908181526020016000905b828210156108cf57838290600052602060002001805461084290612a5d565b80601f016020809104026020016040519081016040528092919081815260200182805461086e90612a5d565b80156108bb5780601f10610890576101008083540402835291602001916108bb565b820191906000526020600020905b81548152906001019060200180831161089e57829003601f168201915b505050505081526020019060010190610823565b50505050905090565b6108e0611ff0565b73ffffffffffffffffffffffffffffffffffffffff166108fe610fda565b73ffffffffffffffffffffffffffffffffffffffff1614610954576040517f08c379a000000000000000000000000000000000000000000000000000000000815260040161094b906129df565b60405180910390fd5b6002839080600181540180825580915050600190039060005260206000200160009091909190916101000a81548173ffffffffffffffffffffffffffffffffffffffff021916908373ffffffffffffffffffffffffffffffffffffffff1602179055506040518060a00160405280838152602001828152602001600060018111156109e2576109e1612a8f565b5b815260200160011515815260200160011515815250600560008573ffffffffffffffffffffffffffffffffffffffff1673ffffffffffffffffffffffffffffffffffffffff1681526020019081526020016000206000820151816000019080519060200190610a529291906120bc565b506020820151816001019080519060200190610a6f9291906120bc565b5060408201518160020160006101000a81548160ff02191690836001811115610a9b57610a9a612a8f565b5b021790555060608201518160020160016101000a81548160ff02191690831515021790555060808201518160020160026101000a81548160ff021916908315150217905550905050505050565b610af0611ff0565b73ffffffffffffffffffffffffffffffffffffffff16610b0e610fda565b73ffffffffffffffffffffffffffffffffffffffff1614610b64576040517f08c379a0000000000000000000000000000000000000000000000000000000008152600401610b5b906129df565b60405180910390fd5b610b6e6000611ff8565b565b6060806000600560008573ffffffffffffffffffffffffffffffffffffffff1673ffffffffffffffffffffffffffffffffffffffff1681526020019081526020016000206000018054610bc290612a5d565b80601f0160208091040260200160405190810160405280929190818152602001828054610bee90612a5d565b8015610c3b5780601f10610c1057610100808354040283529160200191610c3b565b820191906000526020600020905b815481529060010190602001808311610c1e57829003601f168201915b50505050509250600560008573ffffffffffffffffffffffffffffffffffffffff1673ffffffffffffffffffffffffffffffffffffffff1681526020019081526020016000206001018054610c8f90612a5d565b80601f0160208091040260200160405190810160405280929190818152602001828054610cbb90612a5d565b8015610d085780601f10610cdd57610100808354040283529160200191610d08565b820191906000526020600020905b815481529060010190602001808311610ceb57829003601f168201915b50505050509150600560008573ffffffffffffffffffffffffffffffffffffffff1673ffffffffffffffffffffffffffffffffffffffff16815260200190815260200160002060020160019054906101000a900460ff1690509193909250565b606080600080600560008673ffffffffffffffffffffffffffffffffffffffff1673ffffffffffffffffffffffffffffffffffffffff1681526020019081526020016000206000018054610dbb90612a5d565b80601f0160208091040260200160405190810160405280929190818152602001828054610de790612a5d565b8015610e345780601f10610e0957610100808354040283529160200191610e34565b820191906000526020600020905b815481529060010190602001808311610e1757829003601f168201915b50505050509350600560008673ffffffffffffffffffffffffffffffffffffffff1673ffffffffffffffffffffffffffffffffffffffff1681526020019081526020016000206001018054610e8890612a5d565b80601f0160208091040260200160405190810160405280929190818152602001828054610eb490612a5d565b8015610f015780601f10610ed657610100808354040283529160200191610f01565b820191906000526020600020905b815481529060010190602001808311610ee457829003601f168201915b5050505050925060006001811115610f1c57610f1b612a8f565b5b600560008773ffffffffffffffffffffffffffffffffffffffff1673ffffffffffffffffffffffffffffffffffffffff16815260200190815260200160002060020160009054906101000a900460ff166001811115610f7e57610f7d612a8f565b5b149150600560008673ffffffffffffffffffffffffffffffffffffffff1673ffffffffffffffffffffffffffffffffffffffff16815260200190815260200160002060020160019054906101000a900460ff1690509193509193565b60008060009054906101000a900473ffffffffffffffffffffffffffffffffffffffff16905090565b81600560008273ffffffffffffffffffffffffffffffffffffffff1673ffffffffffffffffffffffffffffffffffffffff16815260200190815260200160002060020160019054906101000a900460ff16611093576040517f08c379a000000000000000000000000000000000000000000000000000000000815260040161108a90612b0a565b60405180910390fd5b604051806040016040528034815260200160001515815250600660008573ffffffffffffffffffffffffffffffffffffffff1673ffffffffffffffffffffffffffffffffffffffff168152602001908152602001600020836040516110f89190612b66565b90815260200160405180910390206000820151816000015560208201518160010160006101000a81548160ff0219169083151502179055509050507fb35695d61d4d082cc9167cfc545e04075885362274c7ab44e3603f1cd77c254a338484600660008873ffffffffffffffffffffffffffffffffffffffff1673ffffffffffffffffffffffffffffffffffffffff168152602001908152602001600020866040516111a49190612b66565b9081526020016040518091039020600001546040516111c69493929190612b7d565b60405180910390a1505050565b60008060018111156111e8576111e7612a8f565b5b600560003373ffffffffffffffffffffffffffffffffffffffff1673ffffffffffffffffffffffffffffffffffffffff16815260200190815260200160002060020160009054906101000a900460ff16600181111561124a57611249612a8f565b5b1461128a576040517f08c379a000000000000000000000000000000000000000000000000000000000815260040161128190612c15565b60405180910390fd5b6003849080600181540180825580915050600190039060005260206000200160009091909190916101000a81548173ffffffffffffffffffffffffffffffffffffffff021916908373ffffffffffffffffffffffffffffffffffffffff1602179055506040518060a0016040528084815260200183815260200160018081111561131757611316612a8f565b5b815260200160011515815260200160011515815250600560008673ffffffffffffffffffffffffffffffffffffffff1673ffffffffffffffffffffffffffffffffffffffff16815260200190815260200160002060008201518160000190805190602001906113879291906120bc565b5060208201518160010190805190602001906113a49291906120bc565b5060408201518160020160006101000a81548160ff021916908360018111156113d0576113cf612a8f565b5b021790555060608201518160020160016101000a81548160ff02191690831515021790555060808201518160020160026101000a81548160ff021916908315150217905550905050600190509392505050565b600080600080600380549050905060006003805490501115611482576003600081548110611454576114536129ff565b5b9060005260206000200160009054906101000a900473ffffffffffffffffffffffffffffffffffffffff1693505b600160038054905011156114d35760036001815481106114a5576114a46129ff565b5b9060005260206000200160009054906101000a900473ffffffffffffffffffffffffffffffffffffffff1692505b600260038054905011156115245760036002815481106114f6576114f56129ff565b5b9060005260206000200160009054906101000a900473ffffffffffffffffffffffffffffffffffffffff1691505b90919293565b6000600181111561153e5761153d612a8f565b5b600560003373ffffffffffffffffffffffffffffffffffffffff1673ffffffffffffffffffffffffffffffffffffffff16815260200190815260200160002060020160009054906101000a900460ff1660018111156115a05761159f612a8f565b5b146115e0576040517f08c379a00000000000000000000000000000000000000000000000000000000081526004016115d790612c15565b60405180910390fd5b6001600660008373ffffffffffffffffffffffffffffffffffffffff1673ffffffffffffffffffffffffffffffffffffffff1681526020019081526020016000208360405161162f9190612b66565b908152602001604051809103902060010160006101000a81548160ff0219169083151502179055505050565b6000600181111561166f5761166e612a8f565b5b600560003373ffffffffffffffffffffffffffffffffffffffff1673ffffffffffffffffffffffffffffffffffffffff16815260200190815260200160002060020160009054906101000a900460ff1660018111156116d1576116d0612a8f565b5b14611711576040517f08c379a000000000000000000000000000000000000000000000000000000000815260040161170890612c15565b60405180910390fd5b81600560008273ffffffffffffffffffffffffffffffffffffffff1673ffffffffffffffffffffffffffffffffffffffff16815260200190815260200160002060020160029054906101000a900460ff166117a1576040517f08c379a000000000000000000000000000000000000000000000000000000000815260040161179890612c81565b60405180910390fd5b82826000600660008473ffffffffffffffffffffffffffffffffffffffff1673ffffffffffffffffffffffffffffffffffffffff168152602001908152602001600020826040516117f29190612b66565b90815260200160405180910390206000015411611844576040517f08c379a000000000000000000000000000000000000000000000000000000000815260040161183b90612ced565b60405180910390fd5b6002600154141561188a576040517f08c379a000000000000000000000000000000000000000000000000000000000815260040161188190612d59565b60405180910390fd5b60026001819055506000600660008773ffffffffffffffffffffffffffffffffffffffff1673ffffffffffffffffffffffffffffffffffffffff168152602001908152602001600020856040516118e19190612b66565b90815260200160405180910390206000015490506000600660008873ffffffffffffffffffffffffffffffffffffffff1673ffffffffffffffffffffffffffffffffffffffff168152602001908152602001600020866040516119449190612b66565b9081526020016040518091039020600001819055507fa04a52971dad7a35fe69b1a735b8184efbe64ee80a0434568f3e824ee55469ba86868360405161198c93929190612dd8565b60405180910390a150600180819055505050505050565b600060018111156119b7576119b6612a8f565b5b600560003373ffffffffffffffffffffffffffffffffffffffff1673ffffffffffffffffffffffffffffffffffffffff16815260200190815260200160002060020160009054906101000a900460ff166001811115611a1957611a18612a8f565b5b14611a59576040517f08c379a0000000000000000000000000000000000000000000000000000000008152600401611a5090612c15565b60405180910390fd5b600560008273ffffffffffffffffffffffffffffffffffffffff1673ffffffffffffffffffffffffffffffffffffffff16815260200190815260200160002060008082016000611aa99190612142565b600182016000611ab99190612142565b6002820160006101000a81549060ff02191690556002820160016101000a81549060ff02191690556002820160026101000a81549060ff0219169055505050565b6060806000806000600560008873ffffffffffffffffffffffffffffffffffffffff1673ffffffffffffffffffffffffffffffffffffffff1681526020019081526020016000206000018054611b4f90612a5d565b80601f0160208091040260200160405190810160405280929190818152602001828054611b7b90612a5d565b8015611bc85780601f10611b9d57610100808354040283529160200191611bc8565b820191906000526020600020905b815481529060010190602001808311611bab57829003601f168201915b50505050509450600560008873ffffffffffffffffffffffffffffffffffffffff1673ffffffffffffffffffffffffffffffffffffffff1681526020019081526020016000206001018054611c1c90612a5d565b80601f0160208091040260200160405190810160405280929190818152602001828054611c4890612a5d565b8015611c955780601f10611c6a57610100808354040283529160200191611c95565b820191906000526020600020905b815481529060010190602001808311611c7857829003601f168201915b50505050509350600560008873ffffffffffffffffffffffffffffffffffffffff1673ffffffffffffffffffffffffffffffffffffffff16815260200190815260200160002060020160019054906101000a900460ff169250600660008873ffffffffffffffffffffffffffffffffffffffff1673ffffffffffffffffffffffffffffffffffffffff16815260200190815260200160002086604051611d3b9190612b66565b9081526020016040518091039020600001549150600660008873ffffffffffffffffffffffffffffffffffffffff1673ffffffffffffffffffffffffffffffffffffffff16815260200190815260200160002086604051611d9c9190612b66565b908152602001604051809103902060010160009054906101000a900460ff1690509295509295909350565b60006001811115611ddb57611dda612a8f565b5b600560003373ffffffffffffffffffffffffffffffffffffffff1673ffffffffffffffffffffffffffffffffffffffff16815260200190815260200160002060020160009054906101000a900460ff166001811115611e3d57611e3c612a8f565b5b14611e7d576040517f08c379a0000000000000000000000000000000000000000000000000000000008152600401611e7490612c15565b60405180910390fd5b6000600660008373ffffffffffffffffffffffffffffffffffffffff1673ffffffffffffffffffffffffffffffffffffffff16815260200190815260200160002083604051611ecc9190612b66565b908152602001604051809103902060010160006101000a81548160ff0219169083151502179055505050565b611f00611ff0565b73ffffffffffffffffffffffffffffffffffffffff16611f1e610fda565b73ffffffffffffffffffffffffffffffffffffffff1614611f74576040517f08c379a0000000000000000000000000000000000000000000000000000000008152600401611f6b906129df565b60405180910390fd5b600073ffffffffffffffffffffffffffffffffffffffff168173ffffffffffffffffffffffffffffffffffffffff161415611fe4576040517f08c379a0000000000000000000000000000000000000000000000000000000008152600401611fdb90612e88565b60405180910390fd5b611fed81611ff8565b50565b600033905090565b60008060009054906101000a900473ffffffffffffffffffffffffffffffffffffffff169050816000806101000a81548173ffffffffffffffffffffffffffffffffffffffff021916908373ffffffffffffffffffffffffffffffffffffffff1602179055508173ffffffffffffffffffffffffffffffffffffffff168173ffffffffffffffffffffffffffffffffffffffff167f8be0079c531659141344cd1fd0a4f28419497f9722a3daafe3b4186f6b6457e060405160405180910390a35050565b8280546120c890612a5d565b90600052602060002090601f0160209004810192826120ea5760008555612131565b82601f1061210357805160ff1916838001178555612131565b82800160010185558215612131579182015b82811115612130578251825591602001919060010190612115565b5b50905061213e9190612182565b5090565b50805461214e90612a5d565b6000825580601f10612160575061217f565b601f01602090049060005260206000209081019061217e9190612182565b5b50565b5b8082111561219b576000816000905550600101612183565b5090565b6000604051905090565b600080fd5b600080fd5b6000819050919050565b6121c6816121b3565b81146121d157600080fd5b50565b6000813590506121e3816121bd565b92915050565b6000602082840312156121ff576121fe6121a9565b5b600061220d848285016121d4565b91505092915050565b600073ffffffffffffffffffffffffffffffffffffffff82169050919050565b600061224182612216565b9050919050565b61225181612236565b82525050565b600060208201905061226c6000830184612248565b92915050565b61227b81612236565b811461228657600080fd5b50565b60008135905061229881612272565b92915050565b6000602082840312156122b4576122b36121a9565b5b60006122c284828501612289565b91505092915050565b60008115159050919050565b6122e0816122cb565b81146122eb57600080fd5b50565b6000813590506122fd816122d7565b92915050565b6000806040838503121561231a576123196121a9565b5b600061232885828601612289565b9250506020612339858286016122ee565b9150509250929050565b61234c816121b3565b82525050565b60006080820190506123676000830187612248565b6123746020830186612248565b6123816040830185612248565b61238e6060830184612343565b95945050505050565b600081519050919050565b600082825260208201905092915050565b6000819050602082019050919050565b600081519050919050565b600082825260208201905092915050565b60005b838110156123fd5780820151818401526020810190506123e2565b8381111561240c576000848401525b50505050565b6000601f19601f8301169050919050565b600061242e826123c3565b61243881856123ce565b93506124488185602086016123df565b61245181612412565b840191505092915050565b60006124688383612423565b905092915050565b6000602082019050919050565b600061248882612397565b61249281856123a2565b9350836020820285016124a4856123b3565b8060005b858110156124e057848403895281516124c1858261245c565b94506124cc83612470565b925060208a019950506001810190506124a8565b50829750879550505050505092915050565b6000602082019050818103600083015261250c818461247d565b905092915050565b600080fd5b600080fd5b7f4e487b7100000000000000000000000000000000000000000000000000000000600052604160045260246000fd5b61255682612412565b810181811067ffffffffffffffff821117156125755761257461251e565b5b80604052505050565b600061258861219f565b9050612594828261254d565b919050565b600067ffffffffffffffff8211156125b4576125b361251e565b5b6125bd82612412565b9050602081019050919050565b82818337600083830152505050565b60006125ec6125e784612599565b61257e565b90508281526020810184848401111561260857612607612519565b5b6126138482856125ca565b509392505050565b600082601f8301126126305761262f612514565b5b81356126408482602086016125d9565b91505092915050565b600080600060608486031215612662576126616121a9565b5b600061267086828701612289565b935050602084013567ffffffffffffffff811115612691576126906121ae565b5b61269d8682870161261b565b925050604084013567ffffffffffffffff8111156126be576126bd6121ae565b5b6126ca8682870161261b565b9150509250925092565b600082825260208201905092915050565b60006126f0826123c3565b6126fa81856126d4565b935061270a8185602086016123df565b61271381612412565b840191505092915050565b612727816122cb565b82525050565b6000606082019050818103600083015261274781866126e5565b9050818103602083015261275b81856126e5565b905061276a604083018461271e565b949350505050565b6000608082019050818103600083015261278c81876126e5565b905081810360208301526127a081866126e5565b90506127af604083018561271e565b6127bc606083018461271e565b95945050505050565b600080604083850312156127dc576127db6121a9565b5b60006127ea85828601612289565b925050602083013567ffffffffffffffff81111561280b5761280a6121ae565b5b6128178582860161261b565b9150509250929050565b6000602082019050612836600083018461271e565b92915050565b60008060408385031215612853576128526121a9565b5b600083013567ffffffffffffffff811115612871576128706121ae565b5b61287d8582860161261b565b925050602061288e85828601612289565b9150509250929050565b60006128a382612216565b9050919050565b6128b381612898565b81146128be57600080fd5b50565b6000813590506128d0816128aa565b92915050565b600080604083850312156128ed576128ec6121a9565b5b60006128fb858286016128c1565b925050602083013567ffffffffffffffff81111561291c5761291b6121ae565b5b6129288582860161261b565b9150509250929050565b600060a082019050818103600083015261294c81886126e5565b9050818103602083015261296081876126e5565b905061296f604083018661271e565b61297c6060830185612343565b612989608083018461271e565b9695505050505050565b7f4f776e61626c653a2063616c6c6572206973206e6f7420746865206f776e6572600082015250565b60006129c96020836126d4565b91506129d482612993565b602082019050919050565b600060208201905081810360008301526129f8816129bc565b9050919050565b7f4e487b7100000000000000000000000000000000000000000000000000000000600052603260045260246000fd5b7f4e487b7100000000000000000000000000000000000000000000000000000000600052602260045260246000fd5b60006002820490506001821680612a7557607f821691505b60208210811415612a8957612a88612a2e565b5b50919050565b7f4e487b7100000000000000000000000000000000000000000000000000000000600052602160045260246000fd5b7f4163636f756e742069732064697361626c656400000000000000000000000000600082015250565b6000612af46013836126d4565b9150612aff82612abe565b602082019050919050565b60006020820190508181036000830152612b2381612ae7565b9050919050565b600081905092915050565b6000612b40826123c3565b612b4a8185612b2a565b9350612b5a8185602086016123df565b80840191505092915050565b6000612b728284612b35565b915081905092915050565b6000608082019050612b926000830187612248565b612b9f6020830186612248565b8181036040830152612bb181856126e5565b9050612bc06060830184612343565b95945050505050565b7f4f6e6c792061646d696e732063616e2063616c6c207468697300000000000000600082015250565b6000612bff6019836126d4565b9150612c0a82612bc9565b602082019050919050565b60006020820190508181036000830152612c2e81612bf2565b9050919050565b7f4163636f756e74206e6f7420666f756e64000000000000000000000000000000600082015250565b6000612c6b6011836126d4565b9150612c7682612c35565b602082019050919050565b60006020820190508181036000830152612c9a81612c5e565b9050919050565b7f42616c616e6365206973206e6f7420656e6f7567680000000000000000000000600082015250565b6000612cd76015836126d4565b9150612ce282612ca1565b602082019050919050565b60006020820190508181036000830152612d0681612cca565b9050919050565b7f5265656e7472616e637947756172643a207265656e7472616e742063616c6c00600082015250565b6000612d43601f836126d4565b9150612d4e82612d0d565b602082019050919050565b60006020820190508181036000830152612d7281612d36565b9050919050565b6000819050919050565b6000612d9e612d99612d9484612216565b612d79565b612216565b9050919050565b6000612db082612d83565b9050919050565b6000612dc282612da5565b9050919050565b612dd281612db7565b82525050565b6000606082019050612ded6000830186612dc9565b8181036020830152612dff81856126e5565b9050612e0e6040830184612343565b949350505050565b7f4f776e61626c653a206e6577206f776e657220697320746865207a65726f206160008201527f6464726573730000000000000000000000000000000000000000000000000000602082015250565b6000612e726026836126d4565b9150612e7d82612e16565b604082019050919050565b60006020820190508181036000830152612ea181612e65565b905091905056fea26469706673582212207bbb9cd5e3ebb3ae1c8e643e30ef68bcd6b65ca8326ecaf5653ff04e2161fe9764736f6c634300080a0033",
  "immutableReferences": {},
  "source": "// SPDX-License-Identifier: MIT\npragma solidity ^0.8.10;\npragma experimental ABIEncoderV2;\n\nimport \"@openzeppelin/contracts/access/Ownable.sol\";\nimport \"@openzeppelin/contracts/security/ReentrancyGuard.sol\";\n\n///@title Allows families to deposit, lock, unlock, and release funds for the benefits of their children.\n///@author Adil Mezghouti\ncontract FamilyTrust is Ownable, ReentrancyGuard {\n  address[] public admins;\n  address[] public benefitors;\n  enum Role {\n    ADMIN,\n    USER\n  }\n  string[] bucketTypes;    \n  struct Bucket {\n    uint balance;\n    bool locked;\n  }\n  struct Account {\n    string firstName;\n    string lastName;\n    Role role;\n    bool enabled;\n    bool exists;\n  }\n  mapping(address => Account) accounts;\n  mapping(address => mapping(string => Bucket)) buckets;\n\n  constructor() {\n    benefitors = new address[](0);\n    admins = new address[](0);\n    bucketTypes = [\n      'UNIVERSITY',\n      'ALLOWANCES',\n      'INHERITANCE'\n    ];\n  }\n\n  event LogLocked(address _address, string bucket);\n  event LogUnlocked(address _address, string bucket);\n  event LogFunded(address sender, address receiver, string bucket, uint newBalance);\n  event LogUnfunded(address sender, string bucket);\n  event LogFundsReleased(address to, string bucket, uint amount);\n  event LogAdminAdded(address sender, address admin);\n  event LogAdminRemoved(address sender, address admin);\n  event LogChildAdded(address sender, address child);\n  event LogChildRemoved(address sender, address child);\n\n  modifier onlyAdmins() {\n    require(accounts[msg.sender].role == Role.ADMIN, \"Only admins can call this\");\n    _;\n  }\n\n  modifier onlyBenefitors() {\n    require(accounts[msg.sender].role == Role.USER, \"Only benefitors can call this\");\n    _;\n  }\n\n  modifier enoughFunds(address _address, string memory _bucket) {\n    require(buckets[_address][_bucket].balance > 0, \"Balance is not enough\");\n    _;\n  }\n\n  modifier accountEnabled(address _address) {\n    require(accounts[_address].enabled, \"Account is disabled\");\n    _;\n  }\n\n  modifier existingAccount(address _address) {\n    require(accounts[_address].exists, 'Account not found');\n    _;\n  }\n\n  ///@notice Adds funds to the smart contract and associate them to a specific bucket\n  ///@param _benefitor the address of the person who will be the recipient of the deposited funds\n  ///@param _bucket the name of the bucket in which the funds will be deposited\n  ///@notice Note that the funds will be assigned logically through buckets and will not be effectively owned by the benefitor until the admin/owner releases the funds to her\n  function addFunds(address _benefitor, string memory _bucket) public payable accountEnabled(_benefitor) {\n    buckets[_benefitor][_bucket] = Bucket({\n      balance: msg.value,\n      locked: false\n    });\n    emit LogFunded(msg.sender, _benefitor, _bucket, buckets[_benefitor][_bucket].balance);\n  }\n\n  ///@notice Moves the amount associated with a specific bucket to the provided address\n  ///@param _to the address receiving the funds\n  ///@param _fromBucket the bucket to which the funds are associated\n  function releaseFunds(address payable _to, string memory _fromBucket) public onlyAdmins existingAccount(_to) enoughFunds(_to, _fromBucket) nonReentrant {\n    uint oldBalance = buckets[_to][_fromBucket].balance;\n    buckets[_to][_fromBucket].balance = 0;\n//    (bool success, ) = _to.call{value: oldBalance}(\"\");\n//    require(success, \"Transfer failed\");\n    emit LogFundsReleased(_to, _fromBucket, oldBalance);\n  }\n\n  function lockFunds(string memory _bucket, address _benefitor) public onlyAdmins {\n    buckets[_benefitor][_bucket].locked = true;\n  }\n\n  function unlockFunds(string memory _bucket, address _benefitor) public onlyAdmins {\n    buckets[_benefitor][_bucket].locked = false;\n  }\n\n  function addAdmin(address _admin, string memory _firstName, string memory _lastName) public onlyOwner {\n    admins.push(_admin);\n    accounts[_admin] = Account({\n      firstName: _firstName,\n      lastName: _lastName,\n      role: Role.ADMIN,\n      enabled: true,\n      exists: true\n    });\n  }\n\n  function removeAdmin(address _admin) public onlyOwner {\n    accounts[_admin].enabled = false;\n  }\n\n  function addBenefitor(address _benefitor, string memory _firstName, string memory _lastName) public onlyAdmins returns(bool) {\n    benefitors.push(_benefitor);\n    accounts[_benefitor] = Account({\n      firstName: _firstName,\n      lastName: _lastName,\n      role: Role.USER,\n      enabled: true,\n      exists: true\n    });\n\n    return true;\n  }\n\n  function removeBenefitor(address _benefitor) public onlyAdmins {\n    delete accounts[_benefitor];\n  }\n\n  function toggleAccountAccess(address _address, bool hasAccess) public onlyOwner {\n    accounts[_address].enabled = hasAccess;\n  }\n\n  function getAccountInfo(address _address) public view returns(\n    string memory firstName,\n    string memory lastName,\n    bool isAdmin,\n    bool enabled\n    ) {\n    firstName = accounts[_address].firstName;\n    lastName = accounts[_address].lastName;\n    isAdmin = accounts[_address].role == Role.ADMIN;\n    enabled = accounts[_address].enabled;\n\n    return (\n      firstName,\n      lastName,\n      isAdmin,\n      enabled\n    );\n  }\n\n  function getBucketTypes() public view returns(string[] memory) {\n    return bucketTypes;\n  }\n\n  function getBucketInfo(address _address, string memory _bucket) public view returns(\n    string memory firstName,\n    string memory lastName,\n    bool enabled,\n    uint balance,\n    bool locked\n  ) {\n    firstName = accounts[_address].firstName;\n    lastName = accounts[_address].lastName;\n    enabled = accounts[_address].enabled;\n    balance = buckets[_address][_bucket].balance;\n    locked = buckets[_address][_bucket].locked;\n\n    return (\n      firstName,\n      lastName,\n      enabled,\n      balance,\n      locked\n    );\n  }\n\n  function getBenefitors() public view returns(\n    address benefitor1,\n    address benefitor2,\n    address benefitor3,\n    uint len) {\n    len = benefitors.length;\n    if (benefitors.length > 0) benefitor1 = benefitors[0];\n    if (benefitors.length > 1) benefitor2 = benefitors[1];\n    if (benefitors.length > 2) benefitor3 = benefitors[2];\n    return (\n      benefitor1,\n      benefitor2,\n      benefitor3,\n      len\n    );\n  }\n\n  function getAdmins() public view returns(\n    address admin1,\n    address admin2,\n    address admin3,\n    uint len) {\n    len = admins.length;\n    if (admins.length > 0) admin1 = admins[0];\n    if (admins.length > 1) admin2 = admins[1];\n    if (admins.length > 2) admin3 = admins[2];\n\n    return (\n      admin1,\n      admin2,\n      admin3,\n      len\n    );\n  }\n\n  function getAdminInfo(address _address) public view returns(\n    string memory firstName,\n    string memory lastName,\n    bool enabled\n  ) {\n    firstName = accounts[_address].firstName;\n    lastName = accounts[_address].lastName;\n    enabled = accounts[_address].enabled;\n\n    return (\n      firstName,\n      lastName,\n      enabled\n    );\n  }\n}\n",
  "sourcePath": "/Users/adilmezghouti/development/consensys-academy/blockchain-developer-bootcamp-final-project/contracts/FamilyTrust.sol",
  "compiler": {
    "name": "solc",
    "version": "0.8.10+commit.fc410830.Emscripten.clang"
  },
  "schemaVersion": "3.4.3",
  "updatedAt": "2021-11-30T13:55:47.561Z",
  "devdoc": {
    "author": "Adil Mezghouti",
    "kind": "dev",
    "methods": {
      "addFunds(address,string)": {
        "params": {
          "_benefitor": "the address of the person who will be the recipient of the deposited funds",
          "_bucket": "the name of the bucket in which the funds will be deposited"
        }
      },
      "owner()": {
        "details": "Returns the address of the current owner."
      },
      "releaseFunds(address,string)": {
        "params": {
          "_fromBucket": "the bucket to which the funds are associated",
          "_to": "the address receiving the funds"
        }
      },
      "renounceOwnership()": {
        "details": "Leaves the contract without owner. It will not be possible to call `onlyOwner` functions anymore. Can only be called by the current owner. NOTE: Renouncing ownership will leave the contract without an owner, thereby removing any functionality that is only available to the owner."
      },
      "transferOwnership(address)": {
        "details": "Transfers ownership of the contract to a new account (`newOwner`). Can only be called by the current owner."
      }
    },
    "title": "Allows families to deposit, lock, unlock, and release funds for the benefits of their children.",
    "version": 1
  },
  "userdoc": {
    "kind": "user",
    "methods": {
      "addFunds(address,string)": {
        "notice": "Adds funds to the smart contract and associate them to a specific bucketNote that the funds will be assigned logically through buckets and will not be effectively owned by the benefitor until the admin/owner releases the funds to her"
      },
      "releaseFunds(address,string)": {
        "notice": "Moves the amount associated with a specific bucket to the provided address"
      }
    },
    "version": 1
  }
}