{
  "contractName": "FamilyTrust",
  "abi": [
    {
      "inputs": [],
      "stateMutability": "nonpayable",
      "type": "constructor"
    },
    {
      "anonymous": false,
      "inputs": [
        {
          "indexed": false,
          "internalType": "address",
          "name": "sender",
          "type": "address"
        },
        {
          "indexed": false,
          "internalType": "address",
          "name": "admin",
          "type": "address"
        }
      ],
      "name": "LogAdminAdded",
      "type": "event"
    },
    {
      "anonymous": false,
      "inputs": [
        {
          "indexed": false,
          "internalType": "address",
          "name": "sender",
          "type": "address"
        },
        {
          "indexed": false,
          "internalType": "address",
          "name": "admin",
          "type": "address"
        }
      ],
      "name": "LogAdminRemoved",
      "type": "event"
    },
    {
      "anonymous": false,
      "inputs": [
        {
          "indexed": false,
          "internalType": "address",
          "name": "sender",
          "type": "address"
        },
        {
          "indexed": false,
          "internalType": "address",
          "name": "child",
          "type": "address"
        }
      ],
      "name": "LogChildAdded",
      "type": "event"
    },
    {
      "anonymous": false,
      "inputs": [
        {
          "indexed": false,
          "internalType": "address",
          "name": "sender",
          "type": "address"
        },
        {
          "indexed": false,
          "internalType": "address",
          "name": "child",
          "type": "address"
        }
      ],
      "name": "LogChildRemoved",
      "type": "event"
    },
    {
      "anonymous": false,
      "inputs": [
        {
          "indexed": false,
          "internalType": "address",
          "name": "sender",
          "type": "address"
        },
        {
          "indexed": false,
          "internalType": "address",
          "name": "receiver",
          "type": "address"
        },
        {
          "indexed": false,
          "internalType": "string",
          "name": "bucket",
          "type": "string"
        },
        {
          "indexed": false,
          "internalType": "uint256",
          "name": "newBalance",
          "type": "uint256"
        }
      ],
      "name": "LogFunded",
      "type": "event"
    },
    {
      "anonymous": false,
      "inputs": [
        {
          "indexed": false,
          "internalType": "address",
          "name": "to",
          "type": "address"
        },
        {
          "indexed": false,
          "internalType": "string",
          "name": "bucket",
          "type": "string"
        },
        {
          "indexed": false,
          "internalType": "uint256",
          "name": "amount",
          "type": "uint256"
        }
      ],
      "name": "LogFundsReleased",
      "type": "event"
    },
    {
      "anonymous": false,
      "inputs": [
        {
          "indexed": false,
          "internalType": "address",
          "name": "_address",
          "type": "address"
        },
        {
          "indexed": false,
          "internalType": "string",
          "name": "bucket",
          "type": "string"
        }
      ],
      "name": "LogLocked",
      "type": "event"
    },
    {
      "anonymous": false,
      "inputs": [
        {
          "indexed": false,
          "internalType": "address",
          "name": "sender",
          "type": "address"
        },
        {
          "indexed": false,
          "internalType": "string",
          "name": "bucket",
          "type": "string"
        }
      ],
      "name": "LogUnfunded",
      "type": "event"
    },
    {
      "anonymous": false,
      "inputs": [
        {
          "indexed": false,
          "internalType": "address",
          "name": "_address",
          "type": "address"
        },
        {
          "indexed": false,
          "internalType": "string",
          "name": "bucket",
          "type": "string"
        }
      ],
      "name": "LogUnlocked",
      "type": "event"
    },
    {
      "anonymous": false,
      "inputs": [
        {
          "indexed": true,
          "internalType": "address",
          "name": "previousOwner",
          "type": "address"
        },
        {
          "indexed": true,
          "internalType": "address",
          "name": "newOwner",
          "type": "address"
        }
      ],
      "name": "OwnershipTransferred",
      "type": "event"
    },
    {
      "inputs": [
        {
          "internalType": "uint256",
          "name": "",
          "type": "uint256"
        }
      ],
      "name": "admins",
      "outputs": [
        {
          "internalType": "address",
          "name": "",
          "type": "address"
        }
      ],
      "stateMutability": "view",
      "type": "function",
      "constant": true
    },
    {
      "inputs": [
        {
          "internalType": "uint256",
          "name": "",
          "type": "uint256"
        }
      ],
      "name": "benefitors",
      "outputs": [
        {
          "internalType": "address",
          "name": "",
          "type": "address"
        }
      ],
      "stateMutability": "view",
      "type": "function",
      "constant": true
    },
    {
      "inputs": [],
      "name": "owner",
      "outputs": [
        {
          "internalType": "address",
          "name": "",
          "type": "address"
        }
      ],
      "stateMutability": "view",
      "type": "function",
      "constant": true
    },
    {
      "inputs": [],
      "name": "renounceOwnership",
      "outputs": [],
      "stateMutability": "nonpayable",
      "type": "function"
    },
    {
      "inputs": [
        {
          "internalType": "address",
          "name": "newOwner",
          "type": "address"
        }
      ],
      "name": "transferOwnership",
      "outputs": [],
      "stateMutability": "nonpayable",
      "type": "function"
    },
    {
      "inputs": [
        {
          "internalType": "address",
          "name": "_benefitor",
          "type": "address"
        },
        {
          "internalType": "string",
          "name": "_bucket",
          "type": "string"
        }
      ],
      "name": "addFunds",
      "outputs": [],
      "stateMutability": "payable",
      "type": "function",
      "payable": true
    },
    {
      "inputs": [
        {
          "internalType": "address payable",
          "name": "_to",
          "type": "address"
        },
        {
          "internalType": "string",
          "name": "_fromBucket",
          "type": "string"
        }
      ],
      "name": "releaseFunds",
      "outputs": [],
      "stateMutability": "nonpayable",
      "type": "function"
    },
    {
      "inputs": [
        {
          "internalType": "string",
          "name": "_bucket",
          "type": "string"
        },
        {
          "internalType": "address",
          "name": "_benefitor",
          "type": "address"
        }
      ],
      "name": "lockFunds",
      "outputs": [],
      "stateMutability": "nonpayable",
      "type": "function"
    },
    {
      "inputs": [
        {
          "internalType": "string",
          "name": "_bucket",
          "type": "string"
        },
        {
          "internalType": "address",
          "name": "_benefitor",
          "type": "address"
        }
      ],
      "name": "unlockFunds",
      "outputs": [],
      "stateMutability": "nonpayable",
      "type": "function"
    },
    {
      "inputs": [
        {
          "internalType": "address",
          "name": "_admin",
          "type": "address"
        },
        {
          "internalType": "string",
          "name": "_firstName",
          "type": "string"
        },
        {
          "internalType": "string",
          "name": "_lastName",
          "type": "string"
        }
      ],
      "name": "addAdmin",
      "outputs": [],
      "stateMutability": "nonpayable",
      "type": "function"
    },
    {
      "inputs": [
        {
          "internalType": "address",
          "name": "_admin",
          "type": "address"
        }
      ],
      "name": "removeAdmin",
      "outputs": [],
      "stateMutability": "nonpayable",
      "type": "function"
    },
    {
      "inputs": [
        {
          "internalType": "address",
          "name": "_benefitor",
          "type": "address"
        },
        {
          "internalType": "string",
          "name": "_firstName",
          "type": "string"
        },
        {
          "internalType": "string",
          "name": "_lastName",
          "type": "string"
        }
      ],
      "name": "addBenefitor",
      "outputs": [
        {
          "internalType": "bool",
          "name": "",
          "type": "bool"
        }
      ],
      "stateMutability": "nonpayable",
      "type": "function"
    },
    {
      "inputs": [
        {
          "internalType": "address",
          "name": "_benefitor",
          "type": "address"
        }
      ],
      "name": "removeBenefitor",
      "outputs": [],
      "stateMutability": "nonpayable",
      "type": "function"
    },
    {
      "inputs": [
        {
          "internalType": "address",
          "name": "_address",
          "type": "address"
        },
        {
          "internalType": "bool",
          "name": "hasAccess",
          "type": "bool"
        }
      ],
      "name": "toggleAccountAccess",
      "outputs": [],
      "stateMutability": "nonpayable",
      "type": "function"
    },
    {
      "inputs": [
        {
          "internalType": "address",
          "name": "_address",
          "type": "address"
        }
      ],
      "name": "getAccountInfo",
      "outputs": [
        {
          "internalType": "string",
          "name": "firstName",
          "type": "string"
        },
        {
          "internalType": "string",
          "name": "lastName",
          "type": "string"
        },
        {
          "internalType": "bool",
          "name": "isAdmin",
          "type": "bool"
        },
        {
          "internalType": "bool",
          "name": "enabled",
          "type": "bool"
        }
      ],
      "stateMutability": "view",
      "type": "function",
      "constant": true
    },
    {
      "inputs": [],
      "name": "getBucketTypes",
      "outputs": [
        {
          "internalType": "string[]",
          "name": "",
          "type": "string[]"
        }
      ],
      "stateMutability": "view",
      "type": "function",
      "constant": true
    },
    {
      "inputs": [
        {
          "internalType": "address",
          "name": "_address",
          "type": "address"
        },
        {
          "internalType": "string",
          "name": "_bucket",
          "type": "string"
        }
      ],
      "name": "getBucketInfo",
      "outputs": [
        {
          "internalType": "string",
          "name": "firstName",
          "type": "string"
        },
        {
          "internalType": "string",
          "name": "lastName",
          "type": "string"
        },
        {
          "internalType": "bool",
          "name": "enabled",
          "type": "bool"
        },
        {
          "internalType": "uint256",
          "name": "balance",
          "type": "uint256"
        },
        {
          "internalType": "bool",
          "name": "locked",
          "type": "bool"
        }
      ],
      "stateMutability": "view",
      "type": "function",
      "constant": true
    },
    {
      "inputs": [],
      "name": "getBenefitors",
      "outputs": [
        {
          "internalType": "address",
          "name": "benefitor1",
          "type": "address"
        },
        {
          "internalType": "address",
          "name": "benefitor2",
          "type": "address"
        },
        {
          "internalType": "address",
          "name": "benefitor3",
          "type": "address"
        },
        {
          "internalType": "uint256",
          "name": "len",
          "type": "uint256"
        }
      ],
      "stateMutability": "view",
      "type": "function",
      "constant": true
    },
    {
      "inputs": [],
      "name": "getAdmins",
      "outputs": [
        {
          "internalType": "address",
          "name": "admin1",
          "type": "address"
        },
        {
          "internalType": "address",
          "name": "admin2",
          "type": "address"
        },
        {
          "internalType": "address",
          "name": "admin3",
          "type": "address"
        },
        {
          "internalType": "uint256",
          "name": "len",
          "type": "uint256"
        }
      ],
      "stateMutability": "view",
      "type": "function",
      "constant": true
    },
    {
      "inputs": [
        {
          "internalType": "address",
          "name": "_address",
          "type": "address"
        }
      ],
      "name": "getAdminInfo",
      "outputs": [
        {
          "internalType": "string",
          "name": "firstName",
          "type": "string"
        },
        {
          "internalType": "string",
          "name": "lastName",
          "type": "string"
        },
        {
          "internalType": "bool",
          "name": "enabled",
          "type": "bool"
        }
      ],
      "stateMutability": "view",
      "type": "function",
      "constant": true
    }
  ],
  "bytecode": "0x60806040523480156200001157600080fd5b506200003262000026620001d860201b60201c565b620001e060201b60201c565b60018081905550600067ffffffffffffffff811115620000575762000056620004b8565b5b604051908082528060200260200182016040528015620000865781602001602082028036833780820191505090505b50600390805190602001906200009e929190620002a4565b50600067ffffffffffffffff811115620000bd57620000bc620004b8565b5b604051908082528060200260200182016040528015620000ec5781602001602082028036833780820191505090505b506002908051906020019062000104929190620002a4565b5060405180606001604052806040518060400160405280600a81526020017f554e49564552534954590000000000000000000000000000000000000000000081525081526020016040518060400160405280600a81526020017f414c4c4f57414e4345530000000000000000000000000000000000000000000081525081526020016040518060400160405280600b81526020017f494e4845524954414e43450000000000000000000000000000000000000000008152508152506004906003620001d192919062000333565b506200054c565b600033905090565b60008060009054906101000a900473ffffffffffffffffffffffffffffffffffffffff169050816000806101000a81548173ffffffffffffffffffffffffffffffffffffffff021916908373ffffffffffffffffffffffffffffffffffffffff1602179055508173ffffffffffffffffffffffffffffffffffffffff168173ffffffffffffffffffffffffffffffffffffffff167f8be0079c531659141344cd1fd0a4f28419497f9722a3daafe3b4186f6b6457e060405160405180910390a35050565b82805482825590600052602060002090810192821562000320579160200282015b828111156200031f5782518260006101000a81548173ffffffffffffffffffffffffffffffffffffffff021916908373ffffffffffffffffffffffffffffffffffffffff16021790555091602001919060010190620002c5565b5b5090506200032f91906200039a565b5090565b82805482825590600052602060002090810192821562000387579160200282015b828111156200038657825182908051906020019062000375929190620003b9565b509160200191906001019062000354565b5b5090506200039691906200044a565b5090565b5b80821115620003b55760008160009055506001016200039b565b5090565b828054620003c79062000516565b90600052602060002090601f016020900481019282620003eb576000855562000437565b82601f106200040657805160ff191683800117855562000437565b8280016001018555821562000437579182015b828111156200043657825182559160200191906001019062000419565b5b5090506200044691906200039a565b5090565b5b808211156200046e576000818162000464919062000472565b506001016200044b565b5090565b508054620004809062000516565b6000825580601f10620004945750620004b5565b601f016020900490600052602060002090810190620004b491906200039a565b5b50565b7f4e487b7100000000000000000000000000000000000000000000000000000000600052604160045260246000fd5b7f4e487b7100000000000000000000000000000000000000000000000000000000600052602260045260246000fd5b600060028204905060018216806200052f57607f821691505b60208210811415620005465762000545620004e7565b5b50919050565b61303d806200055c6000396000f3fe60806040526004361061011f5760003560e01c80638da5cb5b116100a0578063c6d8046b11610064578063c6d8046b146103e3578063c76ce8161461040c578063cc64318314610435578063e854cdca14610476578063f2fde38b1461049f5761011f565b80638da5cb5b1461030857806395d97e2214610333578063a516259c1461034f578063b246c6dd1461038c578063b5000acf146103ba5761011f565b806353f24d0b116100e757806353f24d0b1461021e5780635babf5ef14610249578063715018a614610272578063722b0376146102895780637b510fe8146102c85761011f565b8063120662be1461012457806314bfd6d0146101615780631785f53c1461019e5780631b9a67a7146101c757806331ae450b146101f0575b600080fd5b34801561013057600080fd5b5061014b60048036038101906101469190612296565b6104c8565b6040516101589190612304565b60405180910390f35b34801561016d57600080fd5b5061018860048036038101906101839190612296565b610507565b6040516101959190612304565b60405180910390f35b3480156101aa57600080fd5b506101c560048036038101906101c0919061234b565b610546565b005b3480156101d357600080fd5b506101ee60048036038101906101e991906123b0565b610620565b005b3480156101fc57600080fd5b506102056106fa565b60405161021594939291906123ff565b60405180910390f35b34801561022a57600080fd5b506102336107ff565b604051610240919061259f565b60405180910390f35b34801561025557600080fd5b50610270600480360381019061026b91906126f6565b6108d8565b005b34801561027e57600080fd5b50610287610ae8565b005b34801561029557600080fd5b506102b060048036038101906102ab919061234b565b610b70565b6040516102bf939291906127da565b60405180910390f35b3480156102d457600080fd5b506102ef60048036038101906102ea919061234b565b610d68565b6040516102ff949392919061281f565b60405180910390f35b34801561031457600080fd5b5061031d610fda565b60405161032a9190612304565b60405180910390f35b61034d60048036038101906103489190612872565b611003565b005b34801561035b57600080fd5b50610376600480360381019061037191906126f6565b6111d3565b60405161038391906128ce565b60405180910390f35b34801561039857600080fd5b506103a1611423565b6040516103b194939291906123ff565b60405180910390f35b3480156103c657600080fd5b506103e160048036038101906103dc91906128e9565b61152a565b005b3480156103ef57600080fd5b5061040a60048036038101906104059190612983565b61165b565b005b34801561041857600080fd5b50610433600480360381019061042e919061234b565b611a50565b005b34801561044157600080fd5b5061045c60048036038101906104579190612872565b611ba7565b60405161046d9594939291906129df565b60405180910390f35b34801561048257600080fd5b5061049d600480360381019061049891906128e9565b611e74565b005b3480156104ab57600080fd5b506104c660048036038101906104c1919061234b565b611fa5565b005b600381815481106104d857600080fd5b906000526020600020016000915054906101000a900473ffffffffffffffffffffffffffffffffffffffff1681565b6002818154811061051757600080fd5b906000526020600020016000915054906101000a900473ffffffffffffffffffffffffffffffffffffffff1681565b61054e61209d565b73ffffffffffffffffffffffffffffffffffffffff1661056c610fda565b73ffffffffffffffffffffffffffffffffffffffff16146105c2576040517f08c379a00000000000000000000000000000000000000000000000000000000081526004016105b990612a8c565b60405180910390fd5b6000600560008373ffffffffffffffffffffffffffffffffffffffff1673ffffffffffffffffffffffffffffffffffffffff16815260200190815260200160002060020160016101000a81548160ff02191690831515021790555050565b61062861209d565b73ffffffffffffffffffffffffffffffffffffffff16610646610fda565b73ffffffffffffffffffffffffffffffffffffffff161461069c576040517f08c379a000000000000000000000000000000000000000000000000000000000815260040161069390612a8c565b60405180910390fd5b80600560008473ffffffffffffffffffffffffffffffffffffffff1673ffffffffffffffffffffffffffffffffffffffff16815260200190815260200160002060020160016101000a81548160ff0219169083151502179055505050565b60008060008060028054905090506000600280549050111561075957600260008154811061072b5761072a612aac565b5b9060005260206000200160009054906101000a900473ffffffffffffffffffffffffffffffffffffffff1693505b600160028054905011156107aa57600260018154811061077c5761077b612aac565b5b9060005260206000200160009054906101000a900473ffffffffffffffffffffffffffffffffffffffff1692505b6002808054905011156107f957600280815481106107cb576107ca612aac565b5b9060005260206000200160009054906101000a900473ffffffffffffffffffffffffffffffffffffffff1691505b90919293565b60606004805480602002602001604051908101604052809291908181526020016000905b828210156108cf57838290600052602060002001805461084290612b0a565b80601f016020809104026020016040519081016040528092919081815260200182805461086e90612b0a565b80156108bb5780601f10610890576101008083540402835291602001916108bb565b820191906000526020600020905b81548152906001019060200180831161089e57829003601f168201915b505050505081526020019060010190610823565b50505050905090565b6108e061209d565b73ffffffffffffffffffffffffffffffffffffffff166108fe610fda565b73ffffffffffffffffffffffffffffffffffffffff1614610954576040517f08c379a000000000000000000000000000000000000000000000000000000000815260040161094b90612a8c565b60405180910390fd5b6002839080600181540180825580915050600190039060005260206000200160009091909190916101000a81548173ffffffffffffffffffffffffffffffffffffffff021916908373ffffffffffffffffffffffffffffffffffffffff1602179055506040518060a00160405280838152602001828152602001600060018111156109e2576109e1612b3c565b5b815260200160011515815260200160011515815250600560008573ffffffffffffffffffffffffffffffffffffffff1673ffffffffffffffffffffffffffffffffffffffff1681526020019081526020016000206000820151816000019080519060200190610a52929190612169565b506020820151816001019080519060200190610a6f929190612169565b5060408201518160020160006101000a81548160ff02191690836001811115610a9b57610a9a612b3c565b5b021790555060608201518160020160016101000a81548160ff02191690831515021790555060808201518160020160026101000a81548160ff021916908315150217905550905050505050565b610af061209d565b73ffffffffffffffffffffffffffffffffffffffff16610b0e610fda565b73ffffffffffffffffffffffffffffffffffffffff1614610b64576040517f08c379a0000000000000000000000000000000000000000000000000000000008152600401610b5b90612a8c565b60405180910390fd5b610b6e60006120a5565b565b6060806000600560008573ffffffffffffffffffffffffffffffffffffffff1673ffffffffffffffffffffffffffffffffffffffff1681526020019081526020016000206000018054610bc290612b0a565b80601f0160208091040260200160405190810160405280929190818152602001828054610bee90612b0a565b8015610c3b5780601f10610c1057610100808354040283529160200191610c3b565b820191906000526020600020905b815481529060010190602001808311610c1e57829003601f168201915b50505050509250600560008573ffffffffffffffffffffffffffffffffffffffff1673ffffffffffffffffffffffffffffffffffffffff1681526020019081526020016000206001018054610c8f90612b0a565b80601f0160208091040260200160405190810160405280929190818152602001828054610cbb90612b0a565b8015610d085780601f10610cdd57610100808354040283529160200191610d08565b820191906000526020600020905b815481529060010190602001808311610ceb57829003601f168201915b50505050509150600560008573ffffffffffffffffffffffffffffffffffffffff1673ffffffffffffffffffffffffffffffffffffffff16815260200190815260200160002060020160019054906101000a900460ff1690509193909250565b606080600080600560008673ffffffffffffffffffffffffffffffffffffffff1673ffffffffffffffffffffffffffffffffffffffff1681526020019081526020016000206000018054610dbb90612b0a565b80601f0160208091040260200160405190810160405280929190818152602001828054610de790612b0a565b8015610e345780601f10610e0957610100808354040283529160200191610e34565b820191906000526020600020905b815481529060010190602001808311610e1757829003601f168201915b50505050509350600560008673ffffffffffffffffffffffffffffffffffffffff1673ffffffffffffffffffffffffffffffffffffffff1681526020019081526020016000206001018054610e8890612b0a565b80601f0160208091040260200160405190810160405280929190818152602001828054610eb490612b0a565b8015610f015780601f10610ed657610100808354040283529160200191610f01565b820191906000526020600020905b815481529060010190602001808311610ee457829003601f168201915b5050505050925060006001811115610f1c57610f1b612b3c565b5b600560008773ffffffffffffffffffffffffffffffffffffffff1673ffffffffffffffffffffffffffffffffffffffff16815260200190815260200160002060020160009054906101000a900460ff166001811115610f7e57610f7d612b3c565b5b149150600560008673ffffffffffffffffffffffffffffffffffffffff1673ffffffffffffffffffffffffffffffffffffffff16815260200190815260200160002060020160019054906101000a900460ff1690509193509193565b60008060009054906101000a900473ffffffffffffffffffffffffffffffffffffffff16905090565b81600560008273ffffffffffffffffffffffffffffffffffffffff1673ffffffffffffffffffffffffffffffffffffffff16815260200190815260200160002060020160019054906101000a900460ff16611093576040517f08c379a000000000000000000000000000000000000000000000000000000000815260040161108a90612bb7565b60405180910390fd5b604051806040016040528034815260200160001515815250600660008573ffffffffffffffffffffffffffffffffffffffff1673ffffffffffffffffffffffffffffffffffffffff168152602001908152602001600020836040516110f89190612c13565b90815260200160405180910390206000820151816000015560208201518160010160006101000a81548160ff0219169083151502179055509050507fb35695d61d4d082cc9167cfc545e04075885362274c7ab44e3603f1cd77c254a338484600660008873ffffffffffffffffffffffffffffffffffffffff1673ffffffffffffffffffffffffffffffffffffffff168152602001908152602001600020866040516111a49190612c13565b9081526020016040518091039020600001546040516111c69493929190612c2a565b60405180910390a1505050565b60008060018111156111e8576111e7612b3c565b5b600560003373ffffffffffffffffffffffffffffffffffffffff1673ffffffffffffffffffffffffffffffffffffffff16815260200190815260200160002060020160009054906101000a900460ff16600181111561124a57611249612b3c565b5b1461128a576040517f08c379a000000000000000000000000000000000000000000000000000000000815260040161128190612cc2565b60405180910390fd5b6003849080600181540180825580915050600190039060005260206000200160009091909190916101000a81548173ffffffffffffffffffffffffffffffffffffffff021916908373ffffffffffffffffffffffffffffffffffffffff1602179055506040518060a0016040528084815260200183815260200160018081111561131757611316612b3c565b5b815260200160011515815260200160011515815250600560008673ffffffffffffffffffffffffffffffffffffffff1673ffffffffffffffffffffffffffffffffffffffff1681526020019081526020016000206000820151816000019080519060200190611387929190612169565b5060208201518160010190805190602001906113a4929190612169565b5060408201518160020160006101000a81548160ff021916908360018111156113d0576113cf612b3c565b5b021790555060608201518160020160016101000a81548160ff02191690831515021790555060808201518160020160026101000a81548160ff021916908315150217905550905050600190509392505050565b60008060008060038054905090506000600380549050111561148257600360008154811061145457611453612aac565b5b9060005260206000200160009054906101000a900473ffffffffffffffffffffffffffffffffffffffff1693505b600160038054905011156114d35760036001815481106114a5576114a4612aac565b5b9060005260206000200160009054906101000a900473ffffffffffffffffffffffffffffffffffffffff1692505b600260038054905011156115245760036002815481106114f6576114f5612aac565b5b9060005260206000200160009054906101000a900473ffffffffffffffffffffffffffffffffffffffff1691505b90919293565b6000600181111561153e5761153d612b3c565b5b600560003373ffffffffffffffffffffffffffffffffffffffff1673ffffffffffffffffffffffffffffffffffffffff16815260200190815260200160002060020160009054906101000a900460ff1660018111156115a05761159f612b3c565b5b146115e0576040517f08c379a00000000000000000000000000000000000000000000000000000000081526004016115d790612cc2565b60405180910390fd5b6001600660008373ffffffffffffffffffffffffffffffffffffffff1673ffffffffffffffffffffffffffffffffffffffff1681526020019081526020016000208360405161162f9190612c13565b908152602001604051809103902060010160006101000a81548160ff0219169083151502179055505050565b6000600181111561166f5761166e612b3c565b5b600560003373ffffffffffffffffffffffffffffffffffffffff1673ffffffffffffffffffffffffffffffffffffffff16815260200190815260200160002060020160009054906101000a900460ff1660018111156116d1576116d0612b3c565b5b14611711576040517f08c379a000000000000000000000000000000000000000000000000000000000815260040161170890612cc2565b60405180910390fd5b81600560008273ffffffffffffffffffffffffffffffffffffffff1673ffffffffffffffffffffffffffffffffffffffff16815260200190815260200160002060020160029054906101000a900460ff166117a1576040517f08c379a000000000000000000000000000000000000000000000000000000000815260040161179890612d2e565b60405180910390fd5b82826000600660008473ffffffffffffffffffffffffffffffffffffffff1673ffffffffffffffffffffffffffffffffffffffff168152602001908152602001600020826040516117f29190612c13565b90815260200160405180910390206000015411611844576040517f08c379a000000000000000000000000000000000000000000000000000000000815260040161183b90612d9a565b60405180910390fd5b6002600154141561188a576040517f08c379a000000000000000000000000000000000000000000000000000000000815260040161188190612e06565b60405180910390fd5b60026001819055506000600660008773ffffffffffffffffffffffffffffffffffffffff1673ffffffffffffffffffffffffffffffffffffffff168152602001908152602001600020856040516118e19190612c13565b90815260200160405180910390206000015490506000600660008873ffffffffffffffffffffffffffffffffffffffff1673ffffffffffffffffffffffffffffffffffffffff168152602001908152602001600020866040516119449190612c13565b90815260200160405180910390206000018190555060008673ffffffffffffffffffffffffffffffffffffffff168260405161197f90612e57565b60006040518083038185875af1925050503d80600081146119bc576040519150601f19603f3d011682016040523d82523d6000602084013e6119c1565b606091505b5050905080611a05576040517f08c379a00000000000000000000000000000000000000000000000000000000081526004016119fc90612eb8565b60405180910390fd5b7fa04a52971dad7a35fe69b1a735b8184efbe64ee80a0434568f3e824ee55469ba878784604051611a3893929190612f37565b60405180910390a15050600180819055505050505050565b60006001811115611a6457611a63612b3c565b5b600560003373ffffffffffffffffffffffffffffffffffffffff1673ffffffffffffffffffffffffffffffffffffffff16815260200190815260200160002060020160009054906101000a900460ff166001811115611ac657611ac5612b3c565b5b14611b06576040517f08c379a0000000000000000000000000000000000000000000000000000000008152600401611afd90612cc2565b60405180910390fd5b600560008273ffffffffffffffffffffffffffffffffffffffff1673ffffffffffffffffffffffffffffffffffffffff16815260200190815260200160002060008082016000611b5691906121ef565b600182016000611b6691906121ef565b6002820160006101000a81549060ff02191690556002820160016101000a81549060ff02191690556002820160026101000a81549060ff0219169055505050565b6060806000806000600560008873ffffffffffffffffffffffffffffffffffffffff1673ffffffffffffffffffffffffffffffffffffffff1681526020019081526020016000206000018054611bfc90612b0a565b80601f0160208091040260200160405190810160405280929190818152602001828054611c2890612b0a565b8015611c755780601f10611c4a57610100808354040283529160200191611c75565b820191906000526020600020905b815481529060010190602001808311611c5857829003601f168201915b50505050509450600560008873ffffffffffffffffffffffffffffffffffffffff1673ffffffffffffffffffffffffffffffffffffffff1681526020019081526020016000206001018054611cc990612b0a565b80601f0160208091040260200160405190810160405280929190818152602001828054611cf590612b0a565b8015611d425780601f10611d1757610100808354040283529160200191611d42565b820191906000526020600020905b815481529060010190602001808311611d2557829003601f168201915b50505050509350600560008873ffffffffffffffffffffffffffffffffffffffff1673ffffffffffffffffffffffffffffffffffffffff16815260200190815260200160002060020160019054906101000a900460ff169250600660008873ffffffffffffffffffffffffffffffffffffffff1673ffffffffffffffffffffffffffffffffffffffff16815260200190815260200160002086604051611de89190612c13565b9081526020016040518091039020600001549150600660008873ffffffffffffffffffffffffffffffffffffffff1673ffffffffffffffffffffffffffffffffffffffff16815260200190815260200160002086604051611e499190612c13565b908152602001604051809103902060010160009054906101000a900460ff1690509295509295909350565b60006001811115611e8857611e87612b3c565b5b600560003373ffffffffffffffffffffffffffffffffffffffff1673ffffffffffffffffffffffffffffffffffffffff16815260200190815260200160002060020160009054906101000a900460ff166001811115611eea57611ee9612b3c565b5b14611f2a576040517f08c379a0000000000000000000000000000000000000000000000000000000008152600401611f2190612cc2565b60405180910390fd5b6000600660008373ffffffffffffffffffffffffffffffffffffffff1673ffffffffffffffffffffffffffffffffffffffff16815260200190815260200160002083604051611f799190612c13565b908152602001604051809103902060010160006101000a81548160ff0219169083151502179055505050565b611fad61209d565b73ffffffffffffffffffffffffffffffffffffffff16611fcb610fda565b73ffffffffffffffffffffffffffffffffffffffff1614612021576040517f08c379a000000000000000000000000000000000000000000000000000000000815260040161201890612a8c565b60405180910390fd5b600073ffffffffffffffffffffffffffffffffffffffff168173ffffffffffffffffffffffffffffffffffffffff161415612091576040517f08c379a000000000000000000000000000000000000000000000000000000000815260040161208890612fe7565b60405180910390fd5b61209a816120a5565b50565b600033905090565b60008060009054906101000a900473ffffffffffffffffffffffffffffffffffffffff169050816000806101000a81548173ffffffffffffffffffffffffffffffffffffffff021916908373ffffffffffffffffffffffffffffffffffffffff1602179055508173ffffffffffffffffffffffffffffffffffffffff168173ffffffffffffffffffffffffffffffffffffffff167f8be0079c531659141344cd1fd0a4f28419497f9722a3daafe3b4186f6b6457e060405160405180910390a35050565b82805461217590612b0a565b90600052602060002090601f01602090048101928261219757600085556121de565b82601f106121b057805160ff19168380011785556121de565b828001600101855582156121de579182015b828111156121dd5782518255916020019190600101906121c2565b5b5090506121eb919061222f565b5090565b5080546121fb90612b0a565b6000825580601f1061220d575061222c565b601f01602090049060005260206000209081019061222b919061222f565b5b50565b5b80821115612248576000816000905550600101612230565b5090565b6000604051905090565b600080fd5b600080fd5b6000819050919050565b61227381612260565b811461227e57600080fd5b50565b6000813590506122908161226a565b92915050565b6000602082840312156122ac576122ab612256565b5b60006122ba84828501612281565b91505092915050565b600073ffffffffffffffffffffffffffffffffffffffff82169050919050565b60006122ee826122c3565b9050919050565b6122fe816122e3565b82525050565b600060208201905061231960008301846122f5565b92915050565b612328816122e3565b811461233357600080fd5b50565b6000813590506123458161231f565b92915050565b60006020828403121561236157612360612256565b5b600061236f84828501612336565b91505092915050565b60008115159050919050565b61238d81612378565b811461239857600080fd5b50565b6000813590506123aa81612384565b92915050565b600080604083850312156123c7576123c6612256565b5b60006123d585828601612336565b92505060206123e68582860161239b565b9150509250929050565b6123f981612260565b82525050565b600060808201905061241460008301876122f5565b61242160208301866122f5565b61242e60408301856122f5565b61243b60608301846123f0565b95945050505050565b600081519050919050565b600082825260208201905092915050565b6000819050602082019050919050565b600081519050919050565b600082825260208201905092915050565b60005b838110156124aa57808201518184015260208101905061248f565b838111156124b9576000848401525b50505050565b6000601f19601f8301169050919050565b60006124db82612470565b6124e5818561247b565b93506124f581856020860161248c565b6124fe816124bf565b840191505092915050565b600061251583836124d0565b905092915050565b6000602082019050919050565b600061253582612444565b61253f818561244f565b93508360208202850161255185612460565b8060005b8581101561258d578484038952815161256e8582612509565b94506125798361251d565b925060208a01995050600181019050612555565b50829750879550505050505092915050565b600060208201905081810360008301526125b9818461252a565b905092915050565b600080fd5b600080fd5b7f4e487b7100000000000000000000000000000000000000000000000000000000600052604160045260246000fd5b612603826124bf565b810181811067ffffffffffffffff82111715612622576126216125cb565b5b80604052505050565b600061263561224c565b905061264182826125fa565b919050565b600067ffffffffffffffff821115612661576126606125cb565b5b61266a826124bf565b9050602081019050919050565b82818337600083830152505050565b600061269961269484612646565b61262b565b9050828152602081018484840111156126b5576126b46125c6565b5b6126c0848285612677565b509392505050565b600082601f8301126126dd576126dc6125c1565b5b81356126ed848260208601612686565b91505092915050565b60008060006060848603121561270f5761270e612256565b5b600061271d86828701612336565b935050602084013567ffffffffffffffff81111561273e5761273d61225b565b5b61274a868287016126c8565b925050604084013567ffffffffffffffff81111561276b5761276a61225b565b5b612777868287016126c8565b9150509250925092565b600082825260208201905092915050565b600061279d82612470565b6127a78185612781565b93506127b781856020860161248c565b6127c0816124bf565b840191505092915050565b6127d481612378565b82525050565b600060608201905081810360008301526127f48186612792565b905081810360208301526128088185612792565b905061281760408301846127cb565b949350505050565b600060808201905081810360008301526128398187612792565b9050818103602083015261284d8186612792565b905061285c60408301856127cb565b61286960608301846127cb565b95945050505050565b6000806040838503121561288957612888612256565b5b600061289785828601612336565b925050602083013567ffffffffffffffff8111156128b8576128b761225b565b5b6128c4858286016126c8565b9150509250929050565b60006020820190506128e360008301846127cb565b92915050565b60008060408385031215612900576128ff612256565b5b600083013567ffffffffffffffff81111561291e5761291d61225b565b5b61292a858286016126c8565b925050602061293b85828601612336565b9150509250929050565b6000612950826122c3565b9050919050565b61296081612945565b811461296b57600080fd5b50565b60008135905061297d81612957565b92915050565b6000806040838503121561299a57612999612256565b5b60006129a88582860161296e565b925050602083013567ffffffffffffffff8111156129c9576129c861225b565b5b6129d5858286016126c8565b9150509250929050565b600060a08201905081810360008301526129f98188612792565b90508181036020830152612a0d8187612792565b9050612a1c60408301866127cb565b612a2960608301856123f0565b612a3660808301846127cb565b9695505050505050565b7f4f776e61626c653a2063616c6c6572206973206e6f7420746865206f776e6572600082015250565b6000612a76602083612781565b9150612a8182612a40565b602082019050919050565b60006020820190508181036000830152612aa581612a69565b9050919050565b7f4e487b7100000000000000000000000000000000000000000000000000000000600052603260045260246000fd5b7f4e487b7100000000000000000000000000000000000000000000000000000000600052602260045260246000fd5b60006002820490506001821680612b2257607f821691505b60208210811415612b3657612b35612adb565b5b50919050565b7f4e487b7100000000000000000000000000000000000000000000000000000000600052602160045260246000fd5b7f4163636f756e742069732064697361626c656400000000000000000000000000600082015250565b6000612ba1601383612781565b9150612bac82612b6b565b602082019050919050565b60006020820190508181036000830152612bd081612b94565b9050919050565b600081905092915050565b6000612bed82612470565b612bf78185612bd7565b9350612c0781856020860161248c565b80840191505092915050565b6000612c1f8284612be2565b915081905092915050565b6000608082019050612c3f60008301876122f5565b612c4c60208301866122f5565b8181036040830152612c5e8185612792565b9050612c6d60608301846123f0565b95945050505050565b7f4f6e6c792061646d696e732063616e2063616c6c207468697300000000000000600082015250565b6000612cac601983612781565b9150612cb782612c76565b602082019050919050565b60006020820190508181036000830152612cdb81612c9f565b9050919050565b7f4163636f756e74206e6f7420666f756e64000000000000000000000000000000600082015250565b6000612d18601183612781565b9150612d2382612ce2565b602082019050919050565b60006020820190508181036000830152612d4781612d0b565b9050919050565b7f42616c616e6365206973206e6f7420656e6f7567680000000000000000000000600082015250565b6000612d84601583612781565b9150612d8f82612d4e565b602082019050919050565b60006020820190508181036000830152612db381612d77565b9050919050565b7f5265656e7472616e637947756172643a207265656e7472616e742063616c6c00600082015250565b6000612df0601f83612781565b9150612dfb82612dba565b602082019050919050565b60006020820190508181036000830152612e1f81612de3565b9050919050565b600081905092915050565b50565b6000612e41600083612e26565b9150612e4c82612e31565b600082019050919050565b6000612e6282612e34565b9150819050919050565b7f5472616e73666572206661696c65640000000000000000000000000000000000600082015250565b6000612ea2600f83612781565b9150612ead82612e6c565b602082019050919050565b60006020820190508181036000830152612ed181612e95565b9050919050565b6000819050919050565b6000612efd612ef8612ef3846122c3565b612ed8565b6122c3565b9050919050565b6000612f0f82612ee2565b9050919050565b6000612f2182612f04565b9050919050565b612f3181612f16565b82525050565b6000606082019050612f4c6000830186612f28565b8181036020830152612f5e8185612792565b9050612f6d60408301846123f0565b949350505050565b7f4f776e61626c653a206e6577206f776e657220697320746865207a65726f206160008201527f6464726573730000000000000000000000000000000000000000000000000000602082015250565b6000612fd1602683612781565b9150612fdc82612f75565b604082019050919050565b6000602082019050818103600083015261300081612fc4565b905091905056fea2646970667358221220d9f60544e09b9a1bdf03472cf9aa11f6b0d073828d628360ccd15b8cc2f9924264736f6c634300080a0033",
  "immutableReferences": {},
  "source": "// SPDX-License-Identifier: MIT\npragma solidity ^0.8.10;\npragma experimental ABIEncoderV2;\n\nimport \"@openzeppelin/contracts/access/Ownable.sol\";\nimport \"@openzeppelin/contracts/security/ReentrancyGuard.sol\";\n\n///@title Allows families to deposit, lock, unlock, and release funds for the benefits of their children.\n///@author Adil Mezghouti\ncontract FamilyTrust is Ownable, ReentrancyGuard {\n  address[] public admins;\n  address[] public benefitors;\n  enum Role {\n    ADMIN,\n    USER\n  }\n  string[] bucketTypes;    \n  struct Bucket {\n    uint balance;\n    bool locked;\n  }\n  struct Account {\n    string firstName;\n    string lastName;\n    Role role;\n    bool enabled;\n    bool exists;\n  }\n  mapping(address => Account) accounts;\n  mapping(address => mapping(string => Bucket)) buckets;\n\n  constructor() {\n    benefitors = new address[](0);\n    admins = new address[](0);\n    bucketTypes = [\n      'UNIVERSITY',\n      'ALLOWANCES',\n      'INHERITANCE'\n    ];\n  }\n\n  event LogLocked(address _address, string bucket);\n  event LogUnlocked(address _address, string bucket);\n  event LogFunded(address sender, address receiver, string bucket, uint newBalance);\n  event LogUnfunded(address sender, string bucket);\n  event LogFundsReleased(address to, string bucket, uint amount);\n  event LogAdminAdded(address sender, address admin);\n  event LogAdminRemoved(address sender, address admin);\n  event LogChildAdded(address sender, address child);\n  event LogChildRemoved(address sender, address child);\n\n  modifier onlyAdmins() {\n    require(accounts[msg.sender].role == Role.ADMIN, \"Only admins can call this\");\n    _;\n  }\n\n  modifier onlyBenefitors() {\n    require(accounts[msg.sender].role == Role.USER, \"Only benefitors can call this\");\n    _;\n  }\n\n  modifier enoughFunds(address _address, string memory _bucket) {\n    require(buckets[_address][_bucket].balance > 0, \"Balance is not enough\");\n    _;\n  }\n\n  modifier accountEnabled(address _address) {\n    require(accounts[_address].enabled, \"Account is disabled\");\n    _;\n  }\n\n  modifier existingAccount(address _address) {\n    require(accounts[_address].exists, 'Account not found');\n    _;\n  }\n\n  ///@notice Adds funds to the smart contract and associate them to a specific bucket\n  ///@param _benefitor the address of the person who will be the recipient of the deposited funds\n  ///@param _bucket the name of the bucket in which the funds will be deposited\n  ///@notice Note that the funds will be assigned logically through buckets and will not be effectively owned by the benefitor until the admin/owner releases the funds to her\n  function addFunds(address _benefitor, string memory _bucket) public payable accountEnabled(_benefitor) {\n    buckets[_benefitor][_bucket] = Bucket({\n      balance: msg.value,\n      locked: false\n    });\n    emit LogFunded(msg.sender, _benefitor, _bucket, buckets[_benefitor][_bucket].balance);\n  }\n\n  ///@notice Moves the amount associated with a specific bucket to the provided address\n  ///@param _to the address receiving the funds\n  ///@param _fromBucket the bucket to which the funds are associated\n  function releaseFunds(address payable _to, string memory _fromBucket) public onlyAdmins existingAccount(_to) enoughFunds(_to, _fromBucket) nonReentrant {\n    uint oldBalance = buckets[_to][_fromBucket].balance;\n    buckets[_to][_fromBucket].balance = 0;\n    (bool success, ) = _to.call{value: oldBalance}(\"\");\n    require(success, \"Transfer failed\");\n    emit LogFundsReleased(_to, _fromBucket, oldBalance);\n  }\n\n  function lockFunds(string memory _bucket, address _benefitor) public onlyAdmins {\n    buckets[_benefitor][_bucket].locked = true;\n  }\n\n  function unlockFunds(string memory _bucket, address _benefitor) public onlyAdmins {\n    buckets[_benefitor][_bucket].locked = false;\n  }\n\n  function addAdmin(address _admin, string memory _firstName, string memory _lastName) public onlyOwner {\n    admins.push(_admin);\n    accounts[_admin] = Account({\n      firstName: _firstName,\n      lastName: _lastName,\n      role: Role.ADMIN,\n      enabled: true,\n      exists: true\n    });\n  }\n\n  function removeAdmin(address _admin) public onlyOwner {\n    accounts[_admin].enabled = false;\n  }\n\n  function addBenefitor(address _benefitor, string memory _firstName, string memory _lastName) public onlyAdmins returns(bool) {\n    benefitors.push(_benefitor);\n    accounts[_benefitor] = Account({\n      firstName: _firstName,\n      lastName: _lastName,\n      role: Role.USER,\n      enabled: true,\n      exists: true\n    });\n\n    return true;\n  }\n\n  function removeBenefitor(address _benefitor) public onlyAdmins {\n    delete accounts[_benefitor];\n  }\n\n  function toggleAccountAccess(address _address, bool hasAccess) public onlyOwner {\n    accounts[_address].enabled = hasAccess;\n  }\n\n  function getAccountInfo(address _address) public view returns(\n    string memory firstName,\n    string memory lastName,\n    bool isAdmin,\n    bool enabled\n    ) {\n    firstName = accounts[_address].firstName;\n    lastName = accounts[_address].lastName;\n    isAdmin = accounts[_address].role == Role.ADMIN;\n    enabled = accounts[_address].enabled;\n\n    return (\n      firstName,\n      lastName,\n      isAdmin,\n      enabled\n    );\n  }\n\n  function getBucketTypes() public view returns(string[] memory) {\n    return bucketTypes;\n  }\n\n  function getBucketInfo(address _address, string memory _bucket) public view returns(\n    string memory firstName,\n    string memory lastName,\n    bool enabled,\n    uint balance,\n    bool locked\n  ) {\n    firstName = accounts[_address].firstName;\n    lastName = accounts[_address].lastName;\n    enabled = accounts[_address].enabled;\n    balance = buckets[_address][_bucket].balance;\n    locked = buckets[_address][_bucket].locked;\n\n    return (\n      firstName,\n      lastName,\n      enabled,\n      balance,\n      locked\n    );\n  }\n\n  function getBenefitors() public view returns(\n    address benefitor1,\n    address benefitor2,\n    address benefitor3,\n    uint len) {\n    len = benefitors.length;\n    if (benefitors.length > 0) benefitor1 = benefitors[0];\n    if (benefitors.length > 1) benefitor2 = benefitors[1];\n    if (benefitors.length > 2) benefitor3 = benefitors[2];\n    return (\n      benefitor1,\n      benefitor2,\n      benefitor3,\n      len\n    );\n  }\n\n  function getAdmins() public view returns(\n    address admin1,\n    address admin2,\n    address admin3,\n    uint len) {\n    len = admins.length;\n    if (admins.length > 0) admin1 = admins[0];\n    if (admins.length > 1) admin2 = admins[1];\n    if (admins.length > 2) admin3 = admins[2];\n\n    return (\n      admin1,\n      admin2,\n      admin3,\n      len\n    );\n  }\n\n  function getAdminInfo(address _address) public view returns(\n    string memory firstName,\n    string memory lastName,\n    bool enabled\n  ) {\n    firstName = accounts[_address].firstName;\n    lastName = accounts[_address].lastName;\n    enabled = accounts[_address].enabled;\n\n    return (\n      firstName,\n      lastName,\n      enabled\n    );\n  }\n}\n",
  "sourcePath": "/Users/adilmezghouti/development/consensys-academy/blockchain-developer-bootcamp-final-project/contracts/FamilyTrust.sol",
  "compiler": {
    "name": "solc",
    "version": "0.8.10+commit.fc410830.Emscripten.clang"
  },
  "schemaVersion": "3.4.3",
  "updatedAt": "2022-01-07T17:16:17.809Z",
  "networkType": "ethereum",
  "devdoc": {
    "author": "Adil Mezghouti",
    "kind": "dev",
    "methods": {
      "addFunds(address,string)": {
        "params": {
          "_benefitor": "the address of the person who will be the recipient of the deposited funds",
          "_bucket": "the name of the bucket in which the funds will be deposited"
        }
      },
      "owner()": {
        "details": "Returns the address of the current owner."
      },
      "releaseFunds(address,string)": {
        "params": {
          "_fromBucket": "the bucket to which the funds are associated",
          "_to": "the address receiving the funds"
        }
      },
      "renounceOwnership()": {
        "details": "Leaves the contract without owner. It will not be possible to call `onlyOwner` functions anymore. Can only be called by the current owner. NOTE: Renouncing ownership will leave the contract without an owner, thereby removing any functionality that is only available to the owner."
      },
      "transferOwnership(address)": {
        "details": "Transfers ownership of the contract to a new account (`newOwner`). Can only be called by the current owner."
      }
    },
    "title": "Allows families to deposit, lock, unlock, and release funds for the benefits of their children.",
    "version": 1
  },
  "userdoc": {
    "kind": "user",
    "methods": {
      "addFunds(address,string)": {
        "notice": "Adds funds to the smart contract and associate them to a specific bucketNote that the funds will be assigned logically through buckets and will not be effectively owned by the benefitor until the admin/owner releases the funds to her"
      },
      "releaseFunds(address,string)": {
        "notice": "Moves the amount associated with a specific bucket to the provided address"
      }
    },
    "version": 1
  }
}