{
  "contractName": "FamilyTrust",
  "abi": [
    {
      "inputs": [],
      "payable": false,
      "stateMutability": "nonpayable",
      "type": "constructor"
    },
    {
      "anonymous": false,
      "inputs": [
        {
          "indexed": false,
          "internalType": "address",
          "name": "sender",
          "type": "address"
        },
        {
          "indexed": false,
          "internalType": "address",
          "name": "admin",
          "type": "address"
        }
      ],
      "name": "LogAdminAdded",
      "type": "event"
    },
    {
      "anonymous": false,
      "inputs": [
        {
          "indexed": false,
          "internalType": "address",
          "name": "sender",
          "type": "address"
        },
        {
          "indexed": false,
          "internalType": "address",
          "name": "admin",
          "type": "address"
        }
      ],
      "name": "LogAdminRemoved",
      "type": "event"
    },
    {
      "anonymous": false,
      "inputs": [
        {
          "indexed": false,
          "internalType": "address",
          "name": "sender",
          "type": "address"
        },
        {
          "indexed": false,
          "internalType": "address",
          "name": "child",
          "type": "address"
        }
      ],
      "name": "LogChildAdded",
      "type": "event"
    },
    {
      "anonymous": false,
      "inputs": [
        {
          "indexed": false,
          "internalType": "address",
          "name": "sender",
          "type": "address"
        },
        {
          "indexed": false,
          "internalType": "address",
          "name": "child",
          "type": "address"
        }
      ],
      "name": "LogChildRemoved",
      "type": "event"
    },
    {
      "anonymous": false,
      "inputs": [
        {
          "indexed": false,
          "internalType": "address",
          "name": "sender",
          "type": "address"
        },
        {
          "indexed": false,
          "internalType": "address",
          "name": "receiver",
          "type": "address"
        },
        {
          "indexed": false,
          "internalType": "string",
          "name": "bucket",
          "type": "string"
        },
        {
          "indexed": false,
          "internalType": "uint256",
          "name": "newBalance",
          "type": "uint256"
        }
      ],
      "name": "LogFunded",
      "type": "event"
    },
    {
      "anonymous": false,
      "inputs": [
        {
          "indexed": false,
          "internalType": "address",
          "name": "to",
          "type": "address"
        },
        {
          "indexed": false,
          "internalType": "string",
          "name": "bucket",
          "type": "string"
        },
        {
          "indexed": false,
          "internalType": "uint256",
          "name": "amount",
          "type": "uint256"
        }
      ],
      "name": "LogFundsReleased",
      "type": "event"
    },
    {
      "anonymous": false,
      "inputs": [
        {
          "indexed": false,
          "internalType": "address",
          "name": "_address",
          "type": "address"
        },
        {
          "indexed": false,
          "internalType": "string",
          "name": "bucket",
          "type": "string"
        }
      ],
      "name": "LogLocked",
      "type": "event"
    },
    {
      "anonymous": false,
      "inputs": [
        {
          "indexed": false,
          "internalType": "address",
          "name": "sender",
          "type": "address"
        },
        {
          "indexed": false,
          "internalType": "string",
          "name": "bucket",
          "type": "string"
        }
      ],
      "name": "LogUnfunded",
      "type": "event"
    },
    {
      "anonymous": false,
      "inputs": [
        {
          "indexed": false,
          "internalType": "address",
          "name": "_address",
          "type": "address"
        },
        {
          "indexed": false,
          "internalType": "string",
          "name": "bucket",
          "type": "string"
        }
      ],
      "name": "LogUnlocked",
      "type": "event"
    },
    {
      "constant": true,
      "inputs": [
        {
          "internalType": "uint256",
          "name": "",
          "type": "uint256"
        }
      ],
      "name": "admins",
      "outputs": [
        {
          "internalType": "address",
          "name": "",
          "type": "address"
        }
      ],
      "payable": false,
      "stateMutability": "view",
      "type": "function"
    },
    {
      "constant": true,
      "inputs": [
        {
          "internalType": "uint256",
          "name": "",
          "type": "uint256"
        }
      ],
      "name": "benefitors",
      "outputs": [
        {
          "internalType": "address",
          "name": "",
          "type": "address"
        }
      ],
      "payable": false,
      "stateMutability": "view",
      "type": "function"
    },
    {
      "constant": true,
      "inputs": [],
      "name": "owner",
      "outputs": [
        {
          "internalType": "address",
          "name": "",
          "type": "address"
        }
      ],
      "payable": false,
      "stateMutability": "view",
      "type": "function"
    },
    {
      "constant": false,
      "inputs": [
        {
          "internalType": "address",
          "name": "_benefitor",
          "type": "address"
        },
        {
          "internalType": "string",
          "name": "_bucket",
          "type": "string"
        }
      ],
      "name": "addFunds",
      "outputs": [],
      "payable": true,
      "stateMutability": "payable",
      "type": "function"
    },
    {
      "constant": false,
      "inputs": [
        {
          "internalType": "address payable",
          "name": "_to",
          "type": "address"
        },
        {
          "internalType": "string",
          "name": "_fromBucket",
          "type": "string"
        }
      ],
      "name": "releaseFunds",
      "outputs": [],
      "payable": false,
      "stateMutability": "nonpayable",
      "type": "function"
    },
    {
      "constant": false,
      "inputs": [
        {
          "internalType": "string",
          "name": "_bucket",
          "type": "string"
        },
        {
          "internalType": "address",
          "name": "_benefitor",
          "type": "address"
        }
      ],
      "name": "lockFunds",
      "outputs": [],
      "payable": false,
      "stateMutability": "nonpayable",
      "type": "function"
    },
    {
      "constant": false,
      "inputs": [
        {
          "internalType": "string",
          "name": "_bucket",
          "type": "string"
        },
        {
          "internalType": "address",
          "name": "_benefitor",
          "type": "address"
        }
      ],
      "name": "unlockFunds",
      "outputs": [],
      "payable": false,
      "stateMutability": "nonpayable",
      "type": "function"
    },
    {
      "constant": false,
      "inputs": [
        {
          "internalType": "address",
          "name": "_admin",
          "type": "address"
        },
        {
          "internalType": "string",
          "name": "_firstName",
          "type": "string"
        },
        {
          "internalType": "string",
          "name": "_lastName",
          "type": "string"
        }
      ],
      "name": "addAdmin",
      "outputs": [],
      "payable": false,
      "stateMutability": "nonpayable",
      "type": "function"
    },
    {
      "constant": false,
      "inputs": [
        {
          "internalType": "address",
          "name": "_admin",
          "type": "address"
        }
      ],
      "name": "removeAdmin",
      "outputs": [],
      "payable": false,
      "stateMutability": "nonpayable",
      "type": "function"
    },
    {
      "constant": false,
      "inputs": [
        {
          "internalType": "address",
          "name": "_benefitor",
          "type": "address"
        },
        {
          "internalType": "string",
          "name": "_firstName",
          "type": "string"
        },
        {
          "internalType": "string",
          "name": "_lastName",
          "type": "string"
        }
      ],
      "name": "addBenefitor",
      "outputs": [],
      "payable": false,
      "stateMutability": "nonpayable",
      "type": "function"
    },
    {
      "constant": false,
      "inputs": [
        {
          "internalType": "address",
          "name": "_benefitor",
          "type": "address"
        }
      ],
      "name": "removeBenefitor",
      "outputs": [],
      "payable": false,
      "stateMutability": "nonpayable",
      "type": "function"
    },
    {
      "constant": true,
      "inputs": [
        {
          "internalType": "address",
          "name": "_address",
          "type": "address"
        }
      ],
      "name": "getAccountInfo",
      "outputs": [
        {
          "internalType": "string",
          "name": "firstName",
          "type": "string"
        },
        {
          "internalType": "string",
          "name": "lastName",
          "type": "string"
        },
        {
          "internalType": "bool",
          "name": "isAdmin",
          "type": "bool"
        },
        {
          "internalType": "bool",
          "name": "enabled",
          "type": "bool"
        }
      ],
      "payable": false,
      "stateMutability": "view",
      "type": "function"
    },
    {
      "constant": true,
      "inputs": [],
      "name": "getBucketTypes",
      "outputs": [
        {
          "internalType": "string[]",
          "name": "",
          "type": "string[]"
        }
      ],
      "payable": false,
      "stateMutability": "view",
      "type": "function"
    },
    {
      "constant": true,
      "inputs": [
        {
          "internalType": "address",
          "name": "_address",
          "type": "address"
        },
        {
          "internalType": "string",
          "name": "_bucket",
          "type": "string"
        }
      ],
      "name": "getBucketInfo",
      "outputs": [
        {
          "internalType": "string",
          "name": "firstName",
          "type": "string"
        },
        {
          "internalType": "string",
          "name": "lastName",
          "type": "string"
        },
        {
          "internalType": "bool",
          "name": "enabled",
          "type": "bool"
        },
        {
          "internalType": "uint256",
          "name": "balance",
          "type": "uint256"
        },
        {
          "internalType": "bool",
          "name": "locked",
          "type": "bool"
        }
      ],
      "payable": false,
      "stateMutability": "view",
      "type": "function"
    }
  ],
  "bytecode": "0x60806040523480156200001157600080fd5b50336000806101000a81548173ffffffffffffffffffffffffffffffffffffffff021916908373ffffffffffffffffffffffffffffffffffffffff16021790555060405180606001604052806040518060400160405280600a81526020017f554e49564552534954590000000000000000000000000000000000000000000081525081526020016040518060400160405280600a81526020017f414c4c4f57414e4345530000000000000000000000000000000000000000000081525081526020016040518060400160405280600b81526020017f494e4845524954414e434500000000000000000000000000000000000000000081525081525060039060036200011e92919062000125565b50620002b8565b82805482825590600052602060002090810192821562000179579160200282015b8281111562000178578251829080519060200190620001679291906200018c565b509160200191906001019062000146565b5b50905062000188919062000213565b5090565b828054600181600116156101000203166002900490600052602060002090601f016020900481019282601f10620001cf57805160ff191683800117855562000200565b8280016001018555821562000200579182015b82811115620001ff578251825591602001919060010190620001e2565b5b5090506200020f919062000244565b5090565b6200024191905b808211156200023d57600081816200023391906200026c565b506001016200021a565b5090565b90565b6200026991905b80821115620002655760008160009055506001016200024b565b5090565b90565b50805460018160011615610100020316600290046000825580601f10620002945750620002b5565b601f016020900490600052602060002090810190620002b4919062000244565b5b50565b6120ee80620002c86000396000f3fe6080604052600436106100dd5760003560e01c806395d97e221161007f578063c6d8046b11610059578063c6d8046b146102b2578063c76ce816146102db578063cc64318314610304578063e854cdca14610345576100dd565b806395d97e2214610244578063a516259c14610260578063b5000acf14610289576100dd565b806353f24d0b116100bb57806353f24d0b146101855780635babf5ef146101b05780637b510fe8146101d95780638da5cb5b14610219576100dd565b8063120662be146100e257806314bfd6d01461011f5780631785f53c1461015c575b600080fd5b3480156100ee57600080fd5b5061010960048036036101049190810190611a6b565b61036e565b6040516101169190611cd3565b60405180910390f35b34801561012b57600080fd5b5061014660048036036101419190810190611a6b565b6103aa565b6040516101539190611cd3565b60405180910390f35b34801561016857600080fd5b50610183600480360361017e91908101906118c7565b6103e6565b005b34801561019157600080fd5b5061019a6104d3565b6040516101a79190611d78565b60405180910390f35b3480156101bc57600080fd5b506101d760048036036101d29190810190611998565b6105bc565b005b3480156101e557600080fd5b5061020060048036036101fb91908101906118c7565b6107ab565b6040516102109493929190611d9a565b60405180910390f35b34801561022557600080fd5b5061022e610a3b565b60405161023b9190611cd3565b60405180910390f35b61025e60048036036102599190810190611944565b610a60565b005b34801561026c57600080fd5b5061028760048036036102829190810190611998565b610c47565b005b34801561029557600080fd5b506102b060048036036102ab9190810190611a17565b610e4e565b005b3480156102be57600080fd5b506102d960048036036102d491908101906118f0565b610f71565b005b3480156102e757600080fd5b5061030260048036036102fd91908101906118c7565b61126a565b005b34801561031057600080fd5b5061032b60048036036103269190810190611944565b611370565b60405161033c959493929190611ded565b60405180910390f35b34801561035157600080fd5b5061036c60048036036103679190810190611a17565b61166c565b005b6002818154811061037b57fe5b906000526020600020016000915054906101000a900473ffffffffffffffffffffffffffffffffffffffff1681565b600181815481106103b757fe5b906000526020600020016000915054906101000a900473ffffffffffffffffffffffffffffffffffffffff1681565b6000809054906101000a900473ffffffffffffffffffffffffffffffffffffffff1673ffffffffffffffffffffffffffffffffffffffff163373ffffffffffffffffffffffffffffffffffffffff1614610475576040517f08c379a000000000000000000000000000000000000000000000000000000000815260040161046c90611e6e565b60405180910390fd5b6000600460008373ffffffffffffffffffffffffffffffffffffffff1673ffffffffffffffffffffffffffffffffffffffff16815260200190815260200160002060020160016101000a81548160ff02191690831515021790555050565b60606003805480602002602001604051908101604052809291908181526020016000905b828210156105b3578382906000526020600020018054600181600116156101000203166002900480601f01602080910402602001604051908101604052809291908181526020018280546001816001161561010002031660029004801561059f5780601f106105745761010080835404028352916020019161059f565b820191906000526020600020905b81548152906001019060200180831161058257829003601f168201915b5050505050815260200190600101906104f7565b50505050905090565b6000809054906101000a900473ffffffffffffffffffffffffffffffffffffffff1673ffffffffffffffffffffffffffffffffffffffff163373ffffffffffffffffffffffffffffffffffffffff161461064b576040517f08c379a000000000000000000000000000000000000000000000000000000000815260040161064290611e6e565b60405180910390fd5b60018390806001815401808255809150509060018203906000526020600020016000909192909190916101000a81548173ffffffffffffffffffffffffffffffffffffffff021916908373ffffffffffffffffffffffffffffffffffffffff160217905550506040518060800160405280838152602001828152602001600060018111156106d557fe5b815260200160011515815250600460008573ffffffffffffffffffffffffffffffffffffffff1673ffffffffffffffffffffffffffffffffffffffff168152602001908152602001600020600082015181600001908051906020019061073c92919061178f565b50602082015181600101908051906020019061075992919061178f565b5060408201518160020160006101000a81548160ff0219169083600181111561077e57fe5b021790555060608201518160020160016101000a81548160ff021916908315150217905550905050505050565b606080600080600460008673ffffffffffffffffffffffffffffffffffffffff1673ffffffffffffffffffffffffffffffffffffffff1681526020019081526020016000206000018054600181600116156101000203166002900480601f0160208091040260200160405190810160405280929190818152602001828054600181600116156101000203166002900480156108875780601f1061085c57610100808354040283529160200191610887565b820191906000526020600020905b81548152906001019060200180831161086a57829003601f168201915b50505050509350600460008673ffffffffffffffffffffffffffffffffffffffff1673ffffffffffffffffffffffffffffffffffffffff1681526020019081526020016000206001018054600181600116156101000203166002900480601f0160208091040260200160405190810160405280929190818152602001828054600181600116156101000203166002900480156109645780601f1061093957610100808354040283529160200191610964565b820191906000526020600020905b81548152906001019060200180831161094757829003601f168201915b505050505092506000600181111561097857fe5b600460008773ffffffffffffffffffffffffffffffffffffffff1673ffffffffffffffffffffffffffffffffffffffff16815260200190815260200160002060020160009054906101000a900460ff1660018111156109d357fe5b149150600460008673ffffffffffffffffffffffffffffffffffffffff1673ffffffffffffffffffffffffffffffffffffffff16815260200190815260200160002060020160019054906101000a900460ff1690508383838393509350935093509193509193565b6000809054906101000a900473ffffffffffffffffffffffffffffffffffffffff1681565b60006001811115610a6d57fe5b600460003373ffffffffffffffffffffffffffffffffffffffff1673ffffffffffffffffffffffffffffffffffffffff16815260200190815260200160002060020160009054906101000a900460ff166001811115610ac857fe5b14610b08576040517f08c379a0000000000000000000000000000000000000000000000000000000008152600401610aff90611e4e565b60405180910390fd5b604051806040016040528034815260200160001515815250600560008473ffffffffffffffffffffffffffffffffffffffff1673ffffffffffffffffffffffffffffffffffffffff16815260200190815260200160002082604051610b6d9190611cbc565b90815260200160405180910390206000820151816000015560208201518160010160006101000a81548160ff0219169083151502179055509050507fb35695d61d4d082cc9167cfc545e04075885362274c7ab44e3603f1cd77c254a338383600560008773ffffffffffffffffffffffffffffffffffffffff1673ffffffffffffffffffffffffffffffffffffffff16815260200190815260200160002085604051610c199190611cbc565b908152602001604051809103902060000154604051610c3b9493929190611cee565b60405180910390a15050565b60006001811115610c5457fe5b600460003373ffffffffffffffffffffffffffffffffffffffff1673ffffffffffffffffffffffffffffffffffffffff16815260200190815260200160002060020160009054906101000a900460ff166001811115610caf57fe5b14610cef576040517f08c379a0000000000000000000000000000000000000000000000000000000008152600401610ce690611e4e565b60405180910390fd5b60028390806001815401808255809150509060018203906000526020600020016000909192909190916101000a81548173ffffffffffffffffffffffffffffffffffffffff021916908373ffffffffffffffffffffffffffffffffffffffff160217905550506040518060800160405280838152602001828152602001600180811115610d7857fe5b815260200160011515815250600460008573ffffffffffffffffffffffffffffffffffffffff1673ffffffffffffffffffffffffffffffffffffffff1681526020019081526020016000206000820151816000019080519060200190610ddf92919061178f565b506020820151816001019080519060200190610dfc92919061178f565b5060408201518160020160006101000a81548160ff02191690836001811115610e2157fe5b021790555060608201518160020160016101000a81548160ff021916908315150217905550905050505050565b60006001811115610e5b57fe5b600460003373ffffffffffffffffffffffffffffffffffffffff1673ffffffffffffffffffffffffffffffffffffffff16815260200190815260200160002060020160009054906101000a900460ff166001811115610eb657fe5b14610ef6576040517f08c379a0000000000000000000000000000000000000000000000000000000008152600401610eed90611e4e565b60405180910390fd5b6001600560008373ffffffffffffffffffffffffffffffffffffffff1673ffffffffffffffffffffffffffffffffffffffff16815260200190815260200160002083604051610f459190611cbc565b908152602001604051809103902060010160006101000a81548160ff0219169083151502179055505050565b60006001811115610f7e57fe5b600460003373ffffffffffffffffffffffffffffffffffffffff1673ffffffffffffffffffffffffffffffffffffffff16815260200190815260200160002060020160009054906101000a900460ff166001811115610fd957fe5b14611019576040517f08c379a000000000000000000000000000000000000000000000000000000000815260040161101090611e4e565b60405180910390fd5b81816000600560008473ffffffffffffffffffffffffffffffffffffffff1673ffffffffffffffffffffffffffffffffffffffff1681526020019081526020016000208260405161106a9190611cbc565b908152602001604051809103902060000154116110bc576040517f08c379a00000000000000000000000000000000000000000000000000000000081526004016110b390611e8e565b60405180910390fd5b8373ffffffffffffffffffffffffffffffffffffffff166108fc600560008773ffffffffffffffffffffffffffffffffffffffff1673ffffffffffffffffffffffffffffffffffffffff168152602001908152602001600020856040516111239190611cbc565b9081526020016040518091039020600001549081150290604051600060405180830381858888f19350505050158015611160573d6000803e3d6000fd5b506000600560008673ffffffffffffffffffffffffffffffffffffffff1673ffffffffffffffffffffffffffffffffffffffff168152602001908152602001600020846040516111b09190611cbc565b90815260200160405180910390206000015490506000600560008773ffffffffffffffffffffffffffffffffffffffff1673ffffffffffffffffffffffffffffffffffffffff168152602001908152602001600020856040516112139190611cbc565b9081526020016040518091039020600001819055507fa04a52971dad7a35fe69b1a735b8184efbe64ee80a0434568f3e824ee55469ba85858360405161125b93929190611d3a565b60405180910390a15050505050565b6000600181111561127757fe5b600460003373ffffffffffffffffffffffffffffffffffffffff1673ffffffffffffffffffffffffffffffffffffffff16815260200190815260200160002060020160009054906101000a900460ff1660018111156112d257fe5b14611312576040517f08c379a000000000000000000000000000000000000000000000000000000000815260040161130990611e4e565b60405180910390fd5b6000600460008373ffffffffffffffffffffffffffffffffffffffff1673ffffffffffffffffffffffffffffffffffffffff16815260200190815260200160002060020160016101000a81548160ff02191690831515021790555050565b6060806000806000600460008873ffffffffffffffffffffffffffffffffffffffff1673ffffffffffffffffffffffffffffffffffffffff1681526020019081526020016000206000018054600181600116156101000203166002900480601f01602080910402602001604051908101604052809291908181526020018280546001816001161561010002031660029004801561144e5780601f106114235761010080835404028352916020019161144e565b820191906000526020600020905b81548152906001019060200180831161143157829003601f168201915b50505050509450600460008873ffffffffffffffffffffffffffffffffffffffff1673ffffffffffffffffffffffffffffffffffffffff1681526020019081526020016000206001018054600181600116156101000203166002900480601f01602080910402602001604051908101604052809291908181526020018280546001816001161561010002031660029004801561152b5780601f106115005761010080835404028352916020019161152b565b820191906000526020600020905b81548152906001019060200180831161150e57829003601f168201915b50505050509350600460008873ffffffffffffffffffffffffffffffffffffffff1673ffffffffffffffffffffffffffffffffffffffff16815260200190815260200160002060020160019054906101000a900460ff169250600560008873ffffffffffffffffffffffffffffffffffffffff1673ffffffffffffffffffffffffffffffffffffffff168152602001908152602001600020866040516115d19190611cbc565b9081526020016040518091039020600001549150600560008873ffffffffffffffffffffffffffffffffffffffff1673ffffffffffffffffffffffffffffffffffffffff168152602001908152602001600020866040516116329190611cbc565b908152602001604051809103902060010160009054906101000a900460ff1690508484848484945094509450945094509295509295909350565b6000600181111561167957fe5b600460003373ffffffffffffffffffffffffffffffffffffffff1673ffffffffffffffffffffffffffffffffffffffff16815260200190815260200160002060020160009054906101000a900460ff1660018111156116d457fe5b14611714576040517f08c379a000000000000000000000000000000000000000000000000000000000815260040161170b90611e4e565b60405180910390fd5b6000600560008373ffffffffffffffffffffffffffffffffffffffff1673ffffffffffffffffffffffffffffffffffffffff168152602001908152602001600020836040516117639190611cbc565b908152602001604051809103902060010160006101000a81548160ff0219169083151502179055505050565b828054600181600116156101000203166002900490600052602060002090601f016020900481019282601f106117d057805160ff19168380011785556117fe565b828001600101855582156117fe579182015b828111156117fd5782518255916020019190600101906117e2565b5b50905061180b919061180f565b5090565b61183191905b8082111561182d576000816000905550600101611815565b5090565b90565b60008135905061184381612066565b92915050565b6000813590506118588161207d565b92915050565b600082601f83011261186f57600080fd5b813561188261187d82611edb565b611eae565b9150808252602083016020830185838301111561189e57600080fd5b6118a9838284612013565b50505092915050565b6000813590506118c181612094565b92915050565b6000602082840312156118d957600080fd5b60006118e784828501611834565b91505092915050565b6000806040838503121561190357600080fd5b600061191185828601611849565b925050602083013567ffffffffffffffff81111561192e57600080fd5b61193a8582860161185e565b9150509250929050565b6000806040838503121561195757600080fd5b600061196585828601611834565b925050602083013567ffffffffffffffff81111561198257600080fd5b61198e8582860161185e565b9150509250929050565b6000806000606084860312156119ad57600080fd5b60006119bb86828701611834565b935050602084013567ffffffffffffffff8111156119d857600080fd5b6119e48682870161185e565b925050604084013567ffffffffffffffff811115611a0157600080fd5b611a0d8682870161185e565b9150509250925092565b60008060408385031215611a2a57600080fd5b600083013567ffffffffffffffff811115611a4457600080fd5b611a508582860161185e565b9250506020611a6185828601611834565b9150509250929050565b600060208284031215611a7d57600080fd5b6000611a8b848285016118b2565b91505092915050565b6000611aa08383611bb4565b905092915050565b611ab181611fdd565b82525050565b611ac081611f83565b82525050565b6000611ad182611f17565b611adb8185611f45565b935083602082028501611aed85611f07565b8060005b85811015611b295784840389528151611b0a8582611a94565b9450611b1583611f38565b925060208a01995050600181019050611af1565b50829750879550505050505092915050565b611b4481611fa7565b82525050565b6000611b5582611f2d565b611b5f8185611f67565b9350611b6f818560208601612022565b611b7881612055565b840191505092915050565b6000611b8e82611f2d565b611b988185611f78565b9350611ba8818560208601612022565b80840191505092915050565b6000611bbf82611f22565b611bc98185611f56565b9350611bd9818560208601612022565b611be281612055565b840191505092915050565b6000611bfa601983611f67565b91507f4f6e6c792061646d696e732063616e2063616c6c2074686973000000000000006000830152602082019050919050565b6000611c3a601983611f67565b91507f4f6e6c79206f776e6572732063616e2063616c6c2074686973000000000000006000830152602082019050919050565b6000611c7a601583611f67565b91507f42616c616e6365206973206e6f7420656e6f75676800000000000000000000006000830152602082019050919050565b611cb681611fd3565b82525050565b6000611cc88284611b83565b915081905092915050565b6000602082019050611ce86000830184611ab7565b92915050565b6000608082019050611d036000830187611aa8565b611d106020830186611ab7565b8181036040830152611d228185611b4a565b9050611d316060830184611cad565b95945050505050565b6000606082019050611d4f6000830186611aa8565b8181036020830152611d618185611b4a565b9050611d706040830184611cad565b949350505050565b60006020820190508181036000830152611d928184611ac6565b905092915050565b60006080820190508181036000830152611db48187611b4a565b90508181036020830152611dc88186611b4a565b9050611dd76040830185611b3b565b611de46060830184611b3b565b95945050505050565b600060a0820190508181036000830152611e078188611b4a565b90508181036020830152611e1b8187611b4a565b9050611e2a6040830186611b3b565b611e376060830185611cad565b611e446080830184611b3b565b9695505050505050565b60006020820190508181036000830152611e6781611bed565b9050919050565b60006020820190508181036000830152611e8781611c2d565b9050919050565b60006020820190508181036000830152611ea781611c6d565b9050919050565b6000604051905081810181811067ffffffffffffffff82111715611ed157600080fd5b8060405250919050565b600067ffffffffffffffff821115611ef257600080fd5b601f19601f8301169050602081019050919050565b6000819050602082019050919050565b600081519050919050565b600081519050919050565b600081519050919050565b6000602082019050919050565b600082825260208201905092915050565b600082825260208201905092915050565b600082825260208201905092915050565b600081905092915050565b6000611f8e82611fb3565b9050919050565b6000611fa082611fb3565b9050919050565b60008115159050919050565b600073ffffffffffffffffffffffffffffffffffffffff82169050919050565b6000819050919050565b6000611fe882611fef565b9050919050565b6000611ffa82612001565b9050919050565b600061200c82611fb3565b9050919050565b82818337600083830152505050565b60005b83811015612040578082015181840152602081019050612025565b8381111561204f576000848401525b50505050565b6000601f19601f8301169050919050565b61206f81611f83565b811461207a57600080fd5b50565b61208681611f95565b811461209157600080fd5b50565b61209d81611fd3565b81146120a857600080fd5b5056fea365627a7a723158205e7cf9c0a7858abe7819a6decf22050d8e06c5e112a11c0a6cb53dda9a0e28496c6578706572696d656e74616cf564736f6c63430005100040",
  "source": "// SPDX-License-Identifier: MIT\npragma solidity >=0.5.16 <0.9.0;\npragma experimental ABIEncoderV2;\n\n\ncontract FamilyTrust {\n  address public owner;\n  address[] public admins;\n  address[] public benefitors;\n  enum Role {\n    ADMIN,\n    USER\n  }\n  string[] bucketTypes;    \n  struct Bucket {\n    uint balance;\n    bool locked;\n  }\n  struct Account {\n    string firstName;\n    string lastName;\n    Role role;\n    bool enabled;\n  }\n\n  mapping(address => Account) accounts;\n  mapping(address => mapping(string => Bucket)) buckets;\n  constructor() public {\n    owner = msg.sender;\n    bucketTypes = [\n      'UNIVERSITY',\n      'ALLOWANCES',\n      'INHERITANCE'\n    ];\n  }\n\n  event LogLocked(address _address, string bucket);\n  event LogUnlocked(address _address, string bucket);\n  event LogFunded(address sender, address receiver, string bucket, uint newBalance);\n  event LogUnfunded(address sender, string bucket);\n  event LogFundsReleased(address to, string bucket, uint amount);\n  event LogAdminAdded(address sender, address admin);\n  event LogAdminRemoved(address sender, address admin);\n  event LogChildAdded(address sender, address child);\n  event LogChildRemoved(address sender, address child);\n\n  modifier onlyOwner() {\n    require(msg.sender == owner, \"Only owners can call this\");\n    _;\n  }\n\n  modifier onlyAdmins() {\n    require(accounts[msg.sender].role == Role.ADMIN, \"Only admins can call this\");\n    _;\n  }\n\n  modifier onlyBenefitors() {\n    require(accounts[msg.sender].role == Role.USER, \"Only benefitors can call this\");\n    _;\n  }\n\n  modifier enoughFunds(address _address, string memory _bucket) {\n    require(buckets[_address][_bucket].balance > 0, \"Balance is not enough\");\n    _;\n  }\n\n  function addFunds(address _benefitor, string memory _bucket) public payable onlyAdmins() {\n    buckets[_benefitor][_bucket] = Bucket({\n      balance: msg.value,\n      locked: false\n    });\n    emit LogFunded(msg.sender, _benefitor, _bucket, buckets[_benefitor][_bucket].balance);\n  }\n\n  function releaseFunds(address payable _to, string memory _fromBucket) public onlyAdmins() enoughFunds(_to, _fromBucket) {\n    // emit LogFundsReleased(_to, _fromBucket, buckets[_to][_fromBucket].balance);\n    _to.transfer(buckets[_to][_fromBucket].balance);\n    uint oldBalance = buckets[_to][_fromBucket].balance;\n    buckets[_to][_fromBucket].balance = 0;\n    emit LogFundsReleased(_to, _fromBucket, oldBalance);\n  }\n\n  function lockFunds(string memory _bucket, address _benefitor) public onlyAdmins() {\n    buckets[_benefitor][_bucket].locked = true;\n  }\n\n  function unlockFunds(string memory _bucket, address _benefitor) public onlyAdmins {\n    buckets[_benefitor][_bucket].locked = false;\n  }\n\n  function addAdmin(address _admin, string memory _firstName, string memory _lastName) public onlyOwner() {\n    admins.push(_admin);\n    accounts[_admin] = Account({\n      firstName: _firstName,\n      lastName: _lastName,\n      role: Role.ADMIN,\n      enabled: true\n    });\n  }\n\n  function removeAdmin(address _admin) public onlyOwner() {    \n    accounts[_admin].enabled = false;\n  }\n\n  function addBenefitor(address _benefitor, string memory _firstName, string memory _lastName) public onlyAdmins {    \n    benefitors.push(_benefitor);\n    accounts[_benefitor] = Account({\n      firstName: _firstName,\n      lastName: _lastName,\n      role: Role.USER,\n      enabled: true\n    });\n  }\n\n  function removeBenefitor(address _benefitor) public onlyAdmins {\n    accounts[_benefitor].enabled = false;\n  }\n\n  function getAccountInfo(address _address) public view returns(\n    string memory firstName,\n    string memory lastName,\n    bool isAdmin,\n    bool enabled\n    ) {\n    firstName = accounts[_address].firstName;\n    lastName = accounts[_address].lastName;\n    isAdmin = accounts[_address].role == Role.ADMIN;\n    enabled = accounts[_address].enabled;\n\n    return (\n      firstName,\n      lastName,\n      isAdmin,\n      enabled\n    );\n  }\n  function getBucketTypes() public view returns(string[] memory) {\n    return bucketTypes;\n  }\n\n  function getBucketInfo(address _address, string memory _bucket) public view returns(\n    string memory firstName,\n    string memory lastName,\n    bool enabled,\n    uint balance,\n    bool locked\n\n  ) {\n    firstName = accounts[_address].firstName;\n    lastName = accounts[_address].lastName;\n    enabled = accounts[_address].enabled;\n    balance = buckets[_address][_bucket].balance;\n    locked = buckets[_address][_bucket].locked;\n\n    return (\n      firstName,\n      lastName,\n      enabled,\n      balance,\n      locked\n    );\n  }\n}\n",
  "sourcePath": "/Users/adilmezghouti/development/consensys-academy/blockchain-developer-bootcamp-final-project/contracts/FamilyTrust.sol",
  "compiler": {
    "name": "solc",
    "version": "0.5.16+commit.9c3226ce.Emscripten.clang"
  },
  "schemaVersion": "3.4.3",
  "updatedAt": "2021-11-01T02:06:06.998Z",
  "networkType": "ethereum",
  "devdoc": {
    "methods": {}
  },
  "userdoc": {
    "methods": {}
  }
}