{
  "contractName": "FamilyTrust",
  "abi": [
    {
      "inputs": [],
      "payable": false,
      "stateMutability": "nonpayable",
      "type": "constructor"
    },
    {
      "anonymous": false,
      "inputs": [
        {
          "indexed": false,
          "internalType": "address",
          "name": "sender",
          "type": "address"
        },
        {
          "indexed": false,
          "internalType": "address",
          "name": "admin",
          "type": "address"
        }
      ],
      "name": "LogAdminAdded",
      "type": "event"
    },
    {
      "anonymous": false,
      "inputs": [
        {
          "indexed": false,
          "internalType": "address",
          "name": "sender",
          "type": "address"
        },
        {
          "indexed": false,
          "internalType": "address",
          "name": "admin",
          "type": "address"
        }
      ],
      "name": "LogAdminRemoved",
      "type": "event"
    },
    {
      "anonymous": false,
      "inputs": [
        {
          "indexed": false,
          "internalType": "address",
          "name": "sender",
          "type": "address"
        },
        {
          "indexed": false,
          "internalType": "address",
          "name": "child",
          "type": "address"
        }
      ],
      "name": "LogChildAdded",
      "type": "event"
    },
    {
      "anonymous": false,
      "inputs": [
        {
          "indexed": false,
          "internalType": "address",
          "name": "sender",
          "type": "address"
        },
        {
          "indexed": false,
          "internalType": "address",
          "name": "child",
          "type": "address"
        }
      ],
      "name": "LogChildRemoved",
      "type": "event"
    },
    {
      "anonymous": false,
      "inputs": [
        {
          "indexed": false,
          "internalType": "address",
          "name": "sender",
          "type": "address"
        },
        {
          "indexed": false,
          "internalType": "address",
          "name": "receiver",
          "type": "address"
        },
        {
          "indexed": false,
          "internalType": "string",
          "name": "bucket",
          "type": "string"
        },
        {
          "indexed": false,
          "internalType": "uint256",
          "name": "newBalance",
          "type": "uint256"
        }
      ],
      "name": "LogFunded",
      "type": "event"
    },
    {
      "anonymous": false,
      "inputs": [
        {
          "indexed": false,
          "internalType": "address",
          "name": "to",
          "type": "address"
        },
        {
          "indexed": false,
          "internalType": "string",
          "name": "bucket",
          "type": "string"
        },
        {
          "indexed": false,
          "internalType": "uint256",
          "name": "amount",
          "type": "uint256"
        }
      ],
      "name": "LogFundsReleased",
      "type": "event"
    },
    {
      "anonymous": false,
      "inputs": [
        {
          "indexed": false,
          "internalType": "address",
          "name": "_address",
          "type": "address"
        },
        {
          "indexed": false,
          "internalType": "string",
          "name": "bucket",
          "type": "string"
        }
      ],
      "name": "LogLocked",
      "type": "event"
    },
    {
      "anonymous": false,
      "inputs": [
        {
          "indexed": false,
          "internalType": "address",
          "name": "sender",
          "type": "address"
        },
        {
          "indexed": false,
          "internalType": "string",
          "name": "bucket",
          "type": "string"
        }
      ],
      "name": "LogUnfunded",
      "type": "event"
    },
    {
      "anonymous": false,
      "inputs": [
        {
          "indexed": false,
          "internalType": "address",
          "name": "_address",
          "type": "address"
        },
        {
          "indexed": false,
          "internalType": "string",
          "name": "bucket",
          "type": "string"
        }
      ],
      "name": "LogUnlocked",
      "type": "event"
    },
    {
      "constant": true,
      "inputs": [
        {
          "internalType": "uint256",
          "name": "",
          "type": "uint256"
        }
      ],
      "name": "admins",
      "outputs": [
        {
          "internalType": "address",
          "name": "",
          "type": "address"
        }
      ],
      "payable": false,
      "stateMutability": "view",
      "type": "function"
    },
    {
      "constant": true,
      "inputs": [
        {
          "internalType": "uint256",
          "name": "",
          "type": "uint256"
        }
      ],
      "name": "benefitors",
      "outputs": [
        {
          "internalType": "address",
          "name": "",
          "type": "address"
        }
      ],
      "payable": false,
      "stateMutability": "view",
      "type": "function"
    },
    {
      "constant": true,
      "inputs": [],
      "name": "owner",
      "outputs": [
        {
          "internalType": "address",
          "name": "",
          "type": "address"
        }
      ],
      "payable": false,
      "stateMutability": "view",
      "type": "function"
    },
    {
      "constant": false,
      "inputs": [
        {
          "internalType": "address",
          "name": "_benefitor",
          "type": "address"
        },
        {
          "internalType": "string",
          "name": "_bucket",
          "type": "string"
        }
      ],
      "name": "addFunds",
      "outputs": [],
      "payable": true,
      "stateMutability": "payable",
      "type": "function"
    },
    {
      "constant": false,
      "inputs": [
        {
          "internalType": "address payable",
          "name": "_to",
          "type": "address"
        },
        {
          "internalType": "string",
          "name": "_fromBucket",
          "type": "string"
        }
      ],
      "name": "releaseFunds",
      "outputs": [],
      "payable": false,
      "stateMutability": "nonpayable",
      "type": "function"
    },
    {
      "constant": false,
      "inputs": [
        {
          "internalType": "string",
          "name": "_bucket",
          "type": "string"
        },
        {
          "internalType": "address",
          "name": "_benefitor",
          "type": "address"
        }
      ],
      "name": "lockFunds",
      "outputs": [],
      "payable": false,
      "stateMutability": "nonpayable",
      "type": "function"
    },
    {
      "constant": false,
      "inputs": [
        {
          "internalType": "string",
          "name": "_bucket",
          "type": "string"
        },
        {
          "internalType": "address",
          "name": "_benefitor",
          "type": "address"
        }
      ],
      "name": "unlockFunds",
      "outputs": [],
      "payable": false,
      "stateMutability": "nonpayable",
      "type": "function"
    },
    {
      "constant": false,
      "inputs": [
        {
          "internalType": "address",
          "name": "_admin",
          "type": "address"
        },
        {
          "internalType": "string",
          "name": "_firstName",
          "type": "string"
        },
        {
          "internalType": "string",
          "name": "_lastName",
          "type": "string"
        }
      ],
      "name": "addAdmin",
      "outputs": [],
      "payable": false,
      "stateMutability": "nonpayable",
      "type": "function"
    },
    {
      "constant": false,
      "inputs": [
        {
          "internalType": "address",
          "name": "_admin",
          "type": "address"
        }
      ],
      "name": "removeAdmin",
      "outputs": [],
      "payable": false,
      "stateMutability": "nonpayable",
      "type": "function"
    },
    {
      "constant": false,
      "inputs": [
        {
          "internalType": "address",
          "name": "_benefitor",
          "type": "address"
        },
        {
          "internalType": "string",
          "name": "_firstName",
          "type": "string"
        },
        {
          "internalType": "string",
          "name": "_lastName",
          "type": "string"
        }
      ],
      "name": "addBenefitor",
      "outputs": [
        {
          "internalType": "bool",
          "name": "",
          "type": "bool"
        }
      ],
      "payable": false,
      "stateMutability": "nonpayable",
      "type": "function"
    },
    {
      "constant": false,
      "inputs": [
        {
          "internalType": "address",
          "name": "_benefitor",
          "type": "address"
        }
      ],
      "name": "removeBenefitor",
      "outputs": [],
      "payable": false,
      "stateMutability": "nonpayable",
      "type": "function"
    },
    {
      "constant": false,
      "inputs": [
        {
          "internalType": "address",
          "name": "_address",
          "type": "address"
        },
        {
          "internalType": "bool",
          "name": "hasAccess",
          "type": "bool"
        }
      ],
      "name": "toggleAccountAccess",
      "outputs": [],
      "payable": false,
      "stateMutability": "nonpayable",
      "type": "function"
    },
    {
      "constant": true,
      "inputs": [
        {
          "internalType": "address",
          "name": "_address",
          "type": "address"
        }
      ],
      "name": "getAccountInfo",
      "outputs": [
        {
          "internalType": "string",
          "name": "firstName",
          "type": "string"
        },
        {
          "internalType": "string",
          "name": "lastName",
          "type": "string"
        },
        {
          "internalType": "bool",
          "name": "isAdmin",
          "type": "bool"
        },
        {
          "internalType": "bool",
          "name": "enabled",
          "type": "bool"
        }
      ],
      "payable": false,
      "stateMutability": "view",
      "type": "function"
    },
    {
      "constant": true,
      "inputs": [],
      "name": "getBucketTypes",
      "outputs": [
        {
          "internalType": "string[]",
          "name": "",
          "type": "string[]"
        }
      ],
      "payable": false,
      "stateMutability": "view",
      "type": "function"
    },
    {
      "constant": true,
      "inputs": [
        {
          "internalType": "address",
          "name": "_address",
          "type": "address"
        },
        {
          "internalType": "string",
          "name": "_bucket",
          "type": "string"
        }
      ],
      "name": "getBucketInfo",
      "outputs": [
        {
          "internalType": "string",
          "name": "firstName",
          "type": "string"
        },
        {
          "internalType": "string",
          "name": "lastName",
          "type": "string"
        },
        {
          "internalType": "bool",
          "name": "enabled",
          "type": "bool"
        },
        {
          "internalType": "uint256",
          "name": "balance",
          "type": "uint256"
        },
        {
          "internalType": "bool",
          "name": "locked",
          "type": "bool"
        }
      ],
      "payable": false,
      "stateMutability": "view",
      "type": "function"
    },
    {
      "constant": true,
      "inputs": [],
      "name": "getBenefitors",
      "outputs": [
        {
          "internalType": "address",
          "name": "benefitor1",
          "type": "address"
        },
        {
          "internalType": "address",
          "name": "benefitor2",
          "type": "address"
        },
        {
          "internalType": "address",
          "name": "benefitor3",
          "type": "address"
        },
        {
          "internalType": "uint256",
          "name": "len",
          "type": "uint256"
        }
      ],
      "payable": false,
      "stateMutability": "view",
      "type": "function"
    },
    {
      "constant": true,
      "inputs": [],
      "name": "getAdmins",
      "outputs": [
        {
          "internalType": "address",
          "name": "admin1",
          "type": "address"
        },
        {
          "internalType": "address",
          "name": "admin2",
          "type": "address"
        },
        {
          "internalType": "address",
          "name": "admin3",
          "type": "address"
        },
        {
          "internalType": "uint256",
          "name": "len",
          "type": "uint256"
        }
      ],
      "payable": false,
      "stateMutability": "view",
      "type": "function"
    },
    {
      "constant": true,
      "inputs": [
        {
          "internalType": "address",
          "name": "_address",
          "type": "address"
        }
      ],
      "name": "getAdminInfo",
      "outputs": [
        {
          "internalType": "string",
          "name": "firstName",
          "type": "string"
        },
        {
          "internalType": "string",
          "name": "lastName",
          "type": "string"
        },
        {
          "internalType": "bool",
          "name": "enabled",
          "type": "bool"
        }
      ],
      "payable": false,
      "stateMutability": "view",
      "type": "function"
    }
  ],
  "bytecode": "0x60806040523480156200001157600080fd5b50336000806101000a81548173ffffffffffffffffffffffffffffffffffffffff021916908373ffffffffffffffffffffffffffffffffffffffff1602179055506000604051908082528060200260200182016040528015620000835781602001602082028038833980820191505090505b50600290805190602001906200009b929190620001b9565b506000604051908082528060200260200182016040528015620000cd5781602001602082028038833980820191505090505b5060019080519060200190620000e5929190620001b9565b5060405180606001604052806040518060400160405280600a81526020017f554e49564552534954590000000000000000000000000000000000000000000081525081526020016040518060400160405280600a81526020017f414c4c4f57414e4345530000000000000000000000000000000000000000000081525081526020016040518060400160405280600b81526020017f494e4845524954414e43450000000000000000000000000000000000000000008152508152506003906003620001b292919062000248565b5062000421565b82805482825590600052602060002090810192821562000235579160200282015b82811115620002345782518260006101000a81548173ffffffffffffffffffffffffffffffffffffffff021916908373ffffffffffffffffffffffffffffffffffffffff16021790555091602001919060010190620001da565b5b509050620002449190620002af565b5090565b8280548282559060005260206000209081019282156200029c579160200282015b828111156200029b5782518290805190602001906200028a929190620002f5565b509160200191906001019062000269565b5b509050620002ab91906200037c565b5090565b620002f291905b80821115620002ee57600081816101000a81549073ffffffffffffffffffffffffffffffffffffffff021916905550600101620002b6565b5090565b90565b828054600181600116156101000203166002900490600052602060002090601f016020900481019282601f106200033857805160ff191683800117855562000369565b8280016001018555821562000369579182015b82811115620003685782518255916020019190600101906200034b565b5b509050620003789190620003ad565b5090565b620003aa91905b80821115620003a657600081816200039c9190620003d5565b5060010162000383565b5090565b90565b620003d291905b80821115620003ce576000816000905550600101620003b4565b5090565b90565b50805460018160011615610100020316600290046000825580601f10620003fd57506200041e565b601f0160209004906000526020600020908101906200041d9190620003ad565b5b50565b612a7f80620004316000396000f3fe6080604052600436106101095760003560e01c80638da5cb5b11610095578063b5000acf11610064578063b5000acf1461038d578063c6d8046b146103b6578063c76ce816146103df578063cc64318314610408578063e854cdca1461044957610109565b80638da5cb5b146102db57806395d97e2214610306578063a516259c14610322578063b246c6dd1461035f57610109565b806331ae450b116100dc57806331ae450b146101da57806353f24d0b146102085780635babf5ef14610233578063722b03761461025c5780637b510fe81461029b57610109565b8063120662be1461010e57806314bfd6d01461014b5780631785f53c146101885780631b9a67a7146101b1575b600080fd5b34801561011a57600080fd5b50610135600480360361013091908101906122e0565b610472565b6040516101429190612588565b60405180910390f35b34801561015757600080fd5b50610172600480360361016d91908101906122e0565b6104ae565b60405161017f9190612588565b60405180910390f35b34801561019457600080fd5b506101af60048036036101aa9190810190612100565b6104ea565b005b3480156101bd57600080fd5b506101d860048036036101d3919081019061217d565b6105d7565b005b3480156101e657600080fd5b506101ef6106c4565b6040516101ff949392919061262d565b60405180910390f35b34801561021457600080fd5b5061021d6107c0565b60405161022a9190612672565b60405180910390f35b34801561023f57600080fd5b5061025a6004803603610255919081019061220d565b6108a9565b005b34801561026857600080fd5b50610283600480360361027e9190810190612100565b610a98565b604051610292939291906126af565b60405180910390f35b3480156102a757600080fd5b506102c260048036036102bd9190810190612100565b610cb9565b6040516102d294939291906126f4565b60405180910390f35b3480156102e757600080fd5b506102f0610f49565b6040516102fd9190612588565b60405180910390f35b610320600480360361031b91908101906121b9565b610f6e565b005b34801561032e57600080fd5b506103496004803603610344919081019061220d565b61113e565b6040516103569190612694565b60405180910390f35b34801561036b57600080fd5b506103746113a3565b604051610384949392919061262d565b60405180910390f35b34801561039957600080fd5b506103b460048036036103af919081019061228c565b61149f565b005b3480156103c257600080fd5b506103dd60048036036103d89190810190612129565b611619565b005b3480156103eb57600080fd5b5061040660048036036104019190810190612100565b611969565b005b34801561041457600080fd5b5061042f600480360361042a91908101906121b9565b611af5565b604051610440959493929190612747565b60405180910390f35b34801561045557600080fd5b50610470600480360361046b919081019061228c565b611df1565b005b6002818154811061047f57fe5b906000526020600020016000915054906101000a900473ffffffffffffffffffffffffffffffffffffffff1681565b600181815481106104bb57fe5b906000526020600020016000915054906101000a900473ffffffffffffffffffffffffffffffffffffffff1681565b6000809054906101000a900473ffffffffffffffffffffffffffffffffffffffff1673ffffffffffffffffffffffffffffffffffffffff163373ffffffffffffffffffffffffffffffffffffffff1614610579576040517f08c379a0000000000000000000000000000000000000000000000000000000008152600401610570906127c8565b60405180910390fd5b6000600460008373ffffffffffffffffffffffffffffffffffffffff1673ffffffffffffffffffffffffffffffffffffffff16815260200190815260200160002060020160016101000a81548160ff02191690831515021790555050565b6000809054906101000a900473ffffffffffffffffffffffffffffffffffffffff1673ffffffffffffffffffffffffffffffffffffffff163373ffffffffffffffffffffffffffffffffffffffff1614610666576040517f08c379a000000000000000000000000000000000000000000000000000000000815260040161065d906127c8565b60405180910390fd5b80600460008473ffffffffffffffffffffffffffffffffffffffff1673ffffffffffffffffffffffffffffffffffffffff16815260200190815260200160002060020160016101000a81548160ff0219169083151502179055505050565b60008060008060018054905090506000600180549050111561071c5760016000815481106106ee57fe5b9060005260206000200160009054906101000a900473ffffffffffffffffffffffffffffffffffffffff1693505b600180805490501115610764576001808154811061073657fe5b9060005260206000200160009054906101000a900473ffffffffffffffffffffffffffffffffffffffff1692505b600260018054905011156107ae57600160028154811061078057fe5b9060005260206000200160009054906101000a900473ffffffffffffffffffffffffffffffffffffffff1691505b83838383935093509350935090919293565b60606003805480602002602001604051908101604052809291908181526020016000905b828210156108a0578382906000526020600020018054600181600116156101000203166002900480601f01602080910402602001604051908101604052809291908181526020018280546001816001161561010002031660029004801561088c5780601f106108615761010080835404028352916020019161088c565b820191906000526020600020905b81548152906001019060200180831161086f57829003601f168201915b5050505050815260200190600101906107e4565b50505050905090565b6000809054906101000a900473ffffffffffffffffffffffffffffffffffffffff1673ffffffffffffffffffffffffffffffffffffffff163373ffffffffffffffffffffffffffffffffffffffff1614610938576040517f08c379a000000000000000000000000000000000000000000000000000000000815260040161092f906127c8565b60405180910390fd5b60018390806001815401808255809150509060018203906000526020600020016000909192909190916101000a81548173ffffffffffffffffffffffffffffffffffffffff021916908373ffffffffffffffffffffffffffffffffffffffff160217905550506040518060800160405280838152602001828152602001600060018111156109c257fe5b815260200160011515815250600460008573ffffffffffffffffffffffffffffffffffffffff1673ffffffffffffffffffffffffffffffffffffffff1681526020019081526020016000206000820151816000019080519060200190610a29929190611f6b565b506020820151816001019080519060200190610a46929190611f6b565b5060408201518160020160006101000a81548160ff02191690836001811115610a6b57fe5b021790555060608201518160020160016101000a81548160ff021916908315150217905550905050505050565b6060806000600460008573ffffffffffffffffffffffffffffffffffffffff1673ffffffffffffffffffffffffffffffffffffffff1681526020019081526020016000206000018054600181600116156101000203166002900480601f016020809104026020016040519081016040528092919081815260200182805460018160011615610100020316600290048015610b735780601f10610b4857610100808354040283529160200191610b73565b820191906000526020600020905b815481529060010190602001808311610b5657829003601f168201915b50505050509250600460008573ffffffffffffffffffffffffffffffffffffffff1673ffffffffffffffffffffffffffffffffffffffff1681526020019081526020016000206001018054600181600116156101000203166002900480601f016020809104026020016040519081016040528092919081815260200182805460018160011615610100020316600290048015610c505780601f10610c2557610100808354040283529160200191610c50565b820191906000526020600020905b815481529060010190602001808311610c3357829003601f168201915b50505050509150600460008573ffffffffffffffffffffffffffffffffffffffff1673ffffffffffffffffffffffffffffffffffffffff16815260200190815260200160002060020160019054906101000a900460ff1690508282829250925092509193909250565b606080600080600460008673ffffffffffffffffffffffffffffffffffffffff1673ffffffffffffffffffffffffffffffffffffffff1681526020019081526020016000206000018054600181600116156101000203166002900480601f016020809104026020016040519081016040528092919081815260200182805460018160011615610100020316600290048015610d955780601f10610d6a57610100808354040283529160200191610d95565b820191906000526020600020905b815481529060010190602001808311610d7857829003601f168201915b50505050509350600460008673ffffffffffffffffffffffffffffffffffffffff1673ffffffffffffffffffffffffffffffffffffffff1681526020019081526020016000206001018054600181600116156101000203166002900480601f016020809104026020016040519081016040528092919081815260200182805460018160011615610100020316600290048015610e725780601f10610e4757610100808354040283529160200191610e72565b820191906000526020600020905b815481529060010190602001808311610e5557829003601f168201915b5050505050925060006001811115610e8657fe5b600460008773ffffffffffffffffffffffffffffffffffffffff1673ffffffffffffffffffffffffffffffffffffffff16815260200190815260200160002060020160009054906101000a900460ff166001811115610ee157fe5b149150600460008673ffffffffffffffffffffffffffffffffffffffff1673ffffffffffffffffffffffffffffffffffffffff16815260200190815260200160002060020160019054906101000a900460ff1690508383838393509350935093509193509193565b6000809054906101000a900473ffffffffffffffffffffffffffffffffffffffff1681565b81600460008273ffffffffffffffffffffffffffffffffffffffff1673ffffffffffffffffffffffffffffffffffffffff16815260200190815260200160002060020160019054906101000a900460ff16610ffe576040517f08c379a0000000000000000000000000000000000000000000000000000000008152600401610ff5906127e8565b60405180910390fd5b604051806040016040528034815260200160001515815250600560008573ffffffffffffffffffffffffffffffffffffffff1673ffffffffffffffffffffffffffffffffffffffff168152602001908152602001600020836040516110639190612571565b90815260200160405180910390206000820151816000015560208201518160010160006101000a81548160ff0219169083151502179055509050507fb35695d61d4d082cc9167cfc545e04075885362274c7ab44e3603f1cd77c254a338484600560008873ffffffffffffffffffffffffffffffffffffffff1673ffffffffffffffffffffffffffffffffffffffff1681526020019081526020016000208660405161110f9190612571565b90815260200160405180910390206000015460405161113194939291906125a3565b60405180910390a1505050565b600080600181111561114c57fe5b600460003373ffffffffffffffffffffffffffffffffffffffff1673ffffffffffffffffffffffffffffffffffffffff16815260200190815260200160002060020160009054906101000a900460ff1660018111156111a757fe5b14806111ff57506000809054906101000a900473ffffffffffffffffffffffffffffffffffffffff1673ffffffffffffffffffffffffffffffffffffffff163373ffffffffffffffffffffffffffffffffffffffff16145b61123e576040517f08c379a0000000000000000000000000000000000000000000000000000000008152600401611235906127a8565b60405180910390fd5b60028490806001815401808255809150509060018203906000526020600020016000909192909190916101000a81548173ffffffffffffffffffffffffffffffffffffffff021916908373ffffffffffffffffffffffffffffffffffffffff1602179055505060405180608001604052808481526020018381526020016001808111156112c757fe5b815260200160011515815250600460008673ffffffffffffffffffffffffffffffffffffffff1673ffffffffffffffffffffffffffffffffffffffff168152602001908152602001600020600082015181600001908051906020019061132e929190611f6b565b50602082015181600101908051906020019061134b929190611f6b565b5060408201518160020160006101000a81548160ff0219169083600181111561137057fe5b021790555060608201518160020160016101000a81548160ff021916908315150217905550905050600190509392505050565b6000806000806002805490509050600060028054905011156113fb5760026000815481106113cd57fe5b9060005260206000200160009054906101000a900473ffffffffffffffffffffffffffffffffffffffff1693505b6001600280549050111561144557600260018154811061141757fe5b9060005260206000200160009054906101000a900473ffffffffffffffffffffffffffffffffffffffff1692505b60028080549050111561148d576002808154811061145f57fe5b9060005260206000200160009054906101000a900473ffffffffffffffffffffffffffffffffffffffff1691505b83838383935093509350935090919293565b600060018111156114ac57fe5b600460003373ffffffffffffffffffffffffffffffffffffffff1673ffffffffffffffffffffffffffffffffffffffff16815260200190815260200160002060020160009054906101000a900460ff16600181111561150757fe5b148061155f57506000809054906101000a900473ffffffffffffffffffffffffffffffffffffffff1673ffffffffffffffffffffffffffffffffffffffff163373ffffffffffffffffffffffffffffffffffffffff16145b61159e576040517f08c379a0000000000000000000000000000000000000000000000000000000008152600401611595906127a8565b60405180910390fd5b6001600560008373ffffffffffffffffffffffffffffffffffffffff1673ffffffffffffffffffffffffffffffffffffffff168152602001908152602001600020836040516115ed9190612571565b908152602001604051809103902060010160006101000a81548160ff0219169083151502179055505050565b6000600181111561162657fe5b600460003373ffffffffffffffffffffffffffffffffffffffff1673ffffffffffffffffffffffffffffffffffffffff16815260200190815260200160002060020160009054906101000a900460ff16600181111561168157fe5b14806116d957506000809054906101000a900473ffffffffffffffffffffffffffffffffffffffff1673ffffffffffffffffffffffffffffffffffffffff163373ffffffffffffffffffffffffffffffffffffffff16145b611718576040517f08c379a000000000000000000000000000000000000000000000000000000000815260040161170f906127a8565b60405180910390fd5b81816000600560008473ffffffffffffffffffffffffffffffffffffffff1673ffffffffffffffffffffffffffffffffffffffff168152602001908152602001600020826040516117699190612571565b908152602001604051809103902060000154116117bb576040517f08c379a00000000000000000000000000000000000000000000000000000000081526004016117b290612808565b60405180910390fd5b8373ffffffffffffffffffffffffffffffffffffffff166108fc600560008773ffffffffffffffffffffffffffffffffffffffff1673ffffffffffffffffffffffffffffffffffffffff168152602001908152602001600020856040516118229190612571565b9081526020016040518091039020600001549081150290604051600060405180830381858888f1935050505015801561185f573d6000803e3d6000fd5b506000600560008673ffffffffffffffffffffffffffffffffffffffff1673ffffffffffffffffffffffffffffffffffffffff168152602001908152602001600020846040516118af9190612571565b90815260200160405180910390206000015490506000600560008773ffffffffffffffffffffffffffffffffffffffff1673ffffffffffffffffffffffffffffffffffffffff168152602001908152602001600020856040516119129190612571565b9081526020016040518091039020600001819055507fa04a52971dad7a35fe69b1a735b8184efbe64ee80a0434568f3e824ee55469ba85858360405161195a939291906125ef565b60405180910390a15050505050565b6000600181111561197657fe5b600460003373ffffffffffffffffffffffffffffffffffffffff1673ffffffffffffffffffffffffffffffffffffffff16815260200190815260200160002060020160009054906101000a900460ff1660018111156119d157fe5b1480611a2957506000809054906101000a900473ffffffffffffffffffffffffffffffffffffffff1673ffffffffffffffffffffffffffffffffffffffff163373ffffffffffffffffffffffffffffffffffffffff16145b611a68576040517f08c379a0000000000000000000000000000000000000000000000000000000008152600401611a5f906127a8565b60405180910390fd5b600460008273ffffffffffffffffffffffffffffffffffffffff1673ffffffffffffffffffffffffffffffffffffffff16815260200190815260200160002060008082016000611ab89190611feb565b600182016000611ac89190611feb565b6002820160006101000a81549060ff02191690556002820160016101000a81549060ff0219169055505050565b6060806000806000600460008873ffffffffffffffffffffffffffffffffffffffff1673ffffffffffffffffffffffffffffffffffffffff1681526020019081526020016000206000018054600181600116156101000203166002900480601f016020809104026020016040519081016040528092919081815260200182805460018160011615610100020316600290048015611bd35780601f10611ba857610100808354040283529160200191611bd3565b820191906000526020600020905b815481529060010190602001808311611bb657829003601f168201915b50505050509450600460008873ffffffffffffffffffffffffffffffffffffffff1673ffffffffffffffffffffffffffffffffffffffff1681526020019081526020016000206001018054600181600116156101000203166002900480601f016020809104026020016040519081016040528092919081815260200182805460018160011615610100020316600290048015611cb05780601f10611c8557610100808354040283529160200191611cb0565b820191906000526020600020905b815481529060010190602001808311611c9357829003601f168201915b50505050509350600460008873ffffffffffffffffffffffffffffffffffffffff1673ffffffffffffffffffffffffffffffffffffffff16815260200190815260200160002060020160019054906101000a900460ff169250600560008873ffffffffffffffffffffffffffffffffffffffff1673ffffffffffffffffffffffffffffffffffffffff16815260200190815260200160002086604051611d569190612571565b9081526020016040518091039020600001549150600560008873ffffffffffffffffffffffffffffffffffffffff1673ffffffffffffffffffffffffffffffffffffffff16815260200190815260200160002086604051611db79190612571565b908152602001604051809103902060010160009054906101000a900460ff1690508484848484945094509450945094509295509295909350565b60006001811115611dfe57fe5b600460003373ffffffffffffffffffffffffffffffffffffffff1673ffffffffffffffffffffffffffffffffffffffff16815260200190815260200160002060020160009054906101000a900460ff166001811115611e5957fe5b1480611eb157506000809054906101000a900473ffffffffffffffffffffffffffffffffffffffff1673ffffffffffffffffffffffffffffffffffffffff163373ffffffffffffffffffffffffffffffffffffffff16145b611ef0576040517f08c379a0000000000000000000000000000000000000000000000000000000008152600401611ee7906127a8565b60405180910390fd5b6000600560008373ffffffffffffffffffffffffffffffffffffffff1673ffffffffffffffffffffffffffffffffffffffff16815260200190815260200160002083604051611f3f9190612571565b908152602001604051809103902060010160006101000a81548160ff0219169083151502179055505050565b828054600181600116156101000203166002900490600052602060002090601f016020900481019282601f10611fac57805160ff1916838001178555611fda565b82800160010185558215611fda579182015b82811115611fd9578251825591602001919060010190611fbe565b5b509050611fe79190612033565b5090565b50805460018160011615610100020316600290046000825580601f106120115750612030565b601f01602090049060005260206000209081019061202f9190612033565b5b50565b61205591905b80821115612051576000816000905550600101612039565b5090565b90565b600081359050612067816129e0565b92915050565b60008135905061207c816129f7565b92915050565b60008135905061209181612a0e565b92915050565b600082601f8301126120a857600080fd5b81356120bb6120b682612855565b612828565b915080825260208301602083018583830111156120d757600080fd5b6120e283828461298d565b50505092915050565b6000813590506120fa81612a25565b92915050565b60006020828403121561211257600080fd5b600061212084828501612058565b91505092915050565b6000806040838503121561213c57600080fd5b600061214a8582860161206d565b925050602083013567ffffffffffffffff81111561216757600080fd5b61217385828601612097565b9150509250929050565b6000806040838503121561219057600080fd5b600061219e85828601612058565b92505060206121af85828601612082565b9150509250929050565b600080604083850312156121cc57600080fd5b60006121da85828601612058565b925050602083013567ffffffffffffffff8111156121f757600080fd5b61220385828601612097565b9150509250929050565b60008060006060848603121561222257600080fd5b600061223086828701612058565b935050602084013567ffffffffffffffff81111561224d57600080fd5b61225986828701612097565b925050604084013567ffffffffffffffff81111561227657600080fd5b61228286828701612097565b9150509250925092565b6000806040838503121561229f57600080fd5b600083013567ffffffffffffffff8111156122b957600080fd5b6122c585828601612097565b92505060206122d685828601612058565b9150509250929050565b6000602082840312156122f257600080fd5b6000612300848285016120eb565b91505092915050565b60006123158383612429565b905092915050565b61232681612957565b82525050565b612335816128fd565b82525050565b600061234682612891565b61235081856128bf565b93508360208202850161236285612881565b8060005b8581101561239e578484038952815161237f8582612309565b945061238a836128b2565b925060208a01995050600181019050612366565b50829750879550505050505092915050565b6123b981612921565b82525050565b60006123ca826128a7565b6123d481856128e1565b93506123e481856020860161299c565b6123ed816129cf565b840191505092915050565b6000612403826128a7565b61240d81856128f2565b935061241d81856020860161299c565b80840191505092915050565b60006124348261289c565b61243e81856128d0565b935061244e81856020860161299c565b612457816129cf565b840191505092915050565b600061246f6019836128e1565b91507f4f6e6c792061646d696e732063616e2063616c6c2074686973000000000000006000830152602082019050919050565b60006124af6019836128e1565b91507f4f6e6c79206f776e6572732063616e2063616c6c2074686973000000000000006000830152602082019050919050565b60006124ef6013836128e1565b91507f4163636f756e742069732064697361626c6564000000000000000000000000006000830152602082019050919050565b600061252f6015836128e1565b91507f42616c616e6365206973206e6f7420656e6f75676800000000000000000000006000830152602082019050919050565b61256b8161294d565b82525050565b600061257d82846123f8565b915081905092915050565b600060208201905061259d600083018461232c565b92915050565b60006080820190506125b8600083018761231d565b6125c5602083018661232c565b81810360408301526125d781856123bf565b90506125e66060830184612562565b95945050505050565b6000606082019050612604600083018661231d565b818103602083015261261681856123bf565b90506126256040830184612562565b949350505050565b6000608082019050612642600083018761232c565b61264f602083018661232c565b61265c604083018561232c565b6126696060830184612562565b95945050505050565b6000602082019050818103600083015261268c818461233b565b905092915050565b60006020820190506126a960008301846123b0565b92915050565b600060608201905081810360008301526126c981866123bf565b905081810360208301526126dd81856123bf565b90506126ec60408301846123b0565b949350505050565b6000608082019050818103600083015261270e81876123bf565b9050818103602083015261272281866123bf565b905061273160408301856123b0565b61273e60608301846123b0565b95945050505050565b600060a082019050818103600083015261276181886123bf565b9050818103602083015261277581876123bf565b905061278460408301866123b0565b6127916060830185612562565b61279e60808301846123b0565b9695505050505050565b600060208201905081810360008301526127c181612462565b9050919050565b600060208201905081810360008301526127e1816124a2565b9050919050565b60006020820190508181036000830152612801816124e2565b9050919050565b6000602082019050818103600083015261282181612522565b9050919050565b6000604051905081810181811067ffffffffffffffff8211171561284b57600080fd5b8060405250919050565b600067ffffffffffffffff82111561286c57600080fd5b601f19601f8301169050602081019050919050565b6000819050602082019050919050565b600081519050919050565b600081519050919050565b600081519050919050565b6000602082019050919050565b600082825260208201905092915050565b600082825260208201905092915050565b600082825260208201905092915050565b600081905092915050565b60006129088261292d565b9050919050565b600061291a8261292d565b9050919050565b60008115159050919050565b600073ffffffffffffffffffffffffffffffffffffffff82169050919050565b6000819050919050565b600061296282612969565b9050919050565b60006129748261297b565b9050919050565b60006129868261292d565b9050919050565b82818337600083830152505050565b60005b838110156129ba57808201518184015260208101905061299f565b838111156129c9576000848401525b50505050565b6000601f19601f8301169050919050565b6129e9816128fd565b81146129f457600080fd5b50565b612a008161290f565b8114612a0b57600080fd5b50565b612a1781612921565b8114612a2257600080fd5b50565b612a2e8161294d565b8114612a3957600080fd5b5056fea365627a7a72315820b9ae33b9fcb5f685f81829a6a2927ae5559c1d07e32352764939fe8b12ec8a866c6578706572696d656e74616cf564736f6c63430005100040",
  "source": "// SPDX-License-Identifier: MIT\npragma solidity >=0.5.16 <0.9.0;\npragma experimental ABIEncoderV2;\n\n\ncontract FamilyTrust {\n  address public owner;\n  address[] public admins;\n  address[] public benefitors;\n  enum Role {\n    ADMIN,\n    USER\n  }\n  string[] bucketTypes;    \n  struct Bucket {\n    uint balance;\n    bool locked;\n  }\n  struct Account {\n    string firstName;\n    string lastName;\n    Role role;\n    bool enabled;\n  }\n\n  mapping(address => Account) accounts;\n  mapping(address => mapping(string => Bucket)) buckets;\n  constructor() public {\n    owner = msg.sender;\n    benefitors = new address[](0);\n    admins = new address[](0);\n    bucketTypes = [\n      'UNIVERSITY',\n      'ALLOWANCES',\n      'INHERITANCE'\n    ];\n  }\n\n  event LogLocked(address _address, string bucket);\n  event LogUnlocked(address _address, string bucket);\n  event LogFunded(address sender, address receiver, string bucket, uint newBalance);\n  event LogUnfunded(address sender, string bucket);\n  event LogFundsReleased(address to, string bucket, uint amount);\n  event LogAdminAdded(address sender, address admin);\n  event LogAdminRemoved(address sender, address admin);\n  event LogChildAdded(address sender, address child);\n  event LogChildRemoved(address sender, address child);\n\n  modifier onlyOwner() {\n    require(msg.sender == owner, \"Only owners can call this\");\n    _;\n  }\n\n  modifier onlyAdmins() {\n    require(accounts[msg.sender].role == Role.ADMIN || msg.sender == owner, \"Only admins can call this\");\n    _;\n  }\n\n  modifier onlyBenefitors() {\n    require(accounts[msg.sender].role == Role.USER, \"Only benefitors can call this\");\n    _;\n  }\n\n  modifier enoughFunds(address _address, string memory _bucket) {\n    require(buckets[_address][_bucket].balance > 0, \"Balance is not enough\");\n    _;\n  }\n\n  modifier accountEnabled(address _address) {\n    require(accounts[_address].enabled, \"Account is disabled\");\n    _;\n  }\n\n  function addFunds(address _benefitor, string memory _bucket) public payable accountEnabled(_benefitor) {\n    buckets[_benefitor][_bucket] = Bucket({\n      balance: msg.value,\n      locked: false\n    });\n    emit LogFunded(msg.sender, _benefitor, _bucket, buckets[_benefitor][_bucket].balance);\n  }\n\n  function releaseFunds(address payable _to, string memory _fromBucket) public onlyAdmins() enoughFunds(_to, _fromBucket) {\n    // emit LogFundsReleased(_to, _fromBucket, buckets[_to][_fromBucket].balance);\n    _to.transfer(buckets[_to][_fromBucket].balance);\n    uint oldBalance = buckets[_to][_fromBucket].balance;\n    buckets[_to][_fromBucket].balance = 0;\n    emit LogFundsReleased(_to, _fromBucket, oldBalance);\n  }\n\n  function lockFunds(string memory _bucket, address _benefitor) public onlyAdmins() {\n    buckets[_benefitor][_bucket].locked = true;\n  }\n\n  function unlockFunds(string memory _bucket, address _benefitor) public onlyAdmins {\n    buckets[_benefitor][_bucket].locked = false;\n  }\n\n  function addAdmin(address _admin, string memory _firstName, string memory _lastName) public onlyOwner() {\n    admins.push(_admin);\n    accounts[_admin] = Account({\n      firstName: _firstName,\n      lastName: _lastName,\n      role: Role.ADMIN,\n      enabled: true\n    });\n  }\n\n  function removeAdmin(address _admin) public onlyOwner() {    \n    accounts[_admin].enabled = false;\n  }\n\n  function addBenefitor(address _benefitor, string memory _firstName, string memory _lastName) public onlyAdmins returns(bool) {\n    benefitors.push(_benefitor);\n    accounts[_benefitor] = Account({\n      firstName: _firstName,\n      lastName: _lastName,\n      role: Role.USER,\n      enabled: true\n    });\n\n    return true;\n  }\n\n  function removeBenefitor(address _benefitor) public onlyAdmins {\n    delete accounts[_benefitor];\n  }\n\n  function toggleAccountAccess(address _address, bool hasAccess) public onlyOwner {\n    accounts[_address].enabled = hasAccess;\n  }\n\n  function getAccountInfo(address _address) public view returns(\n    string memory firstName,\n    string memory lastName,\n    bool isAdmin,\n    bool enabled\n    ) {\n    firstName = accounts[_address].firstName;\n    lastName = accounts[_address].lastName;\n    isAdmin = accounts[_address].role == Role.ADMIN;\n    enabled = accounts[_address].enabled;\n\n    return (\n      firstName,\n      lastName,\n      isAdmin,\n      enabled\n    );\n  }\n\n  function getBucketTypes() public view returns(string[] memory) {\n    return bucketTypes;\n  }\n\n  function getBucketInfo(address _address, string memory _bucket) public view returns(\n    string memory firstName,\n    string memory lastName,\n    bool enabled,\n    uint balance,\n    bool locked\n  ) {\n    firstName = accounts[_address].firstName;\n    lastName = accounts[_address].lastName;\n    enabled = accounts[_address].enabled;\n    balance = buckets[_address][_bucket].balance;\n    locked = buckets[_address][_bucket].locked;\n\n    return (\n      firstName,\n      lastName,\n      enabled,\n      balance,\n      locked\n    );\n  }\n\n  function getBenefitors() public view returns(\n    address benefitor1,\n    address benefitor2,\n    address benefitor3,\n    uint len) {\n    len = benefitors.length;\n    if (benefitors.length > 0) benefitor1 = benefitors[0];\n    if (benefitors.length > 1) benefitor2 = benefitors[1];\n    if (benefitors.length > 2) benefitor3 = benefitors[2];\n    return (\n      benefitor1,\n      benefitor2,\n      benefitor3,\n      len\n    );\n  }\n\n  function getAdmins() public view returns(\n    address admin1,\n    address admin2,\n    address admin3,\n    uint len) {\n    len = admins.length;\n    if (admins.length > 0) admin1 = admins[0];\n    if (admins.length > 1) admin2 = admins[1];\n    if (admins.length > 2) admin3 = admins[2];\n\n    return (\n      admin1,\n      admin2,\n      admin3,\n      len\n    );\n  }\n\n  function getAdminInfo(address _address) public view returns(\n    string memory firstName,\n    string memory lastName,\n    bool enabled\n  ) {\n    firstName = accounts[_address].firstName;\n    lastName = accounts[_address].lastName;\n    enabled = accounts[_address].enabled;\n\n    return (\n      firstName,\n      lastName,\n      enabled\n    );\n  }\n}\n",
  "sourcePath": "/Users/adilmezghouti/development/consensys-academy/blockchain-developer-bootcamp-final-project/contracts/FamilyTrust.sol",
  "compiler": {
    "name": "solc",
    "version": "0.5.16+commit.9c3226ce.Emscripten.clang"
  },
  "schemaVersion": "3.4.3",
  "updatedAt": "2021-11-28T03:28:07.780Z",
  "devdoc": {
    "methods": {}
  },
  "userdoc": {
    "methods": {}
  }
}