{
  "contractName": "FamilyTrust",
  "abi": [
    {
      "inputs": [],
      "payable": false,
      "stateMutability": "nonpayable",
      "type": "constructor"
    },
    {
      "anonymous": false,
      "inputs": [
        {
          "indexed": false,
          "internalType": "address",
          "name": "sender",
          "type": "address"
        },
        {
          "indexed": false,
          "internalType": "address",
          "name": "admin",
          "type": "address"
        }
      ],
      "name": "LogAdminAdded",
      "type": "event"
    },
    {
      "anonymous": false,
      "inputs": [
        {
          "indexed": false,
          "internalType": "address",
          "name": "sender",
          "type": "address"
        },
        {
          "indexed": false,
          "internalType": "address",
          "name": "admin",
          "type": "address"
        }
      ],
      "name": "LogAdminRemoved",
      "type": "event"
    },
    {
      "anonymous": false,
      "inputs": [
        {
          "indexed": false,
          "internalType": "address",
          "name": "sender",
          "type": "address"
        },
        {
          "indexed": false,
          "internalType": "address",
          "name": "child",
          "type": "address"
        }
      ],
      "name": "LogChildAdded",
      "type": "event"
    },
    {
      "anonymous": false,
      "inputs": [
        {
          "indexed": false,
          "internalType": "address",
          "name": "sender",
          "type": "address"
        },
        {
          "indexed": false,
          "internalType": "address",
          "name": "child",
          "type": "address"
        }
      ],
      "name": "LogChildRemoved",
      "type": "event"
    },
    {
      "anonymous": false,
      "inputs": [
        {
          "indexed": false,
          "internalType": "address",
          "name": "sender",
          "type": "address"
        },
        {
          "indexed": false,
          "internalType": "address",
          "name": "receiver",
          "type": "address"
        },
        {
          "indexed": false,
          "internalType": "string",
          "name": "bucket",
          "type": "string"
        },
        {
          "indexed": false,
          "internalType": "uint256",
          "name": "newBalance",
          "type": "uint256"
        }
      ],
      "name": "LogFunded",
      "type": "event"
    },
    {
      "anonymous": false,
      "inputs": [
        {
          "indexed": false,
          "internalType": "address",
          "name": "to",
          "type": "address"
        },
        {
          "indexed": false,
          "internalType": "string",
          "name": "bucket",
          "type": "string"
        },
        {
          "indexed": false,
          "internalType": "uint256",
          "name": "amount",
          "type": "uint256"
        }
      ],
      "name": "LogFundsReleased",
      "type": "event"
    },
    {
      "anonymous": false,
      "inputs": [
        {
          "indexed": false,
          "internalType": "address",
          "name": "_address",
          "type": "address"
        },
        {
          "indexed": false,
          "internalType": "string",
          "name": "bucket",
          "type": "string"
        }
      ],
      "name": "LogLocked",
      "type": "event"
    },
    {
      "anonymous": false,
      "inputs": [
        {
          "indexed": false,
          "internalType": "address",
          "name": "sender",
          "type": "address"
        },
        {
          "indexed": false,
          "internalType": "string",
          "name": "bucket",
          "type": "string"
        }
      ],
      "name": "LogUnfunded",
      "type": "event"
    },
    {
      "anonymous": false,
      "inputs": [
        {
          "indexed": false,
          "internalType": "address",
          "name": "_address",
          "type": "address"
        },
        {
          "indexed": false,
          "internalType": "string",
          "name": "bucket",
          "type": "string"
        }
      ],
      "name": "LogUnlocked",
      "type": "event"
    },
    {
      "constant": true,
      "inputs": [
        {
          "internalType": "uint256",
          "name": "",
          "type": "uint256"
        }
      ],
      "name": "admins",
      "outputs": [
        {
          "internalType": "address",
          "name": "",
          "type": "address"
        }
      ],
      "payable": false,
      "stateMutability": "view",
      "type": "function"
    },
    {
      "constant": true,
      "inputs": [
        {
          "internalType": "uint256",
          "name": "",
          "type": "uint256"
        }
      ],
      "name": "benefitors",
      "outputs": [
        {
          "internalType": "address",
          "name": "",
          "type": "address"
        }
      ],
      "payable": false,
      "stateMutability": "view",
      "type": "function"
    },
    {
      "constant": true,
      "inputs": [],
      "name": "owner",
      "outputs": [
        {
          "internalType": "address",
          "name": "",
          "type": "address"
        }
      ],
      "payable": false,
      "stateMutability": "view",
      "type": "function"
    },
    {
      "constant": false,
      "inputs": [
        {
          "internalType": "address",
          "name": "_benefitor",
          "type": "address"
        },
        {
          "internalType": "string",
          "name": "_bucket",
          "type": "string"
        }
      ],
      "name": "addFunds",
      "outputs": [],
      "payable": true,
      "stateMutability": "payable",
      "type": "function"
    },
    {
      "constant": false,
      "inputs": [
        {
          "internalType": "address payable",
          "name": "_to",
          "type": "address"
        },
        {
          "internalType": "string",
          "name": "_fromBucket",
          "type": "string"
        }
      ],
      "name": "releaseFunds",
      "outputs": [],
      "payable": false,
      "stateMutability": "nonpayable",
      "type": "function"
    },
    {
      "constant": false,
      "inputs": [
        {
          "internalType": "string",
          "name": "_bucket",
          "type": "string"
        },
        {
          "internalType": "address",
          "name": "_benefitor",
          "type": "address"
        }
      ],
      "name": "lockFunds",
      "outputs": [],
      "payable": false,
      "stateMutability": "nonpayable",
      "type": "function"
    },
    {
      "constant": false,
      "inputs": [
        {
          "internalType": "string",
          "name": "_bucket",
          "type": "string"
        },
        {
          "internalType": "address",
          "name": "_benefitor",
          "type": "address"
        }
      ],
      "name": "unlockFunds",
      "outputs": [],
      "payable": false,
      "stateMutability": "nonpayable",
      "type": "function"
    },
    {
      "constant": false,
      "inputs": [
        {
          "internalType": "address",
          "name": "_admin",
          "type": "address"
        },
        {
          "internalType": "string",
          "name": "_firstName",
          "type": "string"
        },
        {
          "internalType": "string",
          "name": "_lastName",
          "type": "string"
        }
      ],
      "name": "addAdmin",
      "outputs": [],
      "payable": false,
      "stateMutability": "nonpayable",
      "type": "function"
    },
    {
      "constant": false,
      "inputs": [
        {
          "internalType": "address",
          "name": "_admin",
          "type": "address"
        }
      ],
      "name": "removeAdmin",
      "outputs": [],
      "payable": false,
      "stateMutability": "nonpayable",
      "type": "function"
    },
    {
      "constant": false,
      "inputs": [
        {
          "internalType": "address",
          "name": "_benefitor",
          "type": "address"
        },
        {
          "internalType": "string",
          "name": "_firstName",
          "type": "string"
        },
        {
          "internalType": "string",
          "name": "_lastName",
          "type": "string"
        }
      ],
      "name": "addBenefitor",
      "outputs": [
        {
          "internalType": "bool",
          "name": "",
          "type": "bool"
        }
      ],
      "payable": false,
      "stateMutability": "nonpayable",
      "type": "function"
    },
    {
      "constant": false,
      "inputs": [
        {
          "internalType": "address",
          "name": "_benefitor",
          "type": "address"
        }
      ],
      "name": "removeBenefitor",
      "outputs": [],
      "payable": false,
      "stateMutability": "nonpayable",
      "type": "function"
    },
    {
      "constant": true,
      "inputs": [
        {
          "internalType": "address",
          "name": "_address",
          "type": "address"
        }
      ],
      "name": "getAccountInfo",
      "outputs": [
        {
          "internalType": "string",
          "name": "firstName",
          "type": "string"
        },
        {
          "internalType": "string",
          "name": "lastName",
          "type": "string"
        },
        {
          "internalType": "bool",
          "name": "isAdmin",
          "type": "bool"
        },
        {
          "internalType": "bool",
          "name": "enabled",
          "type": "bool"
        }
      ],
      "payable": false,
      "stateMutability": "view",
      "type": "function"
    },
    {
      "constant": true,
      "inputs": [],
      "name": "getBucketTypes",
      "outputs": [
        {
          "internalType": "string[]",
          "name": "",
          "type": "string[]"
        }
      ],
      "payable": false,
      "stateMutability": "view",
      "type": "function"
    },
    {
      "constant": true,
      "inputs": [
        {
          "internalType": "address",
          "name": "_address",
          "type": "address"
        },
        {
          "internalType": "string",
          "name": "_bucket",
          "type": "string"
        }
      ],
      "name": "getBucketInfo",
      "outputs": [
        {
          "internalType": "string",
          "name": "firstName",
          "type": "string"
        },
        {
          "internalType": "string",
          "name": "lastName",
          "type": "string"
        },
        {
          "internalType": "bool",
          "name": "enabled",
          "type": "bool"
        },
        {
          "internalType": "uint256",
          "name": "balance",
          "type": "uint256"
        },
        {
          "internalType": "bool",
          "name": "locked",
          "type": "bool"
        }
      ],
      "payable": false,
      "stateMutability": "view",
      "type": "function"
    },
    {
      "constant": true,
      "inputs": [],
      "name": "getBenefitors",
      "outputs": [
        {
          "internalType": "address",
          "name": "benefitor1",
          "type": "address"
        },
        {
          "internalType": "address",
          "name": "benefitor2",
          "type": "address"
        },
        {
          "internalType": "address",
          "name": "benefitor3",
          "type": "address"
        },
        {
          "internalType": "uint256",
          "name": "len",
          "type": "uint256"
        }
      ],
      "payable": false,
      "stateMutability": "view",
      "type": "function"
    }
  ],
  "bytecode": "0x60806040523480156200001157600080fd5b50336000806101000a81548173ffffffffffffffffffffffffffffffffffffffff021916908373ffffffffffffffffffffffffffffffffffffffff1602179055506000604051908082528060200260200182016040528015620000835781602001602082028038833980820191505090505b50600290805190602001906200009b929190620001b9565b506000604051908082528060200260200182016040528015620000cd5781602001602082028038833980820191505090505b5060019080519060200190620000e5929190620001b9565b5060405180606001604052806040518060400160405280600a81526020017f554e49564552534954590000000000000000000000000000000000000000000081525081526020016040518060400160405280600a81526020017f414c4c4f57414e4345530000000000000000000000000000000000000000000081525081526020016040518060400160405280600b81526020017f494e4845524954414e43450000000000000000000000000000000000000000008152508152506003906003620001b292919062000248565b5062000421565b82805482825590600052602060002090810192821562000235579160200282015b82811115620002345782518260006101000a81548173ffffffffffffffffffffffffffffffffffffffff021916908373ffffffffffffffffffffffffffffffffffffffff16021790555091602001919060010190620001da565b5b509050620002449190620002af565b5090565b8280548282559060005260206000209081019282156200029c579160200282015b828111156200029b5782518290805190602001906200028a929190620002f5565b509160200191906001019062000269565b5b509050620002ab91906200037c565b5090565b620002f291905b80821115620002ee57600081816101000a81549073ffffffffffffffffffffffffffffffffffffffff021916905550600101620002b6565b5090565b90565b828054600181600116156101000203166002900490600052602060002090601f016020900481019282601f106200033857805160ff191683800117855562000369565b8280016001018555821562000369579182015b82811115620003685782518255916020019190600101906200034b565b5b509050620003789190620003ad565b5090565b620003aa91905b80821115620003a657600081816200039c9190620003d5565b5060010162000383565b5090565b90565b620003d291905b80821115620003ce576000816000905550600101620003b4565b5090565b90565b50805460018160011615610100020316600290046000825580601f10620003fd57506200041e565b601f0160209004906000526020600020908101906200041d9190620003ad565b5b50565b6124a880620004316000396000f3fe6080604052600436106100e85760003560e01c806395d97e221161008a578063c6d8046b11610059578063c6d8046b146102ff578063c76ce81614610328578063cc64318314610351578063e854cdca14610392576100e8565b806395d97e221461024f578063a516259c1461026b578063b246c6dd146102a8578063b5000acf146102d6576100e8565b806353f24d0b116100c657806353f24d0b146101905780635babf5ef146101bb5780637b510fe8146101e45780638da5cb5b14610224576100e8565b8063120662be146100ed57806314bfd6d01461012a5780631785f53c14610167575b600080fd5b3480156100f957600080fd5b50610114600480360361010f9190810190611dc5565b6103bb565b604051610121919061202d565b60405180910390f35b34801561013657600080fd5b50610151600480360361014c9190810190611dc5565b6103f7565b60405161015e919061202d565b60405180910390f35b34801561017357600080fd5b5061018e60048036036101899190810190611c21565b610433565b005b34801561019c57600080fd5b506101a5610520565b6040516101b29190612117565b60405180910390f35b3480156101c757600080fd5b506101e260048036036101dd9190810190611cf2565b610609565b005b3480156101f057600080fd5b5061020b60048036036102069190810190611c21565b6107f8565b60405161021b9493929190612154565b60405180910390f35b34801561023057600080fd5b50610239610a88565b604051610246919061202d565b60405180910390f35b61026960048036036102649190810190611c9e565b610aad565b005b34801561027757600080fd5b50610292600480360361028d9190810190611cf2565b610ceb565b60405161029f9190612139565b60405180910390f35b3480156102b457600080fd5b506102bd610f50565b6040516102cd94939291906120d2565b60405180910390f35b3480156102e257600080fd5b506102fd60048036036102f89190810190611d71565b61104c565b005b34801561030b57600080fd5b5061032660048036036103219190810190611c4a565b6111c6565b005b34801561033457600080fd5b5061034f600480360361034a9190810190611c21565b611516565b005b34801561035d57600080fd5b5061037860048036036103739190810190611c9e565b611673565b6040516103899594939291906121a7565b60405180910390f35b34801561039e57600080fd5b506103b960048036036103b49190810190611d71565b61196f565b005b600281815481106103c857fe5b906000526020600020016000915054906101000a900473ffffffffffffffffffffffffffffffffffffffff1681565b6001818154811061040457fe5b906000526020600020016000915054906101000a900473ffffffffffffffffffffffffffffffffffffffff1681565b6000809054906101000a900473ffffffffffffffffffffffffffffffffffffffff1673ffffffffffffffffffffffffffffffffffffffff163373ffffffffffffffffffffffffffffffffffffffff16146104c2576040517f08c379a00000000000000000000000000000000000000000000000000000000081526004016104b990612228565b60405180910390fd5b6000600460008373ffffffffffffffffffffffffffffffffffffffff1673ffffffffffffffffffffffffffffffffffffffff16815260200190815260200160002060020160016101000a81548160ff02191690831515021790555050565b60606003805480602002602001604051908101604052809291908181526020016000905b82821015610600578382906000526020600020018054600181600116156101000203166002900480601f0160208091040260200160405190810160405280929190818152602001828054600181600116156101000203166002900480156105ec5780601f106105c1576101008083540402835291602001916105ec565b820191906000526020600020905b8154815290600101906020018083116105cf57829003601f168201915b505050505081526020019060010190610544565b50505050905090565b6000809054906101000a900473ffffffffffffffffffffffffffffffffffffffff1673ffffffffffffffffffffffffffffffffffffffff163373ffffffffffffffffffffffffffffffffffffffff1614610698576040517f08c379a000000000000000000000000000000000000000000000000000000000815260040161068f90612228565b60405180910390fd5b60018390806001815401808255809150509060018203906000526020600020016000909192909190916101000a81548173ffffffffffffffffffffffffffffffffffffffff021916908373ffffffffffffffffffffffffffffffffffffffff1602179055505060405180608001604052808381526020018281526020016000600181111561072257fe5b815260200160011515815250600460008573ffffffffffffffffffffffffffffffffffffffff1673ffffffffffffffffffffffffffffffffffffffff1681526020019081526020016000206000820151816000019080519060200190610789929190611ae9565b5060208201518160010190805190602001906107a6929190611ae9565b5060408201518160020160006101000a81548160ff021916908360018111156107cb57fe5b021790555060608201518160020160016101000a81548160ff021916908315150217905550905050505050565b606080600080600460008673ffffffffffffffffffffffffffffffffffffffff1673ffffffffffffffffffffffffffffffffffffffff1681526020019081526020016000206000018054600181600116156101000203166002900480601f0160208091040260200160405190810160405280929190818152602001828054600181600116156101000203166002900480156108d45780601f106108a9576101008083540402835291602001916108d4565b820191906000526020600020905b8154815290600101906020018083116108b757829003601f168201915b50505050509350600460008673ffffffffffffffffffffffffffffffffffffffff1673ffffffffffffffffffffffffffffffffffffffff1681526020019081526020016000206001018054600181600116156101000203166002900480601f0160208091040260200160405190810160405280929190818152602001828054600181600116156101000203166002900480156109b15780601f10610986576101008083540402835291602001916109b1565b820191906000526020600020905b81548152906001019060200180831161099457829003601f168201915b50505050509250600060018111156109c557fe5b600460008773ffffffffffffffffffffffffffffffffffffffff1673ffffffffffffffffffffffffffffffffffffffff16815260200190815260200160002060020160009054906101000a900460ff166001811115610a2057fe5b149150600460008673ffffffffffffffffffffffffffffffffffffffff1673ffffffffffffffffffffffffffffffffffffffff16815260200190815260200160002060020160019054906101000a900460ff1690508383838393509350935093509193509193565b6000809054906101000a900473ffffffffffffffffffffffffffffffffffffffff1681565b60006001811115610aba57fe5b600460003373ffffffffffffffffffffffffffffffffffffffff1673ffffffffffffffffffffffffffffffffffffffff16815260200190815260200160002060020160009054906101000a900460ff166001811115610b1557fe5b1480610b6d57506000809054906101000a900473ffffffffffffffffffffffffffffffffffffffff1673ffffffffffffffffffffffffffffffffffffffff163373ffffffffffffffffffffffffffffffffffffffff16145b610bac576040517f08c379a0000000000000000000000000000000000000000000000000000000008152600401610ba390612208565b60405180910390fd5b604051806040016040528034815260200160001515815250600560008473ffffffffffffffffffffffffffffffffffffffff1673ffffffffffffffffffffffffffffffffffffffff16815260200190815260200160002082604051610c119190612016565b90815260200160405180910390206000820151816000015560208201518160010160006101000a81548160ff0219169083151502179055509050507fb35695d61d4d082cc9167cfc545e04075885362274c7ab44e3603f1cd77c254a338383600560008773ffffffffffffffffffffffffffffffffffffffff1673ffffffffffffffffffffffffffffffffffffffff16815260200190815260200160002085604051610cbd9190612016565b908152602001604051809103902060000154604051610cdf9493929190612048565b60405180910390a15050565b6000806001811115610cf957fe5b600460003373ffffffffffffffffffffffffffffffffffffffff1673ffffffffffffffffffffffffffffffffffffffff16815260200190815260200160002060020160009054906101000a900460ff166001811115610d5457fe5b1480610dac57506000809054906101000a900473ffffffffffffffffffffffffffffffffffffffff1673ffffffffffffffffffffffffffffffffffffffff163373ffffffffffffffffffffffffffffffffffffffff16145b610deb576040517f08c379a0000000000000000000000000000000000000000000000000000000008152600401610de290612208565b60405180910390fd5b60028490806001815401808255809150509060018203906000526020600020016000909192909190916101000a81548173ffffffffffffffffffffffffffffffffffffffff021916908373ffffffffffffffffffffffffffffffffffffffff160217905550506040518060800160405280848152602001838152602001600180811115610e7457fe5b815260200160011515815250600460008673ffffffffffffffffffffffffffffffffffffffff1673ffffffffffffffffffffffffffffffffffffffff1681526020019081526020016000206000820151816000019080519060200190610edb929190611ae9565b506020820151816001019080519060200190610ef8929190611ae9565b5060408201518160020160006101000a81548160ff02191690836001811115610f1d57fe5b021790555060608201518160020160016101000a81548160ff021916908315150217905550905050600190509392505050565b600080600080600280549050905060006002805490501115610fa8576002600081548110610f7a57fe5b9060005260206000200160009054906101000a900473ffffffffffffffffffffffffffffffffffffffff1693505b60016002805490501115610ff2576002600181548110610fc457fe5b9060005260206000200160009054906101000a900473ffffffffffffffffffffffffffffffffffffffff1692505b60028080549050111561103a576002808154811061100c57fe5b9060005260206000200160009054906101000a900473ffffffffffffffffffffffffffffffffffffffff1691505b83838383935093509350935090919293565b6000600181111561105957fe5b600460003373ffffffffffffffffffffffffffffffffffffffff1673ffffffffffffffffffffffffffffffffffffffff16815260200190815260200160002060020160009054906101000a900460ff1660018111156110b457fe5b148061110c57506000809054906101000a900473ffffffffffffffffffffffffffffffffffffffff1673ffffffffffffffffffffffffffffffffffffffff163373ffffffffffffffffffffffffffffffffffffffff16145b61114b576040517f08c379a000000000000000000000000000000000000000000000000000000000815260040161114290612208565b60405180910390fd5b6001600560008373ffffffffffffffffffffffffffffffffffffffff1673ffffffffffffffffffffffffffffffffffffffff1681526020019081526020016000208360405161119a9190612016565b908152602001604051809103902060010160006101000a81548160ff0219169083151502179055505050565b600060018111156111d357fe5b600460003373ffffffffffffffffffffffffffffffffffffffff1673ffffffffffffffffffffffffffffffffffffffff16815260200190815260200160002060020160009054906101000a900460ff16600181111561122e57fe5b148061128657506000809054906101000a900473ffffffffffffffffffffffffffffffffffffffff1673ffffffffffffffffffffffffffffffffffffffff163373ffffffffffffffffffffffffffffffffffffffff16145b6112c5576040517f08c379a00000000000000000000000000000000000000000000000000000000081526004016112bc90612208565b60405180910390fd5b81816000600560008473ffffffffffffffffffffffffffffffffffffffff1673ffffffffffffffffffffffffffffffffffffffff168152602001908152602001600020826040516113169190612016565b90815260200160405180910390206000015411611368576040517f08c379a000000000000000000000000000000000000000000000000000000000815260040161135f90612248565b60405180910390fd5b8373ffffffffffffffffffffffffffffffffffffffff166108fc600560008773ffffffffffffffffffffffffffffffffffffffff1673ffffffffffffffffffffffffffffffffffffffff168152602001908152602001600020856040516113cf9190612016565b9081526020016040518091039020600001549081150290604051600060405180830381858888f1935050505015801561140c573d6000803e3d6000fd5b506000600560008673ffffffffffffffffffffffffffffffffffffffff1673ffffffffffffffffffffffffffffffffffffffff1681526020019081526020016000208460405161145c9190612016565b90815260200160405180910390206000015490506000600560008773ffffffffffffffffffffffffffffffffffffffff1673ffffffffffffffffffffffffffffffffffffffff168152602001908152602001600020856040516114bf9190612016565b9081526020016040518091039020600001819055507fa04a52971dad7a35fe69b1a735b8184efbe64ee80a0434568f3e824ee55469ba85858360405161150793929190612094565b60405180910390a15050505050565b6000600181111561152357fe5b600460003373ffffffffffffffffffffffffffffffffffffffff1673ffffffffffffffffffffffffffffffffffffffff16815260200190815260200160002060020160009054906101000a900460ff16600181111561157e57fe5b14806115d657506000809054906101000a900473ffffffffffffffffffffffffffffffffffffffff1673ffffffffffffffffffffffffffffffffffffffff163373ffffffffffffffffffffffffffffffffffffffff16145b611615576040517f08c379a000000000000000000000000000000000000000000000000000000000815260040161160c90612208565b60405180910390fd5b6000600460008373ffffffffffffffffffffffffffffffffffffffff1673ffffffffffffffffffffffffffffffffffffffff16815260200190815260200160002060020160016101000a81548160ff02191690831515021790555050565b6060806000806000600460008873ffffffffffffffffffffffffffffffffffffffff1673ffffffffffffffffffffffffffffffffffffffff1681526020019081526020016000206000018054600181600116156101000203166002900480601f0160208091040260200160405190810160405280929190818152602001828054600181600116156101000203166002900480156117515780601f1061172657610100808354040283529160200191611751565b820191906000526020600020905b81548152906001019060200180831161173457829003601f168201915b50505050509450600460008873ffffffffffffffffffffffffffffffffffffffff1673ffffffffffffffffffffffffffffffffffffffff1681526020019081526020016000206001018054600181600116156101000203166002900480601f01602080910402602001604051908101604052809291908181526020018280546001816001161561010002031660029004801561182e5780601f106118035761010080835404028352916020019161182e565b820191906000526020600020905b81548152906001019060200180831161181157829003601f168201915b50505050509350600460008873ffffffffffffffffffffffffffffffffffffffff1673ffffffffffffffffffffffffffffffffffffffff16815260200190815260200160002060020160019054906101000a900460ff169250600560008873ffffffffffffffffffffffffffffffffffffffff1673ffffffffffffffffffffffffffffffffffffffff168152602001908152602001600020866040516118d49190612016565b9081526020016040518091039020600001549150600560008873ffffffffffffffffffffffffffffffffffffffff1673ffffffffffffffffffffffffffffffffffffffff168152602001908152602001600020866040516119359190612016565b908152602001604051809103902060010160009054906101000a900460ff1690508484848484945094509450945094509295509295909350565b6000600181111561197c57fe5b600460003373ffffffffffffffffffffffffffffffffffffffff1673ffffffffffffffffffffffffffffffffffffffff16815260200190815260200160002060020160009054906101000a900460ff1660018111156119d757fe5b1480611a2f57506000809054906101000a900473ffffffffffffffffffffffffffffffffffffffff1673ffffffffffffffffffffffffffffffffffffffff163373ffffffffffffffffffffffffffffffffffffffff16145b611a6e576040517f08c379a0000000000000000000000000000000000000000000000000000000008152600401611a6590612208565b60405180910390fd5b6000600560008373ffffffffffffffffffffffffffffffffffffffff1673ffffffffffffffffffffffffffffffffffffffff16815260200190815260200160002083604051611abd9190612016565b908152602001604051809103902060010160006101000a81548160ff0219169083151502179055505050565b828054600181600116156101000203166002900490600052602060002090601f016020900481019282601f10611b2a57805160ff1916838001178555611b58565b82800160010185558215611b58579182015b82811115611b57578251825591602001919060010190611b3c565b5b509050611b659190611b69565b5090565b611b8b91905b80821115611b87576000816000905550600101611b6f565b5090565b90565b600081359050611b9d81612420565b92915050565b600081359050611bb281612437565b92915050565b600082601f830112611bc957600080fd5b8135611bdc611bd782612295565b612268565b91508082526020830160208301858383011115611bf857600080fd5b611c038382846123cd565b50505092915050565b600081359050611c1b8161244e565b92915050565b600060208284031215611c3357600080fd5b6000611c4184828501611b8e565b91505092915050565b60008060408385031215611c5d57600080fd5b6000611c6b85828601611ba3565b925050602083013567ffffffffffffffff811115611c8857600080fd5b611c9485828601611bb8565b9150509250929050565b60008060408385031215611cb157600080fd5b6000611cbf85828601611b8e565b925050602083013567ffffffffffffffff811115611cdc57600080fd5b611ce885828601611bb8565b9150509250929050565b600080600060608486031215611d0757600080fd5b6000611d1586828701611b8e565b935050602084013567ffffffffffffffff811115611d3257600080fd5b611d3e86828701611bb8565b925050604084013567ffffffffffffffff811115611d5b57600080fd5b611d6786828701611bb8565b9150509250925092565b60008060408385031215611d8457600080fd5b600083013567ffffffffffffffff811115611d9e57600080fd5b611daa85828601611bb8565b9250506020611dbb85828601611b8e565b9150509250929050565b600060208284031215611dd757600080fd5b6000611de584828501611c0c565b91505092915050565b6000611dfa8383611f0e565b905092915050565b611e0b81612397565b82525050565b611e1a8161233d565b82525050565b6000611e2b826122d1565b611e3581856122ff565b935083602082028501611e47856122c1565b8060005b85811015611e835784840389528151611e648582611dee565b9450611e6f836122f2565b925060208a01995050600181019050611e4b565b50829750879550505050505092915050565b611e9e81612361565b82525050565b6000611eaf826122e7565b611eb98185612321565b9350611ec98185602086016123dc565b611ed28161240f565b840191505092915050565b6000611ee8826122e7565b611ef28185612332565b9350611f028185602086016123dc565b80840191505092915050565b6000611f19826122dc565b611f238185612310565b9350611f338185602086016123dc565b611f3c8161240f565b840191505092915050565b6000611f54601983612321565b91507f4f6e6c792061646d696e732063616e2063616c6c2074686973000000000000006000830152602082019050919050565b6000611f94601983612321565b91507f4f6e6c79206f776e6572732063616e2063616c6c2074686973000000000000006000830152602082019050919050565b6000611fd4601583612321565b91507f42616c616e6365206973206e6f7420656e6f75676800000000000000000000006000830152602082019050919050565b6120108161238d565b82525050565b60006120228284611edd565b915081905092915050565b60006020820190506120426000830184611e11565b92915050565b600060808201905061205d6000830187611e02565b61206a6020830186611e11565b818103604083015261207c8185611ea4565b905061208b6060830184612007565b95945050505050565b60006060820190506120a96000830186611e02565b81810360208301526120bb8185611ea4565b90506120ca6040830184612007565b949350505050565b60006080820190506120e76000830187611e11565b6120f46020830186611e11565b6121016040830185611e11565b61210e6060830184612007565b95945050505050565b600060208201905081810360008301526121318184611e20565b905092915050565b600060208201905061214e6000830184611e95565b92915050565b6000608082019050818103600083015261216e8187611ea4565b905081810360208301526121828186611ea4565b90506121916040830185611e95565b61219e6060830184611e95565b95945050505050565b600060a08201905081810360008301526121c18188611ea4565b905081810360208301526121d58187611ea4565b90506121e46040830186611e95565b6121f16060830185612007565b6121fe6080830184611e95565b9695505050505050565b6000602082019050818103600083015261222181611f47565b9050919050565b6000602082019050818103600083015261224181611f87565b9050919050565b6000602082019050818103600083015261226181611fc7565b9050919050565b6000604051905081810181811067ffffffffffffffff8211171561228b57600080fd5b8060405250919050565b600067ffffffffffffffff8211156122ac57600080fd5b601f19601f8301169050602081019050919050565b6000819050602082019050919050565b600081519050919050565b600081519050919050565b600081519050919050565b6000602082019050919050565b600082825260208201905092915050565b600082825260208201905092915050565b600082825260208201905092915050565b600081905092915050565b60006123488261236d565b9050919050565b600061235a8261236d565b9050919050565b60008115159050919050565b600073ffffffffffffffffffffffffffffffffffffffff82169050919050565b6000819050919050565b60006123a2826123a9565b9050919050565b60006123b4826123bb565b9050919050565b60006123c68261236d565b9050919050565b82818337600083830152505050565b60005b838110156123fa5780820151818401526020810190506123df565b83811115612409576000848401525b50505050565b6000601f19601f8301169050919050565b6124298161233d565b811461243457600080fd5b50565b6124408161234f565b811461244b57600080fd5b50565b6124578161238d565b811461246257600080fd5b5056fea365627a7a72315820440c597972bbc38949dfd53f020c20937e8c1f975b63c9b41625cf04e7424ec66c6578706572696d656e74616cf564736f6c63430005100040",
  "source": "// SPDX-License-Identifier: MIT\npragma solidity >=0.5.16 <0.9.0;\npragma experimental ABIEncoderV2;\n\n\ncontract FamilyTrust {\n  address public owner;\n  address[] public admins;\n  address[] public benefitors;\n  enum Role {\n    ADMIN,\n    USER\n  }\n  string[] bucketTypes;    \n  struct Bucket {\n    uint balance;\n    bool locked;\n  }\n  struct Account {\n    string firstName;\n    string lastName;\n    Role role;\n    bool enabled;\n  }\n\n  mapping(address => Account) accounts;\n  mapping(address => mapping(string => Bucket)) buckets;\n  constructor() public {\n    owner = msg.sender;\n    benefitors = new address[](0);\n    admins = new address[](0);\n    bucketTypes = [\n      'UNIVERSITY',\n      'ALLOWANCES',\n      'INHERITANCE'\n    ];\n  }\n\n  event LogLocked(address _address, string bucket);\n  event LogUnlocked(address _address, string bucket);\n  event LogFunded(address sender, address receiver, string bucket, uint newBalance);\n  event LogUnfunded(address sender, string bucket);\n  event LogFundsReleased(address to, string bucket, uint amount);\n  event LogAdminAdded(address sender, address admin);\n  event LogAdminRemoved(address sender, address admin);\n  event LogChildAdded(address sender, address child);\n  event LogChildRemoved(address sender, address child);\n\n  modifier onlyOwner() {\n    require(msg.sender == owner, \"Only owners can call this\");\n    _;\n  }\n\n  modifier onlyAdmins() {\n    require(accounts[msg.sender].role == Role.ADMIN || msg.sender == owner, \"Only admins can call this\");\n    _;\n  }\n\n  modifier onlyBenefitors() {\n    require(accounts[msg.sender].role == Role.USER, \"Only benefitors can call this\");\n    _;\n  }\n\n  modifier enoughFunds(address _address, string memory _bucket) {\n    require(buckets[_address][_bucket].balance > 0, \"Balance is not enough\");\n    _;\n  }\n\n  function addFunds(address _benefitor, string memory _bucket) public payable onlyAdmins() {\n    buckets[_benefitor][_bucket] = Bucket({\n      balance: msg.value,\n      locked: false\n    });\n    emit LogFunded(msg.sender, _benefitor, _bucket, buckets[_benefitor][_bucket].balance);\n  }\n\n  function releaseFunds(address payable _to, string memory _fromBucket) public onlyAdmins() enoughFunds(_to, _fromBucket) {\n    // emit LogFundsReleased(_to, _fromBucket, buckets[_to][_fromBucket].balance);\n    _to.transfer(buckets[_to][_fromBucket].balance);\n    uint oldBalance = buckets[_to][_fromBucket].balance;\n    buckets[_to][_fromBucket].balance = 0;\n    emit LogFundsReleased(_to, _fromBucket, oldBalance);\n  }\n\n  function lockFunds(string memory _bucket, address _benefitor) public onlyAdmins() {\n    buckets[_benefitor][_bucket].locked = true;\n  }\n\n  function unlockFunds(string memory _bucket, address _benefitor) public onlyAdmins {\n    buckets[_benefitor][_bucket].locked = false;\n  }\n\n  function addAdmin(address _admin, string memory _firstName, string memory _lastName) public onlyOwner() {\n    admins.push(_admin);\n    accounts[_admin] = Account({\n      firstName: _firstName,\n      lastName: _lastName,\n      role: Role.ADMIN,\n      enabled: true\n    });\n  }\n\n  function removeAdmin(address _admin) public onlyOwner() {    \n    accounts[_admin].enabled = false;\n  }\n\n  function addBenefitor(address _benefitor, string memory _firstName, string memory _lastName) public onlyAdmins returns(bool) {\n    benefitors.push(_benefitor);\n    accounts[_benefitor] = Account({\n      firstName: _firstName,\n      lastName: _lastName,\n      role: Role.USER,\n      enabled: true\n    });\n\n    return true;\n  }\n\n  function removeBenefitor(address _benefitor) public onlyAdmins {\n    accounts[_benefitor].enabled = false;\n  }\n\n  function getAccountInfo(address _address) public view returns(\n    string memory firstName,\n    string memory lastName,\n    bool isAdmin,\n    bool enabled\n    ) {\n    firstName = accounts[_address].firstName;\n    lastName = accounts[_address].lastName;\n    isAdmin = accounts[_address].role == Role.ADMIN;\n    enabled = accounts[_address].enabled;\n\n    return (\n      firstName,\n      lastName,\n      isAdmin,\n      enabled\n    );\n  }\n\n  function getBucketTypes() public view returns(string[] memory) {\n    return bucketTypes;\n  }\n\n  function getBucketInfo(address _address, string memory _bucket) public view returns(\n    string memory firstName,\n    string memory lastName,\n    bool enabled,\n    uint balance,\n    bool locked\n\n  ) {\n    firstName = accounts[_address].firstName;\n    lastName = accounts[_address].lastName;\n    enabled = accounts[_address].enabled;\n    balance = buckets[_address][_bucket].balance;\n    locked = buckets[_address][_bucket].locked;\n\n    return (\n      firstName,\n      lastName,\n      enabled,\n      balance,\n      locked\n    );\n  }\n\n  function getBenefitors() public view returns(\n    address benefitor1,\n    address benefitor2,\n    address benefitor3,\n    uint len) {\n    len = benefitors.length;\n    if (benefitors.length > 0) benefitor1 = benefitors[0];\n    if (benefitors.length > 1) benefitor2 = benefitors[1];\n    if (benefitors.length > 2) benefitor3 = benefitors[2];\n    return (\n      benefitor1,\n      benefitor2,\n      benefitor3,\n      len\n    );\n  }\n}\n",
  "sourcePath": "/Users/adilmezghouti/development/consensys-academy/blockchain-developer-bootcamp-final-project/contracts/FamilyTrust.sol",
  "compiler": {
    "name": "solc",
    "version": "0.5.16+commit.9c3226ce.Emscripten.clang"
  },
  "schemaVersion": "3.4.3",
  "updatedAt": "2021-11-27T00:59:28.189Z",
  "networkType": "ethereum",
  "devdoc": {
    "methods": {}
  },
  "userdoc": {
    "methods": {}
  }
}