{
  "contractName": "FamilyTrust",
  "abi": [
    {
      "inputs": [],
      "stateMutability": "nonpayable",
      "type": "constructor"
    },
    {
      "anonymous": false,
      "inputs": [
        {
          "indexed": false,
          "internalType": "address",
          "name": "sender",
          "type": "address"
        },
        {
          "indexed": false,
          "internalType": "address",
          "name": "admin",
          "type": "address"
        }
      ],
      "name": "LogAdminAdded",
      "type": "event"
    },
    {
      "anonymous": false,
      "inputs": [
        {
          "indexed": false,
          "internalType": "address",
          "name": "sender",
          "type": "address"
        },
        {
          "indexed": false,
          "internalType": "address",
          "name": "admin",
          "type": "address"
        }
      ],
      "name": "LogAdminRemoved",
      "type": "event"
    },
    {
      "anonymous": false,
      "inputs": [
        {
          "indexed": false,
          "internalType": "address",
          "name": "sender",
          "type": "address"
        },
        {
          "indexed": false,
          "internalType": "address",
          "name": "benefitor",
          "type": "address"
        }
      ],
      "name": "LogBenefitorAdded",
      "type": "event"
    },
    {
      "anonymous": false,
      "inputs": [
        {
          "indexed": false,
          "internalType": "address",
          "name": "sender",
          "type": "address"
        },
        {
          "indexed": false,
          "internalType": "address",
          "name": "benefitor",
          "type": "address"
        }
      ],
      "name": "LogBenefitorRemoved",
      "type": "event"
    },
    {
      "anonymous": false,
      "inputs": [
        {
          "indexed": false,
          "internalType": "address",
          "name": "sender",
          "type": "address"
        },
        {
          "indexed": false,
          "internalType": "address",
          "name": "receiver",
          "type": "address"
        },
        {
          "indexed": false,
          "internalType": "string",
          "name": "bucket",
          "type": "string"
        },
        {
          "indexed": false,
          "internalType": "uint256",
          "name": "newBalance",
          "type": "uint256"
        }
      ],
      "name": "LogFunded",
      "type": "event"
    },
    {
      "anonymous": false,
      "inputs": [
        {
          "indexed": false,
          "internalType": "address",
          "name": "to",
          "type": "address"
        },
        {
          "indexed": false,
          "internalType": "string",
          "name": "bucket",
          "type": "string"
        },
        {
          "indexed": false,
          "internalType": "uint256",
          "name": "amount",
          "type": "uint256"
        }
      ],
      "name": "LogFundsReleased",
      "type": "event"
    },
    {
      "anonymous": false,
      "inputs": [
        {
          "indexed": false,
          "internalType": "address",
          "name": "_address",
          "type": "address"
        },
        {
          "indexed": false,
          "internalType": "string",
          "name": "bucket",
          "type": "string"
        }
      ],
      "name": "LogLocked",
      "type": "event"
    },
    {
      "anonymous": false,
      "inputs": [
        {
          "indexed": false,
          "internalType": "address",
          "name": "sender",
          "type": "address"
        },
        {
          "indexed": false,
          "internalType": "string",
          "name": "bucket",
          "type": "string"
        }
      ],
      "name": "LogUnfunded",
      "type": "event"
    },
    {
      "anonymous": false,
      "inputs": [
        {
          "indexed": false,
          "internalType": "address",
          "name": "_address",
          "type": "address"
        },
        {
          "indexed": false,
          "internalType": "string",
          "name": "bucket",
          "type": "string"
        }
      ],
      "name": "LogUnlocked",
      "type": "event"
    },
    {
      "anonymous": false,
      "inputs": [
        {
          "indexed": true,
          "internalType": "address",
          "name": "previousOwner",
          "type": "address"
        },
        {
          "indexed": true,
          "internalType": "address",
          "name": "newOwner",
          "type": "address"
        }
      ],
      "name": "OwnershipTransferred",
      "type": "event"
    },
    {
      "anonymous": false,
      "inputs": [
        {
          "indexed": false,
          "internalType": "address",
          "name": "from",
          "type": "address"
        },
        {
          "indexed": false,
          "internalType": "address",
          "name": "receiver",
          "type": "address"
        },
        {
          "indexed": false,
          "internalType": "string",
          "name": "reveiverName",
          "type": "string"
        },
        {
          "indexed": false,
          "internalType": "uint256",
          "name": "amount",
          "type": "uint256"
        },
        {
          "indexed": false,
          "internalType": "uint256",
          "name": "timestamp",
          "type": "uint256"
        },
        {
          "indexed": false,
          "internalType": "uint256",
          "name": "uD",
          "type": "uint256"
        }
      ],
      "name": "Transfer",
      "type": "event"
    },
    {
      "inputs": [
        {
          "internalType": "uint256",
          "name": "",
          "type": "uint256"
        }
      ],
      "name": "admins",
      "outputs": [
        {
          "internalType": "address",
          "name": "",
          "type": "address"
        }
      ],
      "stateMutability": "view",
      "type": "function"
    },
    {
      "inputs": [
        {
          "internalType": "uint256",
          "name": "",
          "type": "uint256"
        }
      ],
      "name": "benefitors",
      "outputs": [
        {
          "internalType": "address",
          "name": "",
          "type": "address"
        }
      ],
      "stateMutability": "view",
      "type": "function"
    },
    {
      "inputs": [],
      "name": "owner",
      "outputs": [
        {
          "internalType": "address",
          "name": "",
          "type": "address"
        }
      ],
      "stateMutability": "view",
      "type": "function"
    },
    {
      "inputs": [],
      "name": "renounceOwnership",
      "outputs": [],
      "stateMutability": "nonpayable",
      "type": "function"
    },
    {
      "inputs": [
        {
          "internalType": "uint256",
          "name": "",
          "type": "uint256"
        }
      ],
      "name": "transactions",
      "outputs": [
        {
          "internalType": "uint256",
          "name": "TransactID",
          "type": "uint256"
        },
        {
          "internalType": "address",
          "name": "sender",
          "type": "address"
        },
        {
          "internalType": "address",
          "name": "receiver",
          "type": "address"
        },
        {
          "internalType": "string",
          "name": "receiverFullName",
          "type": "string"
        },
        {
          "internalType": "uint256",
          "name": "amount",
          "type": "uint256"
        },
        {
          "internalType": "uint256",
          "name": "timestamp",
          "type": "uint256"
        },
        {
          "internalType": "uint256",
          "name": "unlockdate",
          "type": "uint256"
        }
      ],
      "stateMutability": "view",
      "type": "function"
    },
    {
      "inputs": [
        {
          "internalType": "address",
          "name": "newOwner",
          "type": "address"
        }
      ],
      "name": "transferOwnership",
      "outputs": [],
      "stateMutability": "nonpayable",
      "type": "function"
    },
    {
      "inputs": [
        {
          "internalType": "address",
          "name": "_benefitor",
          "type": "address"
        },
        {
          "internalType": "string",
          "name": "_bucket",
          "type": "string"
        }
      ],
      "name": "addFunds",
      "outputs": [],
      "stateMutability": "payable",
      "type": "function"
    },
    {
      "inputs": [
        {
          "internalType": "address payable",
          "name": "_to",
          "type": "address"
        },
        {
          "internalType": "string",
          "name": "_fromBucket",
          "type": "string"
        }
      ],
      "name": "releaseFunds",
      "outputs": [],
      "stateMutability": "nonpayable",
      "type": "function"
    },
    {
      "inputs": [
        {
          "internalType": "string",
          "name": "_bucket",
          "type": "string"
        },
        {
          "internalType": "address",
          "name": "_benefitor",
          "type": "address"
        }
      ],
      "name": "lockFunds",
      "outputs": [],
      "stateMutability": "nonpayable",
      "type": "function"
    },
    {
      "inputs": [
        {
          "internalType": "string",
          "name": "_bucket",
          "type": "string"
        },
        {
          "internalType": "address",
          "name": "_benefitor",
          "type": "address"
        }
      ],
      "name": "unlockFunds",
      "outputs": [],
      "stateMutability": "nonpayable",
      "type": "function"
    },
    {
      "inputs": [
        {
          "internalType": "address",
          "name": "_admin",
          "type": "address"
        },
        {
          "internalType": "string",
          "name": "_firstName",
          "type": "string"
        },
        {
          "internalType": "string",
          "name": "_lastName",
          "type": "string"
        }
      ],
      "name": "addAdmin",
      "outputs": [],
      "stateMutability": "nonpayable",
      "type": "function"
    },
    {
      "inputs": [
        {
          "internalType": "address",
          "name": "_admin",
          "type": "address"
        }
      ],
      "name": "removeAdmin",
      "outputs": [],
      "stateMutability": "nonpayable",
      "type": "function"
    },
    {
      "inputs": [
        {
          "internalType": "address",
          "name": "_benefitor",
          "type": "address"
        },
        {
          "internalType": "string",
          "name": "_firstName",
          "type": "string"
        },
        {
          "internalType": "string",
          "name": "_lastName",
          "type": "string"
        },
        {
          "internalType": "uint256",
          "name": "_timestamp",
          "type": "uint256"
        }
      ],
      "name": "addBenefitor",
      "outputs": [
        {
          "internalType": "bool",
          "name": "",
          "type": "bool"
        }
      ],
      "stateMutability": "nonpayable",
      "type": "function"
    },
    {
      "inputs": [
        {
          "internalType": "address",
          "name": "_benefitor",
          "type": "address"
        }
      ],
      "name": "removeBenefitor",
      "outputs": [],
      "stateMutability": "nonpayable",
      "type": "function"
    },
    {
      "inputs": [
        {
          "internalType": "address",
          "name": "_address",
          "type": "address"
        },
        {
          "internalType": "bool",
          "name": "_hasAccess",
          "type": "bool"
        }
      ],
      "name": "toggleAccountAccess",
      "outputs": [],
      "stateMutability": "nonpayable",
      "type": "function"
    },
    {
      "inputs": [
        {
          "internalType": "address",
          "name": "_address",
          "type": "address"
        }
      ],
      "name": "getAccountInfo",
      "outputs": [
        {
          "internalType": "string",
          "name": "firstName",
          "type": "string"
        },
        {
          "internalType": "string",
          "name": "lastName",
          "type": "string"
        },
        {
          "internalType": "bool",
          "name": "isAdmin",
          "type": "bool"
        },
        {
          "internalType": "bool",
          "name": "enabled",
          "type": "bool"
        },
        {
          "internalType": "uint256",
          "name": "timestamp",
          "type": "uint256"
        }
      ],
      "stateMutability": "view",
      "type": "function"
    },
    {
      "inputs": [],
      "name": "getBucketTypes",
      "outputs": [
        {
          "internalType": "string[]",
          "name": "",
          "type": "string[]"
        }
      ],
      "stateMutability": "view",
      "type": "function"
    },
    {
      "inputs": [
        {
          "internalType": "address",
          "name": "_address",
          "type": "address"
        },
        {
          "internalType": "string",
          "name": "_bucket",
          "type": "string"
        }
      ],
      "name": "getBucketInfo",
      "outputs": [
        {
          "internalType": "string",
          "name": "firstName",
          "type": "string"
        },
        {
          "internalType": "string",
          "name": "lastName",
          "type": "string"
        },
        {
          "internalType": "bool",
          "name": "enabled",
          "type": "bool"
        },
        {
          "internalType": "uint256",
          "name": "balance",
          "type": "uint256"
        },
        {
          "internalType": "bool",
          "name": "locked",
          "type": "bool"
        }
      ],
      "stateMutability": "view",
      "type": "function"
    },
    {
      "inputs": [],
      "name": "getBenefitors",
      "outputs": [
        {
          "internalType": "address",
          "name": "benefitor1",
          "type": "address"
        },
        {
          "internalType": "address",
          "name": "benefitor2",
          "type": "address"
        },
        {
          "internalType": "address",
          "name": "benefitor3",
          "type": "address"
        },
        {
          "internalType": "uint256",
          "name": "len",
          "type": "uint256"
        }
      ],
      "stateMutability": "view",
      "type": "function"
    },
    {
      "inputs": [],
      "name": "getAdmins",
      "outputs": [
        {
          "internalType": "address",
          "name": "admin1",
          "type": "address"
        },
        {
          "internalType": "address",
          "name": "admin2",
          "type": "address"
        },
        {
          "internalType": "address",
          "name": "admin3",
          "type": "address"
        },
        {
          "internalType": "uint256",
          "name": "len",
          "type": "uint256"
        }
      ],
      "stateMutability": "view",
      "type": "function"
    },
    {
      "inputs": [
        {
          "internalType": "address",
          "name": "_address",
          "type": "address"
        }
      ],
      "name": "getAdminInfo",
      "outputs": [
        {
          "internalType": "string",
          "name": "firstName",
          "type": "string"
        },
        {
          "internalType": "string",
          "name": "lastName",
          "type": "string"
        },
        {
          "internalType": "bool",
          "name": "enabled",
          "type": "bool"
        }
      ],
      "stateMutability": "view",
      "type": "function"
    },
    {
      "inputs": [],
      "name": "getTimestamp",
      "outputs": [
        {
          "internalType": "uint256",
          "name": "",
          "type": "uint256"
        }
      ],
      "stateMutability": "view",
      "type": "function"
    },
    {
      "inputs": [
        {
          "internalType": "address payable",
          "name": "receiver",
          "type": "address"
        },
        {
          "internalType": "string",
          "name": "receiverFullname",
          "type": "string"
        },
        {
          "internalType": "uint256",
          "name": "amount",
          "type": "uint256"
        },
        {
          "internalType": "uint256",
          "name": "uD",
          "type": "uint256"
        }
      ],
      "name": "addToBlockchain",
      "outputs": [],
      "stateMutability": "nonpayable",
      "type": "function"
    },
    {
      "inputs": [],
      "name": "getAllTransactions",
      "outputs": [
        {
          "components": [
            {
              "internalType": "uint256",
              "name": "TransactID",
              "type": "uint256"
            },
            {
              "internalType": "address",
              "name": "sender",
              "type": "address"
            },
            {
              "internalType": "address",
              "name": "receiver",
              "type": "address"
            },
            {
              "internalType": "string",
              "name": "receiverFullName",
              "type": "string"
            },
            {
              "internalType": "uint256",
              "name": "amount",
              "type": "uint256"
            },
            {
              "internalType": "uint256",
              "name": "timestamp",
              "type": "uint256"
            },
            {
              "internalType": "uint256",
              "name": "unlockdate",
              "type": "uint256"
            }
          ],
          "internalType": "struct FamilyTrust.TransferStruct[]",
          "name": "",
          "type": "tuple[]"
        }
      ],
      "stateMutability": "view",
      "type": "function"
    },
    {
      "inputs": [
        {
          "internalType": "uint256",
          "name": "transCount",
          "type": "uint256"
        }
      ],
      "name": "getTransactionInfo",
      "outputs": [
        {
          "internalType": "uint256",
          "name": "transactID",
          "type": "uint256"
        },
        {
          "internalType": "address",
          "name": "sender",
          "type": "address"
        },
        {
          "internalType": "address",
          "name": "receiver",
          "type": "address"
        },
        {
          "internalType": "string",
          "name": "receiverFullName",
          "type": "string"
        },
        {
          "internalType": "uint256",
          "name": "amount",
          "type": "uint256"
        },
        {
          "internalType": "uint256",
          "name": "timestamp",
          "type": "uint256"
        },
        {
          "internalType": "uint256",
          "name": "unlockDate",
          "type": "uint256"
        }
      ],
      "stateMutability": "view",
      "type": "function"
    },
    {
      "inputs": [],
      "name": "getTransactionCount",
      "outputs": [
        {
          "internalType": "uint256",
          "name": "",
          "type": "uint256"
        }
      ],
      "stateMutability": "view",
      "type": "function"
    }
  ],
  "bytecode": "0x60806040523480156200001157600080fd5b506200003262000026620001d860201b60201c565b620001e060201b60201c565b60018081905550600067ffffffffffffffff811115620000575762000056620004b8565b5b604051908082528060200260200182016040528015620000865781602001602082028036833780820191505090505b50600390805190602001906200009e929190620002a4565b50600067ffffffffffffffff811115620000bd57620000bc620004b8565b5b604051908082528060200260200182016040528015620000ec5781602001602082028036833780820191505090505b506002908051906020019062000104929190620002a4565b5060405180606001604052806040518060400160405280600a81526020017f554e49564552534954590000000000000000000000000000000000000000000081525081526020016040518060400160405280600a81526020017f414c4c4f57414e4345530000000000000000000000000000000000000000000081525081526020016040518060400160405280600b81526020017f494e4845524954414e43450000000000000000000000000000000000000000008152508152506004906003620001d192919062000333565b506200054c565b600033905090565b60008060009054906101000a900473ffffffffffffffffffffffffffffffffffffffff169050816000806101000a81548173ffffffffffffffffffffffffffffffffffffffff021916908373ffffffffffffffffffffffffffffffffffffffff1602179055508173ffffffffffffffffffffffffffffffffffffffff168173ffffffffffffffffffffffffffffffffffffffff167f8be0079c531659141344cd1fd0a4f28419497f9722a3daafe3b4186f6b6457e060405160405180910390a35050565b82805482825590600052602060002090810192821562000320579160200282015b828111156200031f5782518260006101000a81548173ffffffffffffffffffffffffffffffffffffffff021916908373ffffffffffffffffffffffffffffffffffffffff16021790555091602001919060010190620002c5565b5b5090506200032f91906200039a565b5090565b82805482825590600052602060002090810192821562000387579160200282015b828111156200038657825182908051906020019062000375929190620003b9565b509160200191906001019062000354565b5b5090506200039691906200044a565b5090565b5b80821115620003b55760008160009055506001016200039b565b5090565b828054620003c79062000516565b90600052602060002090601f016020900481019282620003eb576000855562000437565b82601f106200040657805160ff191683800117855562000437565b8280016001018555821562000437579182015b828111156200043657825182559160200191906001019062000419565b5b5090506200044691906200039a565b5090565b5b808211156200046e576000818162000464919062000472565b506001016200044b565b5090565b508054620004809062000516565b6000825580601f10620004945750620004b5565b601f016020900490600052602060002090810190620004b491906200039a565b5b50565b7f4e487b7100000000000000000000000000000000000000000000000000000000600052604160045260246000fd5b7f4e487b7100000000000000000000000000000000000000000000000000000000600052602260045260246000fd5b600060028204905060018216806200052f57607f821691505b60208210811415620005465762000545620004e7565b5b50919050565b613dac806200055c6000396000f3fe6080604052600436106101815760003560e01c8063722b0376116100d1578063b5000acf1161008a578063cc64318311610064578063cc64318314610585578063d7aa8273146105c6578063e854cdca14610609578063f2fde38b1461063257610181565b8063b5000acf1461050a578063c6d8046b14610533578063c76ce8161461055c57610181565b8063722b0376146103d25780637b510fe8146104115780638da5cb5b1461045257806395d97e221461047d5780639ace38c214610499578063b246c6dd146104dc57610181565b80632e7700f01161013e578063491025e311610118578063491025e31461032a57806353f24d0b146103675780635babf5ef14610392578063715018a6146103bb57610181565b80632e7700f0146102a857806331ae450b146102d35780633fc896571461030157610181565b8063120662be1461018657806314bfd6d0146101c35780631785f53c14610200578063188ec356146102295780631b9a67a71461025457806327506f531461027d575b600080fd5b34801561019257600080fd5b506101ad60048036038101906101a89190612af4565b61065b565b6040516101ba9190612b62565b60405180910390f35b3480156101cf57600080fd5b506101ea60048036038101906101e59190612af4565b61069a565b6040516101f79190612b62565b60405180910390f35b34801561020c57600080fd5b5061022760048036038101906102229190612ba9565b6106d9565b005b34801561023557600080fd5b5061023e610778565b60405161024b9190612be5565b60405180910390f35b34801561026057600080fd5b5061027b60048036038101906102769190612c38565b610780565b005b34801561028957600080fd5b506102926107e6565b60405161029f9190612e8d565b60405180910390f35b3480156102b457600080fd5b506102bd6109ab565b6040516102ca9190612be5565b60405180910390f35b3480156102df57600080fd5b506102e86109b5565b6040516102f89493929190612eaf565b60405180910390f35b34801561030d57600080fd5b5061032860048036038101906103239190613067565b610aba565b005b34801561033657600080fd5b50610351600480360381019061034c91906130ea565b610c7c565b60405161035e9190613198565b60405180910390f35b34801561037357600080fd5b5061037c610f16565b6040516103899190613275565b60405180910390f35b34801561039e57600080fd5b506103b960048036038101906103b49190613297565b610fef565b005b3480156103c757600080fd5b506103d06111d5565b005b3480156103de57600080fd5b506103f960048036038101906103f49190612ba9565b6111e9565b6040516104089392919061336c565b60405180910390f35b34801561041d57600080fd5b5061043860048036038101906104339190612ba9565b6113e1565b6040516104499594939291906133b1565b60405180910390f35b34801561045e57600080fd5b5061046761169c565b6040516104749190612b62565b60405180910390f35b61049760048036038101906104929190613412565b6116c5565b005b3480156104a557600080fd5b506104c060048036038101906104bb9190612af4565b611895565b6040516104d3979695949392919061346e565b60405180910390f35b3480156104e857600080fd5b506104f16119af565b6040516105019493929190612eaf565b60405180910390f35b34801561051657600080fd5b50610531600480360381019061052c91906134e4565b611ab6565b005b34801561053f57600080fd5b5061055a60048036038101906105559190613540565b611c20565b005b34801561056857600080fd5b50610583600480360381019061057e9190612ba9565b61209c565b005b34801561059157600080fd5b506105ac60048036038101906105a79190613412565b612234565b6040516105bd95949392919061359c565b60405180910390f35b3480156105d257600080fd5b506105ed60048036038101906105e89190612af4565b612501565b604051610600979695949392919061346e565b60405180910390f35b34801561061557600080fd5b50610630600480360381019061062b91906134e4565b61268f565b005b34801561063e57600080fd5b5061065960048036038101906106549190612ba9565b6127f9565b005b6003818154811061066b57600080fd5b906000526020600020016000915054906101000a900473ffffffffffffffffffffffffffffffffffffffff1681565b600281815481106106aa57600080fd5b906000526020600020016000915054906101000a900473ffffffffffffffffffffffffffffffffffffffff1681565b6106e161287d565b6000600560008373ffffffffffffffffffffffffffffffffffffffff1673ffffffffffffffffffffffffffffffffffffffff16815260200190815260200160002060020160016101000a81548160ff0219169083151502179055507f0e9c3d5158f2afec017f5bfea4499c194908991c19a404c674869e25947fd891338260405161076d9291906135fd565b60405180910390a150565b600042905090565b61078861287d565b80600560008473ffffffffffffffffffffffffffffffffffffffff1673ffffffffffffffffffffffffffffffffffffffff16815260200190815260200160002060020160016101000a81548160ff0219169083151502179055505050565b60606008805480602002602001604051908101604052809291908181526020016000905b828210156109a257838290600052602060002090600702016040518060e0016040529081600082015481526020016001820160009054906101000a900473ffffffffffffffffffffffffffffffffffffffff1673ffffffffffffffffffffffffffffffffffffffff1673ffffffffffffffffffffffffffffffffffffffff1681526020016002820160009054906101000a900473ffffffffffffffffffffffffffffffffffffffff1673ffffffffffffffffffffffffffffffffffffffff1673ffffffffffffffffffffffffffffffffffffffff1681526020016003820180546108f390613655565b80601f016020809104026020016040519081016040528092919081815260200182805461091f90613655565b801561096c5780601f106109415761010080835404028352916020019161096c565b820191906000526020600020905b81548152906001019060200180831161094f57829003601f168201915b5050505050815260200160048201548152602001600582015481526020016006820154815250508152602001906001019061080a565b50505050905090565b6000600754905090565b600080600080600280549050905060006002805490501115610a145760026000815481106109e6576109e5613687565b5b9060005260206000200160009054906101000a900473ffffffffffffffffffffffffffffffffffffffff1693505b60016002805490501115610a65576002600181548110610a3757610a36613687565b5b9060005260206000200160009054906101000a900473ffffffffffffffffffffffffffffffffffffffff1692505b600280805490501115610ab45760028081548110610a8657610a85613687565b5b9060005260206000200160009054906101000a900473ffffffffffffffffffffffffffffffffffffffff1691505b90919293565b600160076000828254610acd91906136e5565b9250508190555060086040518060e0016040528060075481526020013373ffffffffffffffffffffffffffffffffffffffff1681526020018673ffffffffffffffffffffffffffffffffffffffff1681526020018581526020018481526020014281526020018381525090806001815401808255809150506001900390600052602060002090600702016000909190919091506000820151816000015560208201518160010160006101000a81548173ffffffffffffffffffffffffffffffffffffffff021916908373ffffffffffffffffffffffffffffffffffffffff16021790555060408201518160020160006101000a81548173ffffffffffffffffffffffffffffffffffffffff021916908373ffffffffffffffffffffffffffffffffffffffff1602179055506060820151816003019080519060200190610c149291906129c7565b506080820151816004015560a0820151816005015560c0820151816006015550507f21a4fbd4f1de447001cbc899d6b384f53f5814204c82acdfd42f24f3e1f6e1f1338585854286604051610c6e9695949392919061379a565b60405180910390a150505050565b6000806001811115610c9157610c90613802565b5b600560003373ffffffffffffffffffffffffffffffffffffffff1673ffffffffffffffffffffffffffffffffffffffff16815260200190815260200160002060020160009054906101000a900460ff166001811115610cf357610cf2613802565b5b14610d33576040517f08c379a0000000000000000000000000000000000000000000000000000000008152600401610d2a9061387d565b60405180910390fd5b6003859080600181540180825580915050600190039060005260206000200160009091909190916101000a81548173ffffffffffffffffffffffffffffffffffffffff021916908373ffffffffffffffffffffffffffffffffffffffff1602179055506040518060c00160405280858152602001848152602001600180811115610dc057610dbf613802565b5b815260200160011515815260200160011515815260200183815250600560008773ffffffffffffffffffffffffffffffffffffffff1673ffffffffffffffffffffffffffffffffffffffff1681526020019081526020016000206000820151816000019080519060200190610e369291906129c7565b506020820151816001019080519060200190610e539291906129c7565b5060408201518160020160006101000a81548160ff02191690836001811115610e7f57610e7e613802565b5b021790555060608201518160020160016101000a81548160ff02191690831515021790555060808201518160020160026101000a81548160ff02191690831515021790555060a082015181600301559050507f4a72ddc4ca522bfaf272e17377701c1cb143d2c377c71e3012eec13f1e4e70ef3386604051610f029291906135fd565b60405180910390a160019050949350505050565b60606004805480602002602001604051908101604052809291908181526020016000905b82821015610fe6578382906000526020600020018054610f5990613655565b80601f0160208091040260200160405190810160405280929190818152602001828054610f8590613655565b8015610fd25780601f10610fa757610100808354040283529160200191610fd2565b820191906000526020600020905b815481529060010190602001808311610fb557829003601f168201915b505050505081526020019060010190610f3a565b50505050905090565b610ff761287d565b6002839080600181540180825580915050600190039060005260206000200160009091909190916101000a81548173ffffffffffffffffffffffffffffffffffffffff021916908373ffffffffffffffffffffffffffffffffffffffff1602179055506040518060c001604052808381526020018281526020016000600181111561108557611084613802565b5b81526020016001151581526020016001151581526020016000815250600560008573ffffffffffffffffffffffffffffffffffffffff1673ffffffffffffffffffffffffffffffffffffffff16815260200190815260200160002060008201518160000190805190602001906110fc9291906129c7565b5060208201518160010190805190602001906111199291906129c7565b5060408201518160020160006101000a81548160ff0219169083600181111561114557611144613802565b5b021790555060608201518160020160016101000a81548160ff02191690831515021790555060808201518160020160026101000a81548160ff02191690831515021790555060a082015181600301559050507ffaee0269330752c7a43c8c1bfb334358e99a8ba5efb07a56b419ae8bdd279fa933846040516111c89291906135fd565b60405180910390a1505050565b6111dd61287d565b6111e760006128fb565b565b6060806000600560008573ffffffffffffffffffffffffffffffffffffffff1673ffffffffffffffffffffffffffffffffffffffff168152602001908152602001600020600001805461123b90613655565b80601f016020809104026020016040519081016040528092919081815260200182805461126790613655565b80156112b45780601f10611289576101008083540402835291602001916112b4565b820191906000526020600020905b81548152906001019060200180831161129757829003601f168201915b50505050509250600560008573ffffffffffffffffffffffffffffffffffffffff1673ffffffffffffffffffffffffffffffffffffffff168152602001908152602001600020600101805461130890613655565b80601f016020809104026020016040519081016040528092919081815260200182805461133490613655565b80156113815780601f1061135657610100808354040283529160200191611381565b820191906000526020600020905b81548152906001019060200180831161136457829003601f168201915b50505050509150600560008573ffffffffffffffffffffffffffffffffffffffff1673ffffffffffffffffffffffffffffffffffffffff16815260200190815260200160002060020160019054906101000a900460ff1690509193909250565b6060806000806000600560008773ffffffffffffffffffffffffffffffffffffffff1673ffffffffffffffffffffffffffffffffffffffff168152602001908152602001600020600001805461143690613655565b80601f016020809104026020016040519081016040528092919081815260200182805461146290613655565b80156114af5780601f10611484576101008083540402835291602001916114af565b820191906000526020600020905b81548152906001019060200180831161149257829003601f168201915b50505050509450600560008773ffffffffffffffffffffffffffffffffffffffff1673ffffffffffffffffffffffffffffffffffffffff168152602001908152602001600020600101805461150390613655565b80601f016020809104026020016040519081016040528092919081815260200182805461152f90613655565b801561157c5780601f106115515761010080835404028352916020019161157c565b820191906000526020600020905b81548152906001019060200180831161155f57829003601f168201915b505050505093506000600181111561159757611596613802565b5b600560008873ffffffffffffffffffffffffffffffffffffffff1673ffffffffffffffffffffffffffffffffffffffff16815260200190815260200160002060020160009054906101000a900460ff1660018111156115f9576115f8613802565b5b149250600560008773ffffffffffffffffffffffffffffffffffffffff1673ffffffffffffffffffffffffffffffffffffffff16815260200190815260200160002060020160019054906101000a900460ff169150600560008773ffffffffffffffffffffffffffffffffffffffff1673ffffffffffffffffffffffffffffffffffffffff16815260200190815260200160002060030154905091939590929450565b60008060009054906101000a900473ffffffffffffffffffffffffffffffffffffffff16905090565b81600560008273ffffffffffffffffffffffffffffffffffffffff1673ffffffffffffffffffffffffffffffffffffffff16815260200190815260200160002060020160019054906101000a900460ff16611755576040517f08c379a000000000000000000000000000000000000000000000000000000000815260040161174c906138e9565b60405180910390fd5b604051806040016040528034815260200160001515815250600660008573ffffffffffffffffffffffffffffffffffffffff1673ffffffffffffffffffffffffffffffffffffffff168152602001908152602001600020836040516117ba9190613945565b90815260200160405180910390206000820151816000015560208201518160010160006101000a81548160ff0219169083151502179055509050507fb35695d61d4d082cc9167cfc545e04075885362274c7ab44e3603f1cd77c254a338484600660008873ffffffffffffffffffffffffffffffffffffffff1673ffffffffffffffffffffffffffffffffffffffff168152602001908152602001600020866040516118669190613945565b908152602001604051809103902060000154604051611888949392919061395c565b60405180910390a1505050565b600881815481106118a557600080fd5b90600052602060002090600702016000915090508060000154908060010160009054906101000a900473ffffffffffffffffffffffffffffffffffffffff16908060020160009054906101000a900473ffffffffffffffffffffffffffffffffffffffff169080600301805461191a90613655565b80601f016020809104026020016040519081016040528092919081815260200182805461194690613655565b80156119935780601f1061196857610100808354040283529160200191611993565b820191906000526020600020905b81548152906001019060200180831161197657829003601f168201915b5050505050908060040154908060050154908060060154905087565b600080600080600380549050905060006003805490501115611a0e5760036000815481106119e0576119df613687565b5b9060005260206000200160009054906101000a900473ffffffffffffffffffffffffffffffffffffffff1693505b60016003805490501115611a5f576003600181548110611a3157611a30613687565b5b9060005260206000200160009054906101000a900473ffffffffffffffffffffffffffffffffffffffff1692505b60026003805490501115611ab0576003600281548110611a8257611a81613687565b5b9060005260206000200160009054906101000a900473ffffffffffffffffffffffffffffffffffffffff1691505b90919293565b60006001811115611aca57611ac9613802565b5b600560003373ffffffffffffffffffffffffffffffffffffffff1673ffffffffffffffffffffffffffffffffffffffff16815260200190815260200160002060020160009054906101000a900460ff166001811115611b2c57611b2b613802565b5b14611b6c576040517f08c379a0000000000000000000000000000000000000000000000000000000008152600401611b639061387d565b60405180910390fd5b6001600660008373ffffffffffffffffffffffffffffffffffffffff1673ffffffffffffffffffffffffffffffffffffffff16815260200190815260200160002083604051611bbb9190613945565b908152602001604051809103902060010160006101000a81548160ff0219169083151502179055507f23306221fdc2599739f388e9337fd47e4e26c4aa70f11aadff6d5879a5c698d48183604051611c149291906139a8565b60405180910390a15050565b60006001811115611c3457611c33613802565b5b600560003373ffffffffffffffffffffffffffffffffffffffff1673ffffffffffffffffffffffffffffffffffffffff16815260200190815260200160002060020160009054906101000a900460ff166001811115611c9657611c95613802565b5b14611cd6576040517f08c379a0000000000000000000000000000000000000000000000000000000008152600401611ccd9061387d565b60405180910390fd5b81600560008273ffffffffffffffffffffffffffffffffffffffff1673ffffffffffffffffffffffffffffffffffffffff16815260200190815260200160002060020160029054906101000a900460ff16611d66576040517f08c379a0000000000000000000000000000000000000000000000000000000008152600401611d5d90613a24565b60405180910390fd5b82826000600660008473ffffffffffffffffffffffffffffffffffffffff1673ffffffffffffffffffffffffffffffffffffffff16815260200190815260200160002082604051611db79190613945565b90815260200160405180910390206000015411611e09576040517f08c379a0000000000000000000000000000000000000000000000000000000008152600401611e0090613a90565b60405180910390fd5b60026001541415611e4f576040517f08c379a0000000000000000000000000000000000000000000000000000000008152600401611e4690613afc565b60405180910390fd5b60026001819055508442600560008373ffffffffffffffffffffffffffffffffffffffff1673ffffffffffffffffffffffffffffffffffffffff168152602001908152602001600020600301541115611edd576040517f08c379a0000000000000000000000000000000000000000000000000000000008152600401611ed490613b68565b60405180910390fd5b6000600660008873ffffffffffffffffffffffffffffffffffffffff1673ffffffffffffffffffffffffffffffffffffffff16815260200190815260200160002086604051611f2c9190613945565b90815260200160405180910390206000015490506000600660008973ffffffffffffffffffffffffffffffffffffffff1673ffffffffffffffffffffffffffffffffffffffff16815260200190815260200160002087604051611f8f9190613945565b90815260200160405180910390206000018190555060008773ffffffffffffffffffffffffffffffffffffffff1682604051611fca90613bb9565b60006040518083038185875af1925050503d8060008114612007576040519150601f19603f3d011682016040523d82523d6000602084013e61200c565b606091505b5050905080612050576040517f08c379a000000000000000000000000000000000000000000000000000000000815260040161204790613c1a565b60405180910390fd5b7fa04a52971dad7a35fe69b1a735b8184efbe64ee80a0434568f3e824ee55469ba88888460405161208393929190613c3a565b60405180910390a1505050600180819055505050505050565b600060018111156120b0576120af613802565b5b600560003373ffffffffffffffffffffffffffffffffffffffff1673ffffffffffffffffffffffffffffffffffffffff16815260200190815260200160002060020160009054906101000a900460ff16600181111561211257612111613802565b5b14612152576040517f08c379a00000000000000000000000000000000000000000000000000000000081526004016121499061387d565b60405180910390fd5b600560008273ffffffffffffffffffffffffffffffffffffffff1673ffffffffffffffffffffffffffffffffffffffff168152602001908152602001600020600080820160006121a29190612a4d565b6001820160006121b29190612a4d565b6002820160006101000a81549060ff02191690556002820160016101000a81549060ff02191690556002820160026101000a81549060ff0219169055600382016000905550507f4595fa1ae6fd4abdcf8d95aae5731c45f318357be0ae1eaa64eea128737024d933826040516122299291906135fd565b60405180910390a150565b6060806000806000600560008873ffffffffffffffffffffffffffffffffffffffff1673ffffffffffffffffffffffffffffffffffffffff168152602001908152602001600020600001805461228990613655565b80601f01602080910402602001604051908101604052809291908181526020018280546122b590613655565b80156123025780601f106122d757610100808354040283529160200191612302565b820191906000526020600020905b8154815290600101906020018083116122e557829003601f168201915b50505050509450600560008873ffffffffffffffffffffffffffffffffffffffff1673ffffffffffffffffffffffffffffffffffffffff168152602001908152602001600020600101805461235690613655565b80601f016020809104026020016040519081016040528092919081815260200182805461238290613655565b80156123cf5780601f106123a4576101008083540402835291602001916123cf565b820191906000526020600020905b8154815290600101906020018083116123b257829003601f168201915b50505050509350600560008873ffffffffffffffffffffffffffffffffffffffff1673ffffffffffffffffffffffffffffffffffffffff16815260200190815260200160002060020160019054906101000a900460ff169250600660008873ffffffffffffffffffffffffffffffffffffffff1673ffffffffffffffffffffffffffffffffffffffff168152602001908152602001600020866040516124759190613945565b9081526020016040518091039020600001549150600660008873ffffffffffffffffffffffffffffffffffffffff1673ffffffffffffffffffffffffffffffffffffffff168152602001908152602001600020866040516124d69190613945565b908152602001604051809103902060010160009054906101000a900460ff1690509295509295909350565b600080600060606000806000600960008981526020019081526020016000206000015496506009600089815260200190815260200160002060010160009054906101000a900473ffffffffffffffffffffffffffffffffffffffff1695506009600089815260200190815260200160002060020160009054906101000a900473ffffffffffffffffffffffffffffffffffffffff1694506009600089815260200190815260200160002060030180546125b990613655565b80601f01602080910402602001604051908101604052809291908181526020018280546125e590613655565b80156126325780601f1061260757610100808354040283529160200191612632565b820191906000526020600020905b81548152906001019060200180831161261557829003601f168201915b50505050509350600960008981526020019081526020016000206004015492506009600089815260200190815260200160002060050154915060096000898152602001908152602001600020600601549050919395979092949650565b600060018111156126a3576126a2613802565b5b600560003373ffffffffffffffffffffffffffffffffffffffff1673ffffffffffffffffffffffffffffffffffffffff16815260200190815260200160002060020160009054906101000a900460ff16600181111561270557612704613802565b5b14612745576040517f08c379a000000000000000000000000000000000000000000000000000000000815260040161273c9061387d565b60405180910390fd5b6000600660008373ffffffffffffffffffffffffffffffffffffffff1673ffffffffffffffffffffffffffffffffffffffff168152602001908152602001600020836040516127949190613945565b908152602001604051809103902060010160006101000a81548160ff0219169083151502179055507f7fb93cb31508eb7b16c0a0eb08236eee50368099347853efe53b996910e24df981836040516127ed9291906139a8565b60405180910390a15050565b61280161287d565b600073ffffffffffffffffffffffffffffffffffffffff168173ffffffffffffffffffffffffffffffffffffffff161415612871576040517f08c379a000000000000000000000000000000000000000000000000000000000815260040161286890613cea565b60405180910390fd5b61287a816128fb565b50565b6128856129bf565b73ffffffffffffffffffffffffffffffffffffffff166128a361169c565b73ffffffffffffffffffffffffffffffffffffffff16146128f9576040517f08c379a00000000000000000000000000000000000000000000000000000000081526004016128f090613d56565b60405180910390fd5b565b60008060009054906101000a900473ffffffffffffffffffffffffffffffffffffffff169050816000806101000a81548173ffffffffffffffffffffffffffffffffffffffff021916908373ffffffffffffffffffffffffffffffffffffffff1602179055508173ffffffffffffffffffffffffffffffffffffffff168173ffffffffffffffffffffffffffffffffffffffff167f8be0079c531659141344cd1fd0a4f28419497f9722a3daafe3b4186f6b6457e060405160405180910390a35050565b600033905090565b8280546129d390613655565b90600052602060002090601f0160209004810192826129f55760008555612a3c565b82601f10612a0e57805160ff1916838001178555612a3c565b82800160010185558215612a3c579182015b82811115612a3b578251825591602001919060010190612a20565b5b509050612a499190612a8d565b5090565b508054612a5990613655565b6000825580601f10612a6b5750612a8a565b601f016020900490600052602060002090810190612a899190612a8d565b5b50565b5b80821115612aa6576000816000905550600101612a8e565b5090565b6000604051905090565b600080fd5b600080fd5b6000819050919050565b612ad181612abe565b8114612adc57600080fd5b50565b600081359050612aee81612ac8565b92915050565b600060208284031215612b0a57612b09612ab4565b5b6000612b1884828501612adf565b91505092915050565b600073ffffffffffffffffffffffffffffffffffffffff82169050919050565b6000612b4c82612b21565b9050919050565b612b5c81612b41565b82525050565b6000602082019050612b776000830184612b53565b92915050565b612b8681612b41565b8114612b9157600080fd5b50565b600081359050612ba381612b7d565b92915050565b600060208284031215612bbf57612bbe612ab4565b5b6000612bcd84828501612b94565b91505092915050565b612bdf81612abe565b82525050565b6000602082019050612bfa6000830184612bd6565b92915050565b60008115159050919050565b612c1581612c00565b8114612c2057600080fd5b50565b600081359050612c3281612c0c565b92915050565b60008060408385031215612c4f57612c4e612ab4565b5b6000612c5d85828601612b94565b9250506020612c6e85828601612c23565b9150509250929050565b600081519050919050565b600082825260208201905092915050565b6000819050602082019050919050565b612cad81612abe565b82525050565b612cbc81612b41565b82525050565b600081519050919050565b600082825260208201905092915050565b60005b83811015612cfc578082015181840152602081019050612ce1565b83811115612d0b576000848401525b50505050565b6000601f19601f8301169050919050565b6000612d2d82612cc2565b612d378185612ccd565b9350612d47818560208601612cde565b612d5081612d11565b840191505092915050565b600060e083016000830151612d736000860182612ca4565b506020830151612d866020860182612cb3565b506040830151612d996040860182612cb3565b5060608301518482036060860152612db18282612d22565b9150506080830151612dc66080860182612ca4565b5060a0830151612dd960a0860182612ca4565b5060c0830151612dec60c0860182612ca4565b508091505092915050565b6000612e038383612d5b565b905092915050565b6000602082019050919050565b6000612e2382612c78565b612e2d8185612c83565b935083602082028501612e3f85612c94565b8060005b85811015612e7b5784840389528151612e5c8582612df7565b9450612e6783612e0b565b925060208a01995050600181019050612e43565b50829750879550505050505092915050565b60006020820190508181036000830152612ea78184612e18565b905092915050565b6000608082019050612ec46000830187612b53565b612ed16020830186612b53565b612ede6040830185612b53565b612eeb6060830184612bd6565b95945050505050565b6000612eff82612b21565b9050919050565b612f0f81612ef4565b8114612f1a57600080fd5b50565b600081359050612f2c81612f06565b92915050565b600080fd5b600080fd5b7f4e487b7100000000000000000000000000000000000000000000000000000000600052604160045260246000fd5b612f7482612d11565b810181811067ffffffffffffffff82111715612f9357612f92612f3c565b5b80604052505050565b6000612fa6612aaa565b9050612fb28282612f6b565b919050565b600067ffffffffffffffff821115612fd257612fd1612f3c565b5b612fdb82612d11565b9050602081019050919050565b82818337600083830152505050565b600061300a61300584612fb7565b612f9c565b90508281526020810184848401111561302657613025612f37565b5b613031848285612fe8565b509392505050565b600082601f83011261304e5761304d612f32565b5b813561305e848260208601612ff7565b91505092915050565b6000806000806080858703121561308157613080612ab4565b5b600061308f87828801612f1d565b945050602085013567ffffffffffffffff8111156130b0576130af612ab9565b5b6130bc87828801613039565b93505060406130cd87828801612adf565b92505060606130de87828801612adf565b91505092959194509250565b6000806000806080858703121561310457613103612ab4565b5b600061311287828801612b94565b945050602085013567ffffffffffffffff81111561313357613132612ab9565b5b61313f87828801613039565b935050604085013567ffffffffffffffff8111156131605761315f612ab9565b5b61316c87828801613039565b925050606061317d87828801612adf565b91505092959194509250565b61319281612c00565b82525050565b60006020820190506131ad6000830184613189565b92915050565b600081519050919050565b600082825260208201905092915050565b6000819050602082019050919050565b60006131eb8383612d22565b905092915050565b6000602082019050919050565b600061320b826131b3565b61321581856131be565b935083602082028501613227856131cf565b8060005b85811015613263578484038952815161324485826131df565b945061324f836131f3565b925060208a0199505060018101905061322b565b50829750879550505050505092915050565b6000602082019050818103600083015261328f8184613200565b905092915050565b6000806000606084860312156132b0576132af612ab4565b5b60006132be86828701612b94565b935050602084013567ffffffffffffffff8111156132df576132de612ab9565b5b6132eb86828701613039565b925050604084013567ffffffffffffffff81111561330c5761330b612ab9565b5b61331886828701613039565b9150509250925092565b600082825260208201905092915050565b600061333e82612cc2565b6133488185613322565b9350613358818560208601612cde565b61336181612d11565b840191505092915050565b600060608201905081810360008301526133868186613333565b9050818103602083015261339a8185613333565b90506133a96040830184613189565b949350505050565b600060a08201905081810360008301526133cb8188613333565b905081810360208301526133df8187613333565b90506133ee6040830186613189565b6133fb6060830185613189565b6134086080830184612bd6565b9695505050505050565b6000806040838503121561342957613428612ab4565b5b600061343785828601612b94565b925050602083013567ffffffffffffffff81111561345857613457612ab9565b5b61346485828601613039565b9150509250929050565b600060e082019050613483600083018a612bd6565b6134906020830189612b53565b61349d6040830188612b53565b81810360608301526134af8187613333565b90506134be6080830186612bd6565b6134cb60a0830185612bd6565b6134d860c0830184612bd6565b98975050505050505050565b600080604083850312156134fb576134fa612ab4565b5b600083013567ffffffffffffffff81111561351957613518612ab9565b5b61352585828601613039565b925050602061353685828601612b94565b9150509250929050565b6000806040838503121561355757613556612ab4565b5b600061356585828601612f1d565b925050602083013567ffffffffffffffff81111561358657613585612ab9565b5b61359285828601613039565b9150509250929050565b600060a08201905081810360008301526135b68188613333565b905081810360208301526135ca8187613333565b90506135d96040830186613189565b6135e66060830185612bd6565b6135f36080830184613189565b9695505050505050565b60006040820190506136126000830185612b53565b61361f6020830184612b53565b9392505050565b7f4e487b7100000000000000000000000000000000000000000000000000000000600052602260045260246000fd5b6000600282049050600182168061366d57607f821691505b6020821081141561368157613680613626565b5b50919050565b7f4e487b7100000000000000000000000000000000000000000000000000000000600052603260045260246000fd5b7f4e487b7100000000000000000000000000000000000000000000000000000000600052601160045260246000fd5b60006136f082612abe565b91506136fb83612abe565b9250827fffffffffffffffffffffffffffffffffffffffffffffffffffffffffffffffff038211156137305761372f6136b6565b5b828201905092915050565b6000819050919050565b600061376061375b61375684612b21565b61373b565b612b21565b9050919050565b600061377282613745565b9050919050565b600061378482613767565b9050919050565b61379481613779565b82525050565b600060c0820190506137af6000830189612b53565b6137bc602083018861378b565b81810360408301526137ce8187613333565b90506137dd6060830186612bd6565b6137ea6080830185612bd6565b6137f760a0830184612bd6565b979650505050505050565b7f4e487b7100000000000000000000000000000000000000000000000000000000600052602160045260246000fd5b7f66756e6374696f6e20726573657276656420746f2041444d494e53206f6e6c79600082015250565b6000613867602083613322565b915061387282613831565b602082019050919050565b600060208201905081810360008301526138968161385a565b9050919050565b7f4163636f756e742069732064697361626c656400000000000000000000000000600082015250565b60006138d3601383613322565b91506138de8261389d565b602082019050919050565b60006020820190508181036000830152613902816138c6565b9050919050565b600081905092915050565b600061391f82612cc2565b6139298185613909565b9350613939818560208601612cde565b80840191505092915050565b60006139518284613914565b915081905092915050565b60006080820190506139716000830187612b53565b61397e6020830186612b53565b81810360408301526139908185613333565b905061399f6060830184612bd6565b95945050505050565b60006040820190506139bd6000830185612b53565b81810360208301526139cf8184613333565b90509392505050565b7f4163636f756e74206e6f7420666f756e64000000000000000000000000000000600082015250565b6000613a0e601183613322565b9150613a19826139d8565b602082019050919050565b60006020820190508181036000830152613a3d81613a01565b9050919050565b7f42616c616e6365206973206e6f7420656e6f7567680000000000000000000000600082015250565b6000613a7a601583613322565b9150613a8582613a44565b602082019050919050565b60006020820190508181036000830152613aa981613a6d565b9050919050565b7f5265656e7472616e637947756172643a207265656e7472616e742063616c6c00600082015250565b6000613ae6601f83613322565b9150613af182613ab0565b602082019050919050565b60006020820190508181036000830152613b1581613ad9565b9050919050565b7f6974277320746f20736f6f6e20746f2075736520796f75722066756e64730000600082015250565b6000613b52601e83613322565b9150613b5d82613b1c565b602082019050919050565b60006020820190508181036000830152613b8181613b45565b9050919050565b600081905092915050565b50565b6000613ba3600083613b88565b9150613bae82613b93565b600082019050919050565b6000613bc482613b96565b9150819050919050565b7f5472616e73666572206661696c65640000000000000000000000000000000000600082015250565b6000613c04600f83613322565b9150613c0f82613bce565b602082019050919050565b60006020820190508181036000830152613c3381613bf7565b9050919050565b6000606082019050613c4f600083018661378b565b8181036020830152613c618185613333565b9050613c706040830184612bd6565b949350505050565b7f4f776e61626c653a206e6577206f776e657220697320746865207a65726f206160008201527f6464726573730000000000000000000000000000000000000000000000000000602082015250565b6000613cd4602683613322565b9150613cdf82613c78565b604082019050919050565b60006020820190508181036000830152613d0381613cc7565b9050919050565b7f4f776e61626c653a2063616c6c6572206973206e6f7420746865206f776e6572600082015250565b6000613d40602083613322565b9150613d4b82613d0a565b602082019050919050565b60006020820190508181036000830152613d6f81613d33565b905091905056fea2646970667358221220cfae0dadf69c31e30285784f2930caf6c24ef75e3abb2d526f9cbebb5423cbff64736f6c634300080a0033",
  "immutableReferences": {},
  "source": "// SPDX-License-Identifier: MIT\npragma solidity ^0.8.10;\npragma experimental ABIEncoderV2;\n\nimport \"../node_modules/@openzeppelin/contracts/access/Ownable.sol\";\nimport \"@openzeppelin/contracts/security/ReentrancyGuard.sol\";\n\n///@title Allows families to deposit, lock, unlock, and release funds for the benefit of their children.\n///@author Adil Mezghouti\ncontract FamilyTrust is Ownable, ReentrancyGuard {\n  address[] public admins;\n  address[] public benefitors;\n\n  enum Role {\n    ADMIN,\n    USER\n  }\n  string[] bucketTypes;    \n  struct Bucket {\n    uint balance;\n    bool locked;\n  }\n  struct Account {\n    string firstName;\n    string lastName;\n    Role role;\n    bool enabled;\n    bool exists;\n    uint256 timestamp;\n  }\n  \n\n\n    mapping(address => Account) accounts ;\n    mapping(address => mapping(string => Bucket)) buckets;\n\n  constructor() {\n    benefitors = new address[](0);\n    admins = new address[](0);\n    bucketTypes = [\n      'UNIVERSITY',\n      'ALLOWANCES',\n      'INHERITANCE'\n    ];\n  }\n\n  //*******************EVENTS***********************\n\n  event LogLocked(address _address, string bucket);\n  event LogUnlocked(address _address, string bucket);\n  event LogFunded(address sender, address receiver, string bucket, uint newBalance);\n  event LogUnfunded(address sender, string bucket);\n  event LogFundsReleased(address to, string bucket, uint amount);\n  event LogAdminAdded(address sender, address admin);\n  event LogAdminRemoved(address sender, address admin);\n  event LogBenefitorAdded(address sender, address benefitor);\n  event LogBenefitorRemoved(address sender, address benefitor);\n\n  //*******************MODIFIERS********************\n\n\n  modifier onlyAdmins(){\n      require(accounts[msg.sender].role == Role.ADMIN, \"function reserved to ADMINS only\");\n      _;\n  }\n  modifier onlyBenefitors(){\n      require(accounts[msg.sender].role == Role.ADMIN, \"function reserved to BENEFITORS only\");\n      _;\n  }\n\n  modifier timeStampReached(address _address){\n      require(accounts[_address].timestamp <= block.timestamp, \"it's to soon to use your funds\");\n      _;\n  }\n\n    modifier enoughFunds(address _address, string memory _bucket) {\n    require(buckets[_address][_bucket].balance > 0, \"Balance is not enough\");\n    _;\n  }\n\n  modifier accountEnabled(address _address) {\n    require(accounts[_address].enabled, \"Account is disabled\");\n    _;\n  }\n\n  modifier existingAccount(address _address) {\n    require(accounts[_address].exists, 'Account not found');\n    _;\n  }\n\n  //********************FUNCTIONS***********************\n\n  ///@notice Adds funds to the smart contract and associate them to a specific bucket\n  ///@param _benefitor the address of the person who will be the recipient of the deposited funds\n  ///@param _bucket the name of the bucket in which the funds will be deposited\n  ///@notice Note that the funds will be assigned logically through buckets and will not be effectively owned by the benefitor until the admin/owner releases the funds to her\n  function addFunds(address _benefitor, string memory _bucket) public payable accountEnabled(_benefitor) {\n    buckets[_benefitor][_bucket] = Bucket({\n      balance: msg.value,\n      locked: false\n    });\n    emit LogFunded(msg.sender, _benefitor, _bucket, buckets[_benefitor][_bucket].balance);\n  }\n\n    ///@notice Moves the amount associated with a specific bucket to the provided address\n  ///@param _to the address receiving the funds\n  ///@param _fromBucket the bucket to which the funds are associated\n  function releaseFunds(address payable _to, string memory _fromBucket) public onlyAdmins existingAccount(_to) enoughFunds(_to, _fromBucket) nonReentrant timeStampReached(_to){\n    uint oldBalance = buckets[_to][_fromBucket].balance;\n    buckets[_to][_fromBucket].balance = 0;\n    (bool success, ) = _to.call{value: oldBalance}(\"\");\n    require(success, \"Transfer failed\");\n    emit LogFundsReleased(_to, _fromBucket, oldBalance);\n  }\n\n    ///@notice Lock funds\n  ///@param _bucket the bucket that will be locked\n  ///@param _benefitor the account that the bucket belongs to\n  function lockFunds(string memory _bucket, address _benefitor) public onlyAdmins {\n    buckets[_benefitor][_bucket].locked = true;\n    emit LogLocked(_benefitor, _bucket);\n  }\n\n  ///@notice Unlocks funds\n  ///@param _bucket the bucket that will be unlocked\n  ///@param _benefitor the account that the bucket belongs to\n  function unlockFunds(string memory _bucket, address _benefitor) public onlyAdmins {\n    buckets[_benefitor][_bucket].locked = false;\n    emit LogUnlocked(_benefitor, _bucket);\n  }\n\n    ///@notice Adds an admin account\n  ///@param _firstName first name of the user\n  ///@param _lastName last name of the user\n  function addAdmin(address _admin, string memory _firstName, string memory _lastName) public onlyOwner {\n    admins.push(_admin);\n    accounts[_admin] = Account({\n      firstName: _firstName,\n      lastName: _lastName,\n      role: Role.ADMIN,\n      enabled: true,\n      exists: true,\n      timestamp: 0\n    });\n    emit LogAdminAdded(msg.sender, _admin);\n  }\n\n    ///@notice Disables an account\n  ///@param _admin the address that will be disabled\n  function removeAdmin(address _admin) public onlyOwner {\n    accounts[_admin].enabled = false;\n    emit LogAdminRemoved(msg.sender, _admin);\n  }\n\n    ///@notice Adds a benefitor account\n  ///@param _benefitor the account address\n  ///@param _firstName the first name of the account/user\n  ///@param _lastName the last name of the account/user\n  function addBenefitor(address _benefitor, string memory _firstName, string memory _lastName, uint256 _timestamp) public onlyAdmins returns(bool) {\n    benefitors.push(_benefitor);\n    accounts[_benefitor] = Account({\n      firstName: _firstName,\n      lastName: _lastName,\n      role: Role.USER,\n      enabled: true,\n      exists: true,\n      timestamp: _timestamp\n    });\n\n    emit LogBenefitorAdded(msg.sender, _benefitor);\n    return true;\n  }\n\n    ///@notice Deletes a benefitor account\n  ///@param _benefitor the account address\n  function removeBenefitor(address _benefitor) public onlyAdmins {\n    delete accounts[_benefitor];\n    emit LogBenefitorRemoved(msg.sender, _benefitor);\n  }\n\n  ///@notice Enables/Disables an account\n  ///@param _address the account address\n  ///@param _hasAccess whether the access is enabled/disabled\n  function toggleAccountAccess(address _address, bool _hasAccess) public onlyOwner {\n    accounts[_address].enabled = _hasAccess;\n  }\n\n  ///@notice Returns account info for a given address\n  ///@param _address the account address\n  function getAccountInfo(address _address) public view returns(\n    string memory firstName,\n    string memory lastName,\n    bool isAdmin,\n    bool enabled,\n    uint256 timestamp\n    ) {\n    firstName = accounts[_address].firstName;\n    lastName = accounts[_address].lastName;\n    isAdmin = accounts[_address].role == Role.ADMIN;\n    enabled = accounts[_address].enabled;\n    timestamp = accounts[_address].timestamp;\n\n    return (\n      firstName,\n      lastName,\n      isAdmin,\n      enabled,\n      timestamp\n    );\n  }\n\n  ///@notice returns the bucket types\n  function getBucketTypes() public view returns(string[] memory) {\n    return bucketTypes;\n  }\n\n  ///@notice Returns a bucket info\n  ///@param _address the account address\n  ///@param _bucket the bucket name\n  function getBucketInfo(address _address, string memory _bucket) public view returns(\n    string memory firstName,\n    string memory lastName,\n    bool enabled,\n    uint balance,\n    bool locked\n  ) {\n    firstName = accounts[_address].firstName;\n    lastName = accounts[_address].lastName;\n    enabled = accounts[_address].enabled;\n    balance = buckets[_address][_bucket].balance;\n    locked = buckets[_address][_bucket].locked;\n\n    return (\n      firstName,\n      lastName,\n      enabled,\n      balance,\n      locked\n    );\n  }\n    ///@notice Returns the list of benefitors\n  function getBenefitors() public view returns(\n    address benefitor1,\n    address benefitor2,\n    address benefitor3,\n    uint len) {\n    len = benefitors.length;\n    if (benefitors.length > 0) benefitor1 = benefitors[0];\n    if (benefitors.length > 1) benefitor2 = benefitors[1];\n    if (benefitors.length > 2) benefitor3 = benefitors[2];\n    return (\n      benefitor1,\n      benefitor2,\n      benefitor3,\n      len\n    );\n  }\n\n  ///@notice Returns the list of admins\n  function getAdmins() public view returns(\n    address admin1,\n    address admin2,\n    address admin3,\n    uint len) {\n    len = admins.length;\n    if (admins.length > 0) admin1 = admins[0];\n    if (admins.length > 1) admin2 = admins[1];\n    if (admins.length > 2) admin3 = admins[2];\n\n    return (\n      admin1,\n      admin2,\n      admin3,\n      len\n    );\n  }\n\n  ///@notice Returns the admin info\n  ///@param _address the account address\n  function getAdminInfo(address _address) public view returns(\n    string memory firstName,\n    string memory lastName,\n    bool enabled\n  ) {\n    firstName = accounts[_address].firstName;\n    lastName = accounts[_address].lastName;\n    enabled = accounts[_address].enabled;\n\n    return (\n      firstName,\n      lastName,\n      enabled\n    );\n  }\n\n  function getTimestamp() public view returns(uint256)\n    {\n        return block.timestamp;\n    }\n\n// History of Transactions Tools\n\n uint256 transactionCount ;\n\n    event Transfer(address from, address receiver, string reveiverName, uint amount, uint256 timestamp, uint256 uD);\n  \n    struct TransferStruct {\n        uint TransactID;\n        address sender;\n        address receiver;\n        string receiverFullName;\n        uint amount;\n        uint256 timestamp;\n        uint256 unlockdate;\n    }\n\n    TransferStruct[] public transactions;\n\n    mapping(uint256 => TransferStruct) transact ;\n\n\n    function addToBlockchain(address payable receiver, string memory receiverFullname, uint amount, uint256 uD) public {\n        transactionCount += 1;\n        transactions.push(TransferStruct(transactionCount ,msg.sender, receiver, receiverFullname ,amount, block.timestamp, uD ));\n\n        emit Transfer(msg.sender, receiver, receiverFullname, amount, block.timestamp,uD );\n    }\n    \n    function getAllTransactions() public view returns (TransferStruct[] memory) {\n        return transactions;\n    }\n\n    function getTransactionInfo(uint256  transCount) public view returns(\n        uint transactID,\n        address sender,\n        address receiver,\n        string memory receiverFullName,\n        uint amount,\n        uint256 timestamp,\n        uint256 unlockDate )\n        {\n            transactID = transact[transCount].TransactID ;\n            sender = transact[transCount].sender;\n            receiver = transact[transCount].receiver;\n            receiverFullName = transact[transCount].receiverFullName;\n            amount = transact[transCount].amount;\n            timestamp = transact[transCount].timestamp;\n            unlockDate = transact[transCount].unlockdate;\n\n            return (\n                transactID,\n                sender,\n                receiver,\n                receiverFullName,\n                amount,\n                timestamp,\n                unlockDate\n            );\n    }\n\n    function getTransactionCount() public view returns (uint256) {\n        return transactionCount;\n    }\n\n}\n",
  "sourcePath": "C:\\Users\\YOUSSEF\\Desktop\\Dossier de Stage\\Project gits\\g\\projet\\contracts\\FamilyTrust.sol",
  "compiler": {
    "name": "solc",
    "version": "0.8.10+commit.fc410830.Emscripten.clang"
  },
  "schemaVersion": "3.4.8",
  "updatedAt": "2022-09-20T10:13:43.690Z",
  "devdoc": {
    "author": "Adil Mezghouti",
    "kind": "dev",
    "methods": {
      "addAdmin(address,string,string)": {
        "params": {
          "_firstName": "first name of the user",
          "_lastName": "last name of the user"
        }
      },
      "addBenefitor(address,string,string,uint256)": {
        "params": {
          "_benefitor": "the account address",
          "_firstName": "the first name of the account/user",
          "_lastName": "the last name of the account/user"
        }
      },
      "addFunds(address,string)": {
        "params": {
          "_benefitor": "the address of the person who will be the recipient of the deposited funds",
          "_bucket": "the name of the bucket in which the funds will be deposited"
        }
      },
      "getAccountInfo(address)": {
        "params": {
          "_address": "the account address"
        }
      },
      "getAdminInfo(address)": {
        "params": {
          "_address": "the account address"
        }
      },
      "getBucketInfo(address,string)": {
        "params": {
          "_address": "the account address",
          "_bucket": "the bucket name"
        }
      },
      "lockFunds(string,address)": {
        "params": {
          "_benefitor": "the account that the bucket belongs to",
          "_bucket": "the bucket that will be locked"
        }
      },
      "owner()": {
        "details": "Returns the address of the current owner."
      },
      "releaseFunds(address,string)": {
        "params": {
          "_fromBucket": "the bucket to which the funds are associated",
          "_to": "the address receiving the funds"
        }
      },
      "removeAdmin(address)": {
        "params": {
          "_admin": "the address that will be disabled"
        }
      },
      "removeBenefitor(address)": {
        "params": {
          "_benefitor": "the account address"
        }
      },
      "renounceOwnership()": {
        "details": "Leaves the contract without owner. It will not be possible to call `onlyOwner` functions anymore. Can only be called by the current owner. NOTE: Renouncing ownership will leave the contract without an owner, thereby removing any functionality that is only available to the owner."
      },
      "toggleAccountAccess(address,bool)": {
        "params": {
          "_address": "the account address",
          "_hasAccess": "whether the access is enabled/disabled"
        }
      },
      "transferOwnership(address)": {
        "details": "Transfers ownership of the contract to a new account (`newOwner`). Can only be called by the current owner."
      },
      "unlockFunds(string,address)": {
        "params": {
          "_benefitor": "the account that the bucket belongs to",
          "_bucket": "the bucket that will be unlocked"
        }
      }
    },
    "title": "Allows families to deposit, lock, unlock, and release funds for the benefit of their children.",
    "version": 1
  },
  "userdoc": {
    "kind": "user",
    "methods": {
      "addAdmin(address,string,string)": {
        "notice": "Adds an admin account"
      },
      "addBenefitor(address,string,string,uint256)": {
        "notice": "Adds a benefitor account"
      },
      "addFunds(address,string)": {
        "notice": "Adds funds to the smart contract and associate them to a specific bucketNote that the funds will be assigned logically through buckets and will not be effectively owned by the benefitor until the admin/owner releases the funds to her"
      },
      "getAccountInfo(address)": {
        "notice": "Returns account info for a given address"
      },
      "getAdminInfo(address)": {
        "notice": "Returns the admin info"
      },
      "getAdmins()": {
        "notice": "Returns the list of admins"
      },
      "getBenefitors()": {
        "notice": "Returns the list of benefitors"
      },
      "getBucketInfo(address,string)": {
        "notice": "Returns a bucket info"
      },
      "getBucketTypes()": {
        "notice": "returns the bucket types"
      },
      "lockFunds(string,address)": {
        "notice": "Lock funds"
      },
      "releaseFunds(address,string)": {
        "notice": "Moves the amount associated with a specific bucket to the provided address"
      },
      "removeAdmin(address)": {
        "notice": "Disables an account"
      },
      "removeBenefitor(address)": {
        "notice": "Deletes a benefitor account"
      },
      "toggleAccountAccess(address,bool)": {
        "notice": "Enables/Disables an account"
      },
      "unlockFunds(string,address)": {
        "notice": "Unlocks funds"
      }
    },
    "version": 1
  }
}